:020000040800F2
:10000000280B0120FB0200085D020008F15C0008DB
:100010006102000863020008650200080000000099
:10002000000000000000000000000000670200085F
:1000300069020008000000006B0200082916000891
:100040006F020008710200087302000875020008C0
:1000500077020008790200087D480008B1480008CE
:10006000E5480008194900084D49000885020008C4
:1000700087020008890200088B0200088D02000830
:100080008F02000891020008930200089502000800
:1000900097020008990200089B02000881490008A5
:1000A0009F020008A1020008A3020008A5020008A0
:1000B000A7020008A9020008AB020008AD02000870
:1000C000E5170008E7170008E9170008B50200085F
:1000D000B7020008691A0008BD1A00080D1B0008C5
:1000E000594A0008C1020008C3020008C5020008FE
:1000F000C7020008C9020008CB020008CD020008B0
:10010000CF020008D1020008D3020008D50200087F
:10011000D7020008D9020008DB020008DD0200084F
:10012000DF020008E1020008E3020008E50200081F
:100130002F49072291438D462E492F480A1A06D08F
:100140000722914381F30988022282F314882B4805
:100150002B492C4A00F039F82B482C492C4A00F046
:1001600034F82C482C492D4A00F02FF82C482D4902
:100170002D4A00F02AF82D482D492E4A00F025F886
:100180002D482E492E4A00F020F82E482E490022F4
:1001900000F026F82D482E49091A082903DB002211
:1001A0000260043001601F481F49884205D0026880
:1001B000043003B4904703BCF7E700208646EC46C2
:1001C00000200021234A9047FEE7884207D0521AB8
:1001D00005D0037801300B700131013AF9D1704735
:1001E000884202D002700130FAE770471A4870471F
:1001F000280B0120280F0120280B0120A08C0008CB
:100200000000002014000020080300080803000874
:10021000847D0008A08C0008000000200000002061
:10022000847D0008847D0008847D0008847D0008AA
:10023000847D0008847D0008847D0008847D00089A
:10024000A08C0008140000202803002028030020B0
:100250002803012059110008FFFFFFFFFEE7FEE71A
:10026000FEE7FEE7FEE7FEE7FEE7FEE7FEE7FEE766
:10027000FEE7FEE7FEE7FEE7FEE7FEE7FEE7FEE756
:10028000FEE7FEE7FEE7FEE7FEE7FEE7FEE7FEE746
:10029000FEE7FEE7FEE7FEE7FEE7FEE7FEE7FEE736
:1002A000FEE7FEE7FEE7FEE7FEE7FEE7FEE7FEE726
:1002B000FEE7FEE7FEE7FEE7FEE7FEE7FEE7FEE716
:1002C000FEE7FEE7FEE7FEE7FEE7FEE7FEE7FEE706
:1002D000FEE7FEE7FEE7FEE7FEE7FEE7FEE7FEE7F6
:1002E000FEE7FEE7FEE70548854600F005F804480E
:1002F00004490160FFF71CBF7047FEE70080012042
:0803000008ED00E00000000818
:10030800024A034B0120DA60704700BF0400FA0577
:1003180000ED00E000207047002070470020704783
:100328000020704700207047002070470020704769
:100338000020704700207047002070470020704759
:100348000020704700207047002070470020704749
:1003580070470000002008B5024905F0AFFB0020F7
:1003680008BD00BFAD800008002008B5024905F0AF
:10037800A5FB012008BD00BFCC85000808B503F027
:100388001FFE012008BD1FB501A904F0E5FD50B10D
:10039800BDF80C30022B05D1019803C803F04EFFBD
:1003A800012000E0002005B000BD00002DE9F04F5D
:1003B80085B001A904F0D0FD002800F08A80002053
:1003C800524905F07BFB0024BDF80C309C4209D251
:1003D800019B224653F8243000204D4905F06EFB5E
:1003E8000134F1E7032B01D000208CE001988068EC
:1003F80004F060FD01998246486804F05BFD81467F
:10040800444900204A46534605F058FB09F10100CB
:1004180006F092FB80460028E6D0019A106804F0A6
:1004280049FD023006F088FB05460028DCD0002490
:100438003949047006F038FD019E2846316806F0F7
:100448002DFC019F01213868224603F08BFB0646EC
:1004580002212846B26903F085FB07460028C3D06D
:1004680020462E49B26905F029FBF06AB369984223
:100478002FD2304603F0B3FF8346019828494368DA
:100488005A4600201B5D05F019FB01994A68135D67
:1004980004F101025B4514D108F804300020144629
:1004A80020491A4605F00AFB4C45DED1019C002084
:1004B8001D49A26805F002FB019938468968524631
:1004C80003E008F804B03846414603F091FF0024E1
:1004D800CBE7304603F0E3FD384603F0E0FD019931
:1004E800086803F06DFD019B00201B680F492A4630
:1004F80005F0E4FA019A2846116803F09FFE2846A1
:1005080006F062FB012005B0BDE8F08F897D000888
:10051800967D00089E7D0008BC7D0008BE7D000811
:10052800CB7D0008DE7D0008F47D0008077E00080A
:1005380008B51321002203F015FB18B106F044FB9F
:10054800012008BD08BD08B504F04FFC03210022B6
:1005580003F008FB003018BF012008BD10B504F0F7
:1005680044FC0321002203F0FDFA044660B1074869
:1005780004F0A0FC05490246204603F039FF204656
:1005880003F08DFD012010BD10BD00BF1B7E0008CB
:1005980038B504F02AFC0721002203F0E3FA0446E8
:1005A80070B14025212220460649013D03F020FF75
:1005B80015F0FF05F6D1204603F071FD012038BD86
:1005C80038BD00BF2B7E000810B504F00EFC0446B1
:1005D80003F07EF9214603F0C3FF012010BD00009F
:1005E80070B5062104F03CFE00B970BD0024164E1B
:1005F80096F92430002B25DB304603F0F0FE054643
:1006080096F9240000281ADB0D2D08BF002450217C
:10061800B4FBF1F201FB1246B0B210B90B4905F078
:100628004DFA00200D2D06D0A5F12003D9B25E2980
:1006380001D9074900E007492A4605F03FFA013485
:10064800A4B2D4E7012070BD24010020297E00084F
:100658004C7E00086B7E000810B5062104F000FEF1
:1006680006210446002004F0FBFD1CB1003018BF31
:10067800012010BD204610BD10B5062104F0F0FD84
:1006880006210446002004F0EBFD1CB1003018BF21
:10069800012010BD204610BD1FB501A904F05CFC67
:1006A80028B1019B93E8030003F0FDFE012005B08B
:1006B80000BD000008B501F0FDFB03490246032018
:1006C80005F0FCF9012008BD517E00082DE9F04F26
:1006D8008FB00322062302A904F078FE002584B215
:1006E80054EA050300F089800298664904F01DFC6D
:1006F800002800F08280002D08BF022C08D1039842
:1007080004F084FE002406464FEAE079002513E051
:10071800002D08BF032C0BD1039804F077FE064682
:100728004FEAE079049804F071FE0446C51703E027
:10073800002400252646A9460020534905F0BEF9A5
:1007480003F0C6F88046002800F099808189A6FB4E
:10075800016701FB0977B8F80C00A4FB002300FB34
:1007680005339F4208BF964245D2D8F80030D8F8E2
:100778004800196832463B4688474FF00F0A4FF049
:10078800000B0AEA060A0BEA070B5AEA0B03814632
:1007980005D100203D4932463B4605F08FF94846D1
:1007A80004F02CFB10B10020394900E039494A46D1
:1007B80005F084F901220020B61847EB0007CAE7C4
:1007C80001F078FB03F092F8036882469A89C068C2
:1007D80000245043002541090E460027A046A9469B
:1007E800B94508BFB04506D22146504605AA02F0D1
:1007F8000BF9044618BB012041E003F069F8834671
:100808000028DDD1244905F059F903F05BF80024EC
:1008180006460025F2B200239D4208BF9442EAD260
:10082800E0B203F05BF803461A6B00201B4905F0A1
:1008380045F901220020A41845EB0005EAE79DF8D8
:10084800343003F01002D0B230B1002014490C9AB1
:100858000A9B05F033F90BE0BBF80C10079B0C9AC8
:100868004B43019200930F49099A0A9B05F026F918
:100878000120002118EB000849EB0109B0E70FB08F
:10088800BDE8F08F557E0008297E00085D7E0008CF
:10089800697E00086E7E0008747E00087E7E00086F
:1008A800887E0008957E000810B504F09EFA04467C
:1008B80004490020224605F001F92046BDE8104011
:1008C80003F024BAA67E000838B504F08EFA05466F
:1008D80001F0F0FA04F0EEFA0446284604F0EAFAC9
:1008E800A11C081806F028F9044601F0E3FA0146AD
:1008F800204606F0D9FA2046074906F0CFF92946DE
:10090800204606F0CBF9204602F0F0FFC461BDE8AE
:10091800384003F0D5BA00BFE38A000810B504F0E8
:1009280064FA0121002203F01DF90446A0B1006910
:10093800A16A02F053F860B104F07AF9211D6061F0
:10094800A06A02F077FC20B1204603F0A8FB012042
:1009580010BD204603F0A3FB002010BD38B504F0FD
:1009680044FA0121002203F0FDF8044680B1142561
:10097800204603F008FD024608B9012038BD013DB4
:1009880000200449ADB205F099F8002DF0D1F4E744
:1009980038BD00BF517E0008F0B5044685B0002080
:1009A8009349224605F08AF8204601A904F0D4FAB2
:1009B800002800F0D48000208E4905F07FF800243C
:1009C800BDF80C300020A34208D9019B8A4953F88E
:1009D800242005F073F8601C84B2F1E7874905F01C
:1009E8006DF80024BDF80E00A04209D9029A824988
:1009F80052F82420002005F061F8611C8CB2F1E760
:100A0800019908687E4906F075FA044638BB7D49A5
:100A180005F054F8BDF80C10012905D9019C60684F
:100A280006F094FA82B200E022460198022140685A
:100A380003F098F8044620B90020734905F03EF801
:100A48008DE0BDF80C20012A40F2C180019B0020F6
:100A58006E495A6805F032F8019D6D681FE0019AE9
:100A68006B49106806F046FA054608BB694905F067
:100A780025F8019806214068002203F073F804461F
:100A88000028D9D0BDF80C20012A40F2A080019B93
:100A9800284661499A6805F011F8019DAD68284615
:100AA80006F054FA29460246204603F0A1FC8EE0DF
:100AB80000205A4905F002F8BDF80C30012B53D933
:100AC80001984F49406806F015FA00284CD154495E
:100AD80004F0F4FFBDF80C000328ADD9019948686B
:100AE800474906F007FA0246002838D1019E02213C
:100AF800306803F037F8064600289DD00224BDF878
:100B08000C200020A242019B21D953F824204549FA
:100B180004F0D4FF019D012155F82400002203F0C0
:100B280021F80546002887D00027A96928468F4262
:100B380008D203F054FC01370146304603F0E7FCC5
:100B4800BFB2F2E7013403F0AAFAA4B2D7E73649F4
:100B58001A6804F0B3FF304603F0A1FA42E001A896
:100B680004F02AFB002041E0019C002022682F4964
:100B780004F0A4FF019900220868012102F0F2FFA5
:100B8800044600283FF458AF0020294904F096FF96
:100B98000FE0BDF80E2012B3019B2649186806F035
:100BA800A9F9E0B924492A4604F088FF284606F046
:100BB8000BF8204603F09EFD28B9204603F0E3FB1E
:100BC80005460028E5D100201C4904F077FF20469F
:100BD80003F065FA00200C4904F070FF02E00020E1
:100BE8000549E0E701A804F0E7FA012005B0F0BDE7
:100BF800C87E0008DE7E0008517E0008E77E0008F7
:100C08002B7F0008F37E0008007F00081D7F000886
:100C18002A7F00082D7F00083D7F0008497F0008D3
:100C28006B7F00082D880008147E00087E7F00086E
:100C38008B7F000859800008AA7F0008947F00086D
:100C480070B504F0D2F8054606F080F9013005F0D9
:100C580073FF044600282ED0294606F025F92046C1
:100C6800154906F075F815490646002006F070F893
:100C780005460020014606F06BF811490446324645
:100C8800002004F01BFF00200E492A4604F016FF3E
:100C980000200D49224604F011FF3DB120460221F3
:100CA800002202F05FFF002003F0F9F9204605F06A
:100CB8008BFF012070BD70BDCE89000894810008AB
:100CC800B37F0008BD7F0008C57F000838B504F071
:100CD8008CF8054C0546204605F01AF820462946AA
:100CE800BDE8384005F02DB86001002038B504F0A3
:100CF8007CF8054C0546204605F00AF820462946AA
:100D0800BDE8384005F008B860010020F0B58DB0A6
:100D180004A90822062304F059FBC6B20EB9002024
:100D280036E004981B4906F0E5F820B91A4904F0A2
:100D3800C5FE012500E000250024731B9C4218DA3B
:100D48000CAA2F1902EB870757F8200C04F07CFD3A
:100D58000CA90346FF2B01EB040000F8283CDED069
:100D680000200E4957F8202C013404F0A7FEA4B245
:100D7800E3E79DF80A109DF80B00009101909DF89B
:100D880008209DF809300648294601F0E1F80120BD
:100D98000DB0F0BDD37F0008DB7F0008E97F0008B5
:100DA8003C8C000808B501F01BF8034B1A7842F098
:100DB80001001870012008BD5D0100202DE9FF41E8
:100DC800044602F085FD01A90546032220460623B4
:100DD80004F0FCFAC0B2002D39D0012837D90198A7
:100DE8001D4904F089F830B1029804F00FFB4FF464
:100DF8008057804607E0019804F008FB8046029877
:100E080004F004FB07460020144904F057FE0024B0
:100E1800BC421AD02B68A86C196804EB080200239E
:100E28008847064614F00F0002D10C4904F046FE2C
:100E3800304603F0E3FF10B10020094900E00949FA
:100E4800324604F03BFE0134E2E7012000E00020D6
:100E580004B0BDE8F08100BFF17F0008297E0008DA
:100E6800F87F0008FD7F000837B50623694602228F
:100E780004F0ACFAC0B250B1009D284601F0E2F887
:100E8800044904462A46002004F018FE00E00446FF
:100E980020463EBD048000082DE9F0418CB004A92D
:100EA8000822062304F092FAC6B20EB9002034E0F4
:100EB800049D1B48294606F01DF8044618B919492F
:100EC80004F0FCFD25460024731E9C4216DA671CBC
:100ED8000CAA02EB870858F8200C04F0B5FC0CA902
:100EE8000C19FF28034604F8280CDFD000200E490F
:100EF80058F8202C04F0E2FDBCB2E5E79DF80A1092
:100F08009DF80B00009101909DF808209DF809308C
:100F18000648294601F0BCFE01200CB0BDE8F0816E
:100F2800557E000812800008348000083C8C0008B8
:100F38007FB50222062302A904F048FA10F0FF0F39
:100F480001D10020AAE00298554905F0D3FF70B9F5
:100F58000020544904F0B2FD1E211F238DE80A0029
:100F68001C2203991D23504802F00AFC33E0029822
:100F78004E4905F0BFFF0028EAD002984C4905F019
:100F8800B9FF60B900204B4904F098FD1F2000907C
:100F98001C211D221E23444801F01FFE1BE002985D
:100FA800454905F0A7FF0028ECD00298434905F011
:100FB800A1FF50B91E221F238DE80C0003991C22A3
:100FC8001D23394801F0E1FD05E002983C4905F090
:100FD80091FF054608B1012060E0039802F0ACFDDE
:100FE80004460028ADD02846364904F067FDA36BB7
:100FF80093F82C0010B12846334900E0334904F037
:101008005DFD00203249226B04F058FD0020314973
:10101800E26904F053FD00202F49228B04F04EFDB5
:101028000025208BA84211D960692E0182190CCAAB
:1010380000202A4904F042FD616900208E19328996
:10104800274904F03BFD6B1CDDB2EAE70020254987
:1010580004F034FDA26B00201E49D26804F02EFD76
:10106800A56B00202A891C4904F028FD0025A16BE6
:101078000B89AB42AFD948682E0182190CCA0020EF
:10108800164904F01BFDA16B00204B6801359E1921
:101098001349328904F012FDEDB2E8E704B070BDDF
:1010A8003D800008438000083C8C000858800008F8
:1010B8005B80000862800008738000087680000862
:1010C8007F8000088980000892800008A2800008BC
:1010D800B3800008BE800008D0800008E3800008C4
:1010E800FD8000081081000830B585B001A903F023
:1010F80033FFD8B1039BB3F1011F17D102981049F0
:10110800006805F0F7FE0546B8B90E4904F0D6FCAC
:101118000199086804F054FB04460B492846224606
:1011280004F0CCFC204603F065FD06E003F080FDEA
:1011380006490246002004F0C1FC012005B030BD7C
:10114800537E0008218100082F8100083A81000899
:10115800884B73B59A6942F01C009861D96941F4CB
:101168008024DC61DD6945F40036DE619A6942F469
:101178008040986199690B2041F004049C619D6945
:10118800032145F008069E6103F040FB0C20032173
:1011980003F03CFB01210B2003F00AFB00F0A0FD4B
:1011A800754B7649764A18600A60186840F216440A
:1011B800A042744D0CD1744974482960744B754D24
:1011C800754C764A1D6011260460056816601EE09D
:1011D8001E686F4AB6F5846F03D01B68B3F5856F38
:1011E80008D16F4C694E14606E4A6F4832602860AF
:1011F80035680CE06D486E4C286014606D4D634E88
:101208006D4A664B35600A606C4D12211960594B66
:1012180019681E4641F4803018603468554AA403A2
:10122800FBD500235549936208685060166846F05C
:10123800807414604F4A13689801FBD5604E802172
:1012480040202024514A71607060746013684FF424
:101258007A71B3FBF1F046F8E80C14680723B4FB85
:10126800F1F246F8EC2C46F8F03C564E052045F2D3
:10127800555140F6FF744CF6CC424AF6AA23316029
:101288007060B4603260336006F55C4671684FF494
:10129800613321F47F407060746844F49642726050
:1012A800EE08B5FBF3F5B6FBF3F105F0070000EB2C
:1012B8000114454EA2B24FF400634AF22C01328168
:1012C800B382B18104F0C6FB00F0AEFA03203F49B7
:1012D80000F050FB03203E4900F05AFB3D49032033
:1012E80000F064FB032000F06FFB032000F0B2FA6B
:1012F800244D0C20012103F05BFA3749002004F04B
:10130800DDFB2D6800F0D2FC044600F0DDFC06464B
:1013180000F0E0FC23462A46304901900096002060
:1013280004F0CCFB00F0DCFC2D490246002004F060
:10133800C5FB03F00FFC2B4804F0DCFC1E251F2422
:1013480001211C221D2300950194274800F000FE6E
:1013580026491C221D2300950194234802F010FA07
:1013680000950194204821491C221D2301F090FC7E
:10137800FEE700BF001002401800002058010020BE
:10138800020001001C000020847D000814000020D9
:10139800FC0100200024F4000048E801002002407D
:1013A800001BB70000366E01688400086D840008D1
:1013B80000127A0000A24A0402C01D000051250252
:1013C80000E100E00030004000480040851B0008B4
:1013D8005D1B0008391500083E810008548100088B
:1013E80078810008600100203C8C00088781000893
:1013F80008B502F06DFA00F05DFD034902460020D1
:10140800BDE8084004F05ABB8E81000870B5002280
:1014180090B004460846012102F0A4FB054600B935
:101428002CE0002016490246234604F047FB00F052
:10143800D7FC0020134904F041FB002695F924301D
:10144800002B1BDBFF2E19D00024284602F0C7FF13
:101458000D280DF804000DD110A80419002104F876
:10146800401C6846062103F0FBFE013000F0C2FB79
:101478000646E3E70134402CE7D1DFE710B070BD42
:10148800968100086086000838B503F0AEFC02219A
:1014980003F0E6FE04210446002003F0E1FE0546C1
:1014A80003F008FDC1B2284603F07EFC054622463B
:1014B8002B460020054904F001FB28462146FFF78A
:1014C800A5FF034A034BDA6038BD00BFB2810008AC
:1014D8000400FA0500ED00E02DE9F0410D46032176
:1014E800074603F0BDFE00240646104855F83410A0
:1014F80005EBC40803F019FDA0B9304655F83410BF
:1015080003F013FD58B13046D8F8044003F0D2FC7C
:101518003818A047003018BF0120BDE8F081013419
:10152800A4B2E2E70020BDE8F08100BF2A7E0008EF
:10153800F8B501210C2003F03BF900F085F9284D9E
:101548000646032000F086F92B8803F0200081B2BC
:1015580000293CD02A8822F020042304180C288073
:10156800A9882048CCB2214604F082FC024648B93A
:101578002B2C1D4F0BD11D4804F07EFA80233B70A5
:10158800FFF736FF3046BDE8F84000F063B93B7816
:1015980018061CD50D2C164B0DD1197815481A7044
:1015A80042541549FFF798FF10B9144904F086FA18
:1015B800FFF71EFF0BE0A0B2A880082C1A7802D112
:1015C8002AB1501E02E00B49501C8C54187030464A
:1015D80000F040F90C200121BDE8F84003F0E8B81C
:1015E80000480040600100205C010020D481000810
:1015F8002001002020000020D0820008E08100089F
:101608001FB501A903F0A8FC20B1019B0349186884
:10161800FFF762FF002005B000BD00BFD0820008C0
:10162800034B04484AF6AA221A6004F0D7BB00BF4D
:10163800003000406001002070B54268448A0023F1
:101648005461802545FA03F5868A0D42856814BFE2
:101658002E616E610133082B14615461F1D170BDA4
:1016680038B5038B0C4603F0040291B2054649B124
:10167800210EFFF7E1FF2846C4F30741FFF7DCFF1F
:10168800284603E003F002039AB21AB1C4F3072113
:10169800FFF7D2FF2846E1B2BDE83840FFF7CCBFDC
:1016A8000368028A10B504465A61FFF7C5FF20682F
:1016B800218A016110BD4268418A002370B5C4685F
:1016C800C58A516118461161A668354204D0802642
:1016D80046FA03F63043C0B20133082B5161F2D108
:1016E80070BD0368028A10B504465A61FFF7B8FF57
:1016F800208B00F008018BB213B12046FFF7DBFF07
:101708002046FFF7D8FF2168228A0A6110BD38B544
:1017180003681546028A04465A61FFF7A1FF208B29
:1017280000F010018BB213B12046FFF7C4FF20462A
:101738002946FFF781FF2068228A026138BD2DE91A
:10174800F84316469DF8208004460D4608460321B6
:101758001F469DF8249003F059F80321304603F002
:1017680055F8B8F1FF0F0CD00321404603F04EF8AE
:10177800404602F0FDFFA06008F00F0004F01CF9DD
:10178800A082FF2F0CD00421384603F03FF83846DA
:1017980002F0EEFFE06007F00F0004F00DF9E082C0
:1017A800284602F0E5FF2060304602F0E1FF606065
:1017B80005F00F0004F000F9208206F00F0004F095
:1017C800FBF800216082A4F81890304602F0F0FF80
:1017D80028460121BDE8F84302F0EABF7047704788
:1017E80070470000032810B516D8282358430B4922
:1017F80000220B180A520A480A49D8605861144650
:101808005A809A80DA801A815A819A61DA6183F85B
:1018180024201962012010BD002010BD0002002004
:1018280063590008297E000808B50020FFF7DAFF91
:101838000120FFF7D7FF0220FFF7D4FF0320BDE800
:101848000840FFF7CFBF0000014B1878704700BF72
:10185800A0020020114B282218705043104B1A1870
:10186800195A5088198058809188D0889980D880D2
:101878001189508919815881D1681069D960186116
:101888005169906959619861D16992F82400126A86
:10189800D96183F824001A62704700BFA0020020B3
:1018A80000020020032813D80D4B282202FB003029
:1018B80042896AB1013A4281C36902899B5C01325B
:1018C8008B80C38892FBF3F103FB112202817047DE
:1018D8008B8923F080000204130C8B81704700BFB2
:1018E8000002002007B5002303288DF804108DF8A6
:1018F800053006D80349282202FB0010C36801A856
:1019080098470EBD00020020032830B513D82824BC
:1019180044430A4D2B19988870B10138598882B20E
:101928009A8089182A5B9B6991FBF2F002FB1011DF
:101938008AB2985C30BD002030BD00BF0002002094
:10194800032830B512D828235843094C23189A88FD
:10195800205A82420AD25C88A41894FBF0F500FB56
:10196800154001329A809B6980B2195430BD00BF7E
:1019780000020020032806D8044B282202FB00306E
:10198800C160012070470020704700BF000200209E
:10199800032806D8044B282202FB003001610120ED
:1019A80070470020704700BF00020020032806D8B7
:1019B800044B282202FB00304161012070470020BF
:1019C800704700BF00020020054B282202FB0030B0
:1019D80090F8241041F0200280F82420704700BFBE
:1019E800000200202DE9F0411C4F28230D4603FB7F
:1019F8000071044601F120082846096A03F004FA38
:101A0800C6B298F8040000F00202D3B223B11EB99E
:101A180020462946FFF766FF282101FB047797F83F
:101A2800240000F00402D3B2204623B1082D02D1CD
:101A3800FFF76AFF02E02946FFF782FF07482821DF
:101A480001FB040463693BB194F8242002F0080107
:101A5800C8B200B106B19847BDE8F0810002002085
:101A6800114B10B51A8802F0200081B271B10F4CE9
:101A780094F84C2002F02000C1B211B1E46BA047E9
:101A880004E09B880120D9B2FFF7ACFF0648028822
:101A9800044602F080018BB21BB101200449FFF714
:101AA80001FF0020208010BD003801400002002006
:101AB80000440040114B10B51A8802F0200081B292
:101AC80071B10F4C94F8742002F02000C1B211B12A
:101AD800646EA04704E09B880220D9B2FFF782FF1A
:101AE800064C228802F0800081B219B102202146FA
:101AF800FFF7D8FE0023238010BD00BF004400403C
:101B080000020020114B10B51A8802F0200081B2A3
:101B180079B10F4C94F89C2002F02000C1B219B1A1
:101B2800D4F88C40A04704E09B880320D9B2FFF783
:101B380059FF064C228802F0800081B219B10320B7
:101B48002146FFF7AFFE0023238010BD0048004068
:101B5800000200204FF47A73074A118801F08001CF
:101B680089B211B1908001207047013B9BB2002BD4
:101B7800F2D11846704700BF0048004010B5441E17
:101B880014F8010F20B1FFF7E5FF0028F8D100E0B5
:101B9800012010BD144B9842144B11D91A6D12062E
:101BA80004D5134A5A6402F188325A641A6D42F015
:101BB80001021A6501800D4BD86CC107FBD410E0F7
:101BC8001A69120604D50A4A5A6002F188325A6024
:101BD8001A6942F001021A6101800448C168CB0702
:101BE800FBD40120704700BFFFFF07080020024018
:101BF8002301674570B590B0694603F097FE9DF8DC
:101C080003309DF80060052B47D8DFE803F0050393
:101C180046462E36FF2041E09DF802409DF80150CF
:101C28001F4904EB05251F4C0D60237843B91E4A54
:101C38004FF6FF7110682818FFF7ACFF01212170DB
:101C48000024B44229D2184B10A91A680B19A818F5
:101C580013F83C1C13F83B2C001941EA0221FFF74A
:101C680099FFD8B10234A4B2EBE79DF804309DF88F
:101C780005001A0642EA00410DE09DF805209DF88E
:101C8800040011049DF8073041EA00609DF8062021
:101C9800184340EA022104480160012010B070BDD9
:101CA800A4020020A1020020A8020020054B1888E9
:101CB80081B2B1F5007F94BF4FF480604FF40060AB
:101CC800704700BFE0F7FF1F014B1888704700BF3F
:101CD800E0F7FF1F014B1888704700BFE2F7FF1FAE
:101CE8000E4B18680105080DA0F58062B2F5807FDB
:101CF80013D90B4B188840280DD080280BD0A0F59D
:101D0800807140F2144340F21242B1F5807F8CBFDB
:101D18001046184670474FF482607047002004E070
:101D2800E0F7FF1F294B10B51A88002391B2B1F5CF
:101D3800007F34BF4FF480724FF40072011F51F8D6
:101D4800044FB4F1FF3F03D101339BB29342F6D362
:101D5800934201D1012010BD1D4C1E4BA0421E49CB
:101D68001E4C13D95C645964196D41F00201196560
:101D78005865196D41F040011965164BD96CC907B2
:101D8800FBD4196D21F04201196512E05C605960BD
:101D9800196941F0020119615861196941F040015E
:101DA80019610C4BD968C907FBD4196921F04201A4
:101DB8001961002350F82310013104D1013399B27D
:101DC8009142F7D3C6E7002010BD00BFE0F7FF1F20
:101DD800FFFF070800200240AB89EFCD23016745CC
:101DE800F8B5134B1A881F8890B2B0F5007F0BD353
:101DF800C7F34E04A51EAFB24FF40066042404FBDB
:101E080006F303F1006505E0B91E8FB24FF4806652
:101E18000824F4E7BC4209D206484AF6AA2202601E
:101E28002846FFF77FFF0134AD19F3E70120F8BD1D
:101E3800E0F7FF1F003000401C4B70B51C680546DA
:101E48000CB9002070BDE06A08B104F0BDFECDB940
:101E5800206B03F02FF8861C304604F06DFE2946EF
:101E6800E062324604F0E8FFE16A0029E9D0206B1D
:101E78000028E6D00E4803F0EAF9206BE16A03F087
:101E8800D8F911E0284603F015F8461C304604F04E
:101E980053FE0021E062324604F0CEFFE16A0029D9
:101EA800CFD0284603F0D3F9012070BDB40200203A
:101EB800E38A0008054B186828B1C06A044900285D
:101EC80008BF084670470248704700BFB4020020A8
:101ED800E38A0008F8B51C4B044618781B4D48B334
:101EE800296839B30026184F184D3A78964213D20C
:101EF8002A68216B52F82630B700186B04F0FAFFF5
:101F080040B92968C859844212D004F05DFE286897
:101F1800C4510DE00136E6E7531C2868990004F027
:101F2800A7FE80B13978286040F82140481C3870F5
:101F38000120F8BD042004F0FFFD286018B1024A12
:101F4800046001201070F8BDB0020020AC0200202F
:101F58000EB4FFB504464C209DF8247004F0ECFD47
:101F6800064600283CD00AAB00930393616A00221E
:101F780000F1480000238847314641F8044BE26AE3
:101F8800B06C904727B13068416BB06C88471FE050
:101F980000240025B06887421AD23268134B4AF6EB
:101FA800AA211960B06C91682B462246884741F2F5
:101FB8001113984205D030682246816B2B46B06CCD
:101FC8008847B2890023A41845EB03050137E1E7E8
:101FD800B06C04F0F9FD304604F0F6FD0120FFE78F
:101FE80004B0BDE8F04003B0704700BF00300040C7
:101FF800836B10B50446586808B104F0E5FDA06B82
:10200800006A08B104F0E0FDA16BC86908B104F0EA
:10201800DBFDA06B08B104F0D7FD206B08B104F01C
:10202800D3FDE06A08B104F0CFFD606908B104F09F
:10203800CBFDA06C08B104F0C7FD204604F0C4FD38
:10204800012010BD2B4B2DE9F047D3F800908246B4
:102058000024294D287884422AD2DFF8A080A700DE
:10206800D8F8001051F824205146106B04F042FFB4
:102078000646D8B92B785D1EA80004F05DFD05461C
:10208800002834D0D8F80000C159494504D1194A6C
:1020980030461660FFF7D0FE184B1868C059FFF796
:1020A800A7FF15490022087813460DE00134D0E750
:1020B800002519E0A34206D01049096851F82310F9
:1020C80045F82210013201338342F3D30B4C2068C8
:1020D80004F07AFD084A1378581EC1B2117009B18C
:1020E800256000E021600125E8B2BDE8F087BDE881
:1020F800F08700BFB4020020B0020020AC0200202C
:10210800036882880B608A80836802698B600A6131
:10211800C3684269CB604A618369C26990F820004C
:102128008B61CA6181F8200070470B7830B51C02BA
:10213800048111F8012F002314430022C0E9002371
:102148000481302411F8015FD0E9002305FA04F571
:10215800083C2A4343EAE57314F1080FC0E9002359
:10216800F0D130BD038910B542680468180A4B7075
:10217800087000230231C8188471013B240A44EA1C
:102188000264120AD81DF6D110BD8C4619468389FF
:10219800F0B5981EDCF80840B2FBF0F5A54244D82B
:1021A80000242646AE4207D3ADB16843B2FBF0F730
:1021B80000FB1720821C0FE0BCF80470BC42F3D26D
:1021C800DCF8007007EB04173F89F719AF42EBD82A
:1021D80001343E46E6E70232AE1B5E4390B2DCF8BD
:1021E800002002EB0415D5E90045A41986B245F193
:1021F80000050027A419BCF8046045EB0705771E05
:1022080002EB0712B2F808C0C1E9004503FB0CFC59
:10221800D2E9006716EB0C0647EBEC77AF4208BF34
:10222800A64202D3191A88B2F0BD4FF0FF324FF020
:10223800FF33C1E900230020F0BD2DE9F04F0F4620
:10224800898887B0164619B1B2F8048000231FE0C8
:1022580000205EE03D6805EB0914D4E900AB039566
:102268000294DDE904455D4508BF54450BD1029C45
:10227800258914892D19039C158104EB0C0A002566
:102288000024CAE9004509F101098945E2D301336F
:10229800434515D234684FEA031C04EB0C0204686A
:1022A8001589B4F80C9009FB05F9D2E9004514EB3F
:1022B800090A45EBE97BCDE904AB4FF00009E4E7F7
:1022C8000024BB889C421FD23B6825015819D0E9DD
:1022D800002352EA030A15D0B18830684B1C190153
:1022E80004F0C6FC0028B3D03060B1883A6800EB2F
:1022F80001105519D5E90023C0E900232B890131C4
:102308000381B1800134DCE7B068BA688118B16034
:10231800012007B0BDE8F08F2DE9F04F03680746AC
:102328009889002685B08A460E6041090191B04619
:10233800B146FA68914533D24FEA481B019B98454C
:102348002AD2391D38685A4602ABFFF71EFFDDE96D
:102358000245B5F1FF3F08BFB4F1FF3F1FD06FF052
:102368000100021938684FF0FF3141EB050301689D
:10237800CDE902230969806C884728B9DAF800207A
:10238800531CCAF8003002E0013008BF013608F1DA
:1023980001080BF1200BD1E709F10109C9E7002673
:1023A800304605B0BDE8F08F03682DE9F04F9A89F3
:1023B8000746C06885B050438B4600264109019105
:1023C800B046019B98450FD04FEA4819391D386827
:1023D8004A4602ABFFF7D9FEDDE90245B5F1FF3FFA
:1023E80008BFB4F1FF3F02D14FF0000A1CE06FF0C4
:1023F800010212194FF0FF3040EB05033868CDE9B0
:1024080002230168806C0969884748B1013008D106
:10241800002E08BFCA460136F6B25E4501D103E078
:10242800064608F10108CCE7504605B0BDE8F08F34
:102438002DE9F04F064685B0D0698946904602F0EE
:1024480039FD431EFE2B074600F2B6803068D8F8E7
:102458000C20016800924C69D9E90023806CA047E0
:10246800D9E9002335680021286804240091D0F8B0
:1024780004C0A86C0025121943EB0503E047D9E90D
:102488000045336805201A680021241845EB01052A
:10249800D2F814A0D3F848B002F0CAFB22462B4663
:1024A80000905846D047D9E90023316898F8204071
:1024B800086804F013050095D0F804C0886C092159
:1024C8000024521843EB0403E047D9E90023356898
:1024D800F9B228680A240091D0F804C0A86C002535
:1024E800121943EB0503E047D9E90023152F30689B
:1024F8004FF00B044FF0000505D8D8F81C100668FB
:102508008DE8820052E0D8F81C10D0F800E04FF0B7
:10251800150A0091CDF804A01219DEF81C10806C81
:1025280043EB0503884709F108094FF0010B3368AD
:102538005FFA8BF01A6800904946D2F804C004226A
:10254800D1E90045986C0023121943EB0503039168
:10255800E047CAEB070EBEF11B0F09F10809306806
:102568004FF005044FF00005039917D9D8F81C104F
:10257800D0F800E0514459E9022300911B21019150
:10258800121943EB0503DEF81C10806C0AF11B0AD4
:102598008847BA450BF1010BC9D30DE0D1E90023F7
:1025A800D8F81C10066851448DE802401219F169E8
:1025B800806C43EB05038847012005B0BDE8F08F28
:1025C80073B51D4603681446FE211A6800915168C8
:1025D80004220646986C0023121943EB050388472A
:1025E80030689DF818100268009151680522002390
:1025F800121943EB0503806C88473068079A016815
:10260800009208220023121943EB05034969806CE4
:10261800884701207CBD2DE9F04F98461368824613
:1026280098898BB08B464109144607910026228968
:1026380096423BD24FEA06190025636803EB09006E
:1026480001898D4230D20127079A97422AD2206801
:102658006368818903EB090E6943DEE90023521898
:1026680043F100037901521843F10003CDE9042333
:1026780008A9C8E900230368052200910192D3F84C
:1026880018C0806CDDE904230391E0470121039819
:1026980002F08AFB50459DF8243001D15B450DD0EE
:1026A8000137D1E70135C8E70136C0E74FF0FF32FF
:1026B8004FF0FF33C8E90023002000E001200BB0F1
:1026C800BDE8F08F37B515461C46FFF7A4FF80B16B
:1026D8002B68069A1B20196830CC009201900522BD
:1026E800986C0023121943EB050389698847012078
:1026F80005E04FF0FF324FF0FF33C4E900233EBD41
:10270800F0B58DB00B46164605AA0092FE211A4672
:1027180002ABFFF7D7FF20B39DF81440601EC1B28B
:10272800FD290DD99DF81540651EEFB2FD2F07D97B
:102738009DF816305C1EE2B2FD2A94BF1C460124A7
:102748000DF117050DF12F070121284602F02CFB8A
:10275800411ECB1C01D8706106E00435BD42F3D19F
:1027680000E001240020706120460DB0F0BD2DE985
:10277800F04F8FB0894607AE1546009600214A46AD
:1027880004AB8246FFF79EFF08B9002053E0012101
:10279800304602F009FB9DF820309DF82140286161
:1027A80085F82030204604F0C7F9E8610028ECD00D
:1027B800152C06F1060103D8224604F019FB1FE088
:1027C800152204F015FB04F1060B1B209BFBF0F20D
:1027D80002F101065FFA86FB152701260AE0C019F7
:1027E8006146424604F004FBB8F11B0F08D91B37B9
:1027F800FFB20136C7EB04085E455FFA88F804D3D8
:10280800E96900200855012015E00DF11C0CCDF8F0
:1028180000C004AB5046F1B24A46CDF80CC0FFF7F1
:1028280051FF0346DDF80CC0E869002BD7D10393AC
:1028380004F0CAF9A9E70FB0BDE8F08F2DE9D04F31
:1028480092B00290102003919346994604F074F9CF
:10285800064608B9002048E04FF0000A5746D0461F
:10286800039B98450AD20BA808F121010090C9B230
:1028780002985A4604ABFFF725FF38B9C9F800603B
:10288800A9F80470C9F808A001202EE000240BAABA
:10289800111906A8FFF749FCDDE906016FF00102EE
:1028A8004FF6FF738B4208BF82421BD3BDF820301E
:1028B800ABB19A440AF101013046090104F0D8F994
:1028C8000137FFB206460028C4D07A1EBDF8203072
:1028D80000EB02100381DDE90623C0E90023093477
:1028E8001B2CD4D108F10108BAE712B0BDE8D08F8B
:1028F800F8B5431E033304460E46154614D8FFF7B1
:1029080036FF074690B1314620462A46FFF7F8FEC3
:10291800014628B1204632462B46FFF78FFF40B9C3
:102928000549032003F0CAF80020F8BD0320034935
:10293800F8E70120F8BD00BF728400089184000800
:102948001FB5002102AC02918DF80C1001680094AB
:1029580005240194C969806C884704B010BD73B51B
:1029680006460D4600243046E1B22A466B46FFF77C
:1029780052FE48B12868DDE900230134FFF7E0FF83
:10298800212CF0D1002000E001207CBD13B50C46BD
:102998002246FE216B46FFF73EFE38B12068DDE98E
:1029A8000023FFF7CDFF003018BF01201CBD73B511
:1029B80006460D4621243046E1B22A466B46FFF70B
:1029C8002AFE48B12868DDE900230134FFF7B8FF83
:1029D800E82CF0D1002000E001207CBD38B5054688
:1029E8000C46FFF7BCFF08B9002038BD2846214631
:1029F800FFF7DDFF0028F7D028462146FFF7C6FF7E
:102A0800003018BF012038BD2DE9F04F814687B04E
:102A1800884692464FF0000BD9F80000C3899B45C1
:102A28000DD209F10401424604ABFFF7AEFBDDE924
:102A38000467B7F1FF3F08BFB6F1FF3F02D14FF07F
:102A480000083BE0D9F800006FF00104A4194FF02A
:102A5800FF3545EB07050268052102AE0096019196
:102A680091692B462246CDE90445806C88470121AF
:102A7800304602F099F9431E033308F12008044652
:102A880019D89DF80C20B2B949465246FFF730FFD5
:102A98000028D4D09AF8200000F01001CBB21BB166
:102AA8000022CAF8142009E0204649465246FFF79A
:102AB80027FE18B9F4E70BF1010BADE7404607B064
:102AC800BDE8F08F0EB4F0B5B4B0054615AF3AA81E
:102AD80004AB08AE21AC1693039000230090696AFA
:102AE80000222F97269633A88847211DEA6A219548
:102AF8002F97169633989047BDF890302F9958091C
:102B0800ADF892000C604C6800220023C4E9002351
:102B18000123238113220024CB600B81CC610C623A
:102B280081F824208C6181F82C302398844223D2A8
:102B3800BDF890202199002362438968339888471B
:102B48004BF6BB33984201D00134EEE72F980022B0
:102B580041680023C1E90023BDF89220012AF3D07F
:102B680020210CAAFFF750FF0028EDD01398002170
:102B780004F0C0F90028E7D14FF0FF304FF0FF31E3
:102B880034B0BDE8F04003B070470EB4FFB509AEED
:102B980056F8041B074632460396FFF793FF044690
:102BA8000D46B5F1FF3F08BFB4F1FF3F0FD00096C7
:102BB80003960026796A002200233046884700964B
:102BC800F968304622462B468847012000E000205D
:102BD80004B0BDE8F04003B070470FB430B504202E
:102BE800B1B0349D03F0A8FF00284AD035AB00935C
:102BF8000393696A002200232FA888471DAC04AA02
:102C080011A8211D2B901292EB6A1D952F989847B9
:102C18002B9900220C60BDF88040002360094C68A5
:102C2800ADF88200C4E90023012323811322002484
:102C3800CB600B81CC610C6281F824208C6181F817
:102C48002C301F998C421CD21D98BDF8802000237F
:102C5800816862432F9888474BF6BB3398420ED160
:102C68002B98002241680023C1E90023BDF8822087
:102C7800012A04D020210DEB0102FFF7C5FE013423
:102C8800DFE7002031B0BDE8304004B070470000F5
:102C98000EB42DE9F047044689B04C20119F03F08B
:102CA8004BFF064608B90026C0E0302003F044FF79
:102CB8000546B0630028F6D0102003F03DFFB36B43
:102CC800686058680028EED012A90091656A002350
:102CD800002206F148000391A847314641F8044B09
:102CE800E26AB06C9047B06BB48941684FF0010854
:102CF8006309002500244FF01309F3810660C1E938
:102D08000045A1F8088080F82490B36B002283F86E
:102D18002C80C0F80C80A0F80880C2610262B06BF9
:102D28009A618262002F7FD1102003F005FF82464E
:102D3800706170B1404802F0BDF8013003F0FCFE4C
:102D48003D49306304F0B0F8D6F830A0BAF1000F6E
:102D580004D13046FFF74CF9564667E07269504691
:102D6800C2E90045A2F80880C6F81C80A6F81880B9
:102D7800F76286F8349002F04FFEB76230627764EB
:102D88003046FFF7A7F82D490B78012B4ED138466E
:102D980047E00135B1688D4285D23368B2899968B8
:102DA8006A430023B06C88474BF6BB329042F0D19F
:102DB800B06B002341680022C1E90023F389012B8D
:102DC800E7D0202106F11402FFF71EFE0028E0D00C
:102DD800306B394604F08EF880460028D9D1306827
:102DE80004AC0C2200940192816902220023B06C89
:102DF8008847214612488DF81C8004F07BF8044669
:102E08000028C6D17064B062F062384602F004FE51
:102E180030623046FFF75EF8084B1878012805D174
:102E28002046FFF709F801E01546B3E7304609B038
:102E3800BDE8F04703B07047AE840008B002002038
:102E4800000000202DE9F84314461D46064610B937
:102E5800002400252DE0B0F80C904FF00008104633
:102E680019464A46434603F059FD294607464A464D
:102E78002046434603F052FD52EA030118BF0137CA
:102E8800002F08BF012700240025B3689F42DFD226
:102E98003068224681682B46B06C88474FF6FF722F
:102EA800904206D0B0890023241845EB030501376A
:102EB800EBE720462946BDE8F883F8B506460F46F5
:102EC80000250124B3689C4211D2B28900236243D1
:102ED8003046FFF7B7FF02460B4652EA030101D01E
:102EE800013500E00025BD4203D00134EAE70022A5
:102EF800002310461946F8BD2DE9F04FD0F80080A0
:102F080093460023B8F80C208BB0ABF80430CBF80C
:102F1800083010208946099203F00EFECBF8000015
:102F2800002872D000220023CDE90423484600215E
:102F3800DDE904238B4208BF824265D20126DDE920
:102F480004230027B61847EB03073B46324603F035
:102F5800E5FC82460290039140465146FFF7ADFFDB
:102F680004460D4654EA05034BD0BBF80410DBF8C1
:102F780000004B1C190103F07BFE064628B9DBF85C
:102F8800000003F021FE30463FE0CBF80000099F27
:102F9800BBF80400BDF8082006EB0016B9B2002300
:102FA800C6E9004532810691079300260027DDE92E
:102FB80002018F4208BF864215D0D8F800104AF6A1
:102FC800AA2200922B462246C968D8F848008847AA
:102FD80001200023361847EB0307DDE90623A41870
:102FE80045EB0305E3E7BBF80420DBF80830511C88
:102FF80003EB0A00ABF80410CBF80800CAEB090988
:1030080094E7CDE9046791E701200BB0BDE8F08FA4
:103018002DE9F04FC16899B0036801310FAA06463F
:10302800B3F80CB0FFF768FF68B34FEA5B1B4FF0CB
:1030380001090BF1FF3B4F464FF0000827E03068CD
:103048006FF00104121901684FF0FF3543EB0503D7
:10305800CDE902230969806C8847421ED01C1CD91F
:1030680001370AF1200A5F450FD2311D524602ABE3
:103078003068FFF78AF8DDE90223B3F1FF3F08BFA4
:10308800B2F1FF3FDBD1002060E008F10108F068F1
:10309800804547D24FEA471AE5E74FEA491204ABA1
:1030A80030680FA9FFF771F8DDE90423B3F1FF3F9A
:1030B80008BFB2F1FF3F306804D1426C42F400739C
:1030C8004364E0E7A41845EB0305CDE9044503682C
:1030D80007AC202500940195D3F818C0806CDDE971
:1030E8000223E047DDE90423306809F1010901689A
:1030F8008DE83000CC69806CA047DDE902013568B5
:103108000023AC89224603F009FCA0FB042301FB41
:103118000433002029680090CDE902234969A86C8E
:1031280088479DE7119A904501D15F45ABD07068FB
:1031380003F04AFD1199BDF840000F9BF160308102
:1031480073603046311D00F0E8FA012019B0BDE87F
:10315800F08F00002DE9F04F948887B080468B46A9
:103168009246002C60D0324B4AF6AA221A6002A975
:10317800FFF7D2F864080134A04205460ED202983F
:1031880010B14046FFF744FF02996D18A54205D2D9
:103198004046012108F1040200F0B7FA0026B146C2
:1031A8003746BAF8042091453ED2DAF8005003A910
:1031B80005EB0910FEF7D6FF97B9D8F8000006F11D
:1031C80021040168E5B20BEBC6030424D3E900230C
:1031D8000095002512194968806C43EB0503884760
:1031E800092101FB07F4D8F800E00522DEF8000009
:1031F80000230BEBC60512190DF10C0CD5E900459F
:1032080043F10003CDF800C001911219C16943EBE5
:103218000503DEF84800884717B10136002700E0AB
:10322800012709F10109BCE7002007B0BDE8F08FCC
:10323800003000402DE9F04F03680D46596C8DB001
:1032480011F4007B06465BD1E86901F033FE0446C1
:10325800E86902F0E1FB804600F1FF30C31C4FD85B
:10326800E7B2B5F80490BA1D1B24032092FBF4F3CF
:10327800B9FBF0F2591C5FFA82F9CFB209F1020AE0
:1032880007EB0A045FFA84FA0AFA00F003F054FC28
:103298000446002834D005AB0093404659463246D0
:1032A80002ABFFF70FFA58BB404631465246234659
:1032B80000F02AF808B3304621462A46FFF7B8F846
:1032C800D8B1A98829B1304604EBC7012A46FFF7CF
:1032D80041FF09F101095FFA89F06A693F18009016
:1032E800019204EBC707D7E900233046FFF768F9D6
:1032F800204603F069FC012003E0204603F064FC4B
:1033080000200DB0BDE8F08F2DE9F04F0F688BB0AD
:1033180005937B6C04909B058846924601D5002056
:10332800A0E0084607A9FEF7F7FF504502D300269C
:10333800B34685E007994018504513D34046FFF738
:1033480067FE044630B1404607A9FEF7E5FF504541
:10335800E5D3ECE7D8F82800002108F1040200F0D2
:10336800D4F9DCE7D8F8280050BB01213846FFF72C
:10337800A4FD02460B46B3F1FF3F08BFB2F1FF3F81
:10338800CDE90823CBD03C684BF6BB350095E16806
:10339800B86C8847354A3B680C200092019002249B
:1033A800D9690025DDE908231219B86C43EB050338
:1033B8008847D8F8280008F10401FFF73BFF04E02C
:1033C800002108F1040200F0A0F90028BBD1A6E70B
:1033D800039BD8F8000003EB4C1208F1040108AB7A
:1033E800CDF808C0FEF7D1FEDDE90823B3F1FF3FB1
:1033F80008BFB2F1FF3F92D06FF00104A4180599FD
:103408004FF0FF3545EB0305049B01EBC902386813
:10341800C2E9004500934169CDE90845B86C2246E8
:103428002B468847DDF8089009F1010CCBEB0A0020
:1034380006EB0C0284455FFA82F9C9D3D3464E469F
:10344800D3450ED2CBEB0A034046D9B2FEF7ACFF08
:10345800039010B14FF0000CE8E70BF1010BB146F7
:10346800EDE701200BB0BDE8F08F00BF00000020A1
:103478002DE9F04303680746586C8DB010F40074CA
:103488000E4640F0AC8005A90091F068FE213A464E
:1034980002ABFFF717F9002800F088809DF8143078
:1034A800B5885A1ED0B2FD280FD99DF815305C1E7C
:1034B800E1B2FD290BD99DF816305A1ED0B2FD286D
:1034C80098BF4FF0020E22D803E0A64601E04FF065
:1034D800010E0324B5FBF4F5691CCAB2934216D059
:1034E800D7F800C005200024DDE90223121843EBB9
:1034F8000403DCF8008000255FFA8EF400951219A9
:10350800D8F80410DCF8480043EB0503884700248A
:1035180000254FF000080DF117000121001901F0F6
:1035280043FC421CA1461CD0002831D0726990424D
:103538002ED0D7F800E00820DDE902230021121878
:1035480043EB0103DEF800C0002000901219DCF8FC
:103558001410DEF8480043EB050388474FF00108D4
:1035680016E0B8F1000F13D03C680820DDE902230B
:10357800002112187069256843EB0103009012EBD3
:10358800090243EBE9736969A06C8847012027E0C9
:1035980004220023A41845EB0305002D08BF182CAE
:1035A800B9D13868DDE90223FFF7CAF9F06839466E
:1035B800012202ABFFF7A8FE90B1B0880321B0FB4F
:1035C800F1F2531C7169D8B2009001913846DDE9D7
:1035D8000223FEF7F5FF003018BF012000E00020AD
:1035E8000DB0BDE8F0832DE9F04F0646D3B0242096
:1035F8008846174603F0A0FA079008B9002081E032
:1036080000200990ADF820008146C1454AD209F151
:103618000102B8FBF2FA306851460392FFF74DFCFD
:103628000DF5A47B50EA01026BE94E010398EBD03B
:10363800BDF8201007984B1C190103F019FB0790DF
:103648000028DBD0BDF82040DBE9002300EB0410A4
:10365800C0E90023A0F808A00024544517D0316819
:10366800BDF82050B1F80CE0079B0EFB04FC08687D
:1036780003EB05124AF6AA250CCA009512EB0C02B8
:10368800C56843F10003886CA8470134E5E7BDF835
:10369800201009984B1C2218ADF820300992C4EB71
:1036A8000808B2E73368586C8105A7D4304607A9E3
:1036B8003A46FEF7C2FD2124F868E1B2324604AB6F
:1036C800FEF7A9FFA8B9BA88F86851084B1CDAB206
:1036D800314610ABFFF718FE00288FD010A93A46E4
:1036E8003046FFF737FD30463946FFF7C1FE012067
:1036F80008E03068DDE904230134FFF721F9E82CFC
:10370800DAD1E0E753B0BDE8F08F03685B6C9B0546
:1037180001D4FFF768BF00207047F8B50368044676
:10372800586C0E46820501D50020F8BD89884A08E4
:10373800D00003F001FA05460028F5D02789A16AD0
:103748002069FFF734F90320B7FBF0F300FB13718E
:103758005A18571CFAB22069A16A2B46FFF7D4FD04
:10376800074618B9284603F02FFADDE729463246FE
:10377800A06AFFF7EFFC284603F026FA0120F8BDFF
:103788000EB42DE9FF430B9C0546204601F092FB41
:10379800013003F0D1F9074608B9002489E0214631
:1037A80003F082FB4C2003F0C7F904460028F4D04C
:1037B800302003F0C1F90646A0630028EDD01020A0
:1037C80003F0BAF9A36B706058680028E5D01020A0
:1037D80003F0B2F960610028DFD00CA90091002342
:1037E8006E6A002204F148000391B047214641F86F
:1037F800045BEA6AA06C9047A06BA58941686B09D5
:1038080013220125E38104600D8180F82420A36B35
:10381800002683F82C50C5600581C6610662A06B3E
:103828009E61D0F8048029462046FFF746FBC8E988
:103838000001A16B4A680CCAB3F1FF3F08BFB2F19F
:10384800FF3FAAD021684BF6BB300090C968A06C36
:103858008847A36B1A49586822680C23D0E9008965
:1038680001930091D1690222002312EB080243EB75
:103878000903A06C8847384602F0CEF8A662E662D3
:10388800666404F1140620622763E5612583A06B52
:1038980029463246FFF730FB00283FF47EAFA06B85
:1038A8003146FFF7C7FC2046FEF714FB00283FF41B
:1038B80074AF204604B0BDE8F04303B0704700BFC2
:1038C80000000020014B1878704700BFB0020020AC
:1038D800014B1868704700BFB4020020024B1968FA
:1038E80051F82000704700BFAC0200202DE9F84FC6
:1038F800804601F0DFFA0446023003F01DF907465E
:10390800002800F09A80414603F0CEFA3B1913F8DC
:10391800012C2F2A07D02F20002138555970032059
:10392800534902F0CBF8032052493A4602F0C6F850
:10393800302003F001F9044600287ED0302003F03F
:10394800FBF8054618B9204603F03EF945E038462D
:10395800494903F0FDF9494F824697F8009000273E
:103968004F450AD2F8B2FFF7B9FF51460646006B39
:1039780003F0C0FA08B10137F2E74F455DD00320E4
:103988003F49326B02F09AF8102003F0D5F86060D6
:10399800002852D0B36B2146181D41F8046BFEF77E
:1039A800AFFBB26B60685168D1E90023C0E900231E
:1039B8000123038141462F2001F00CFAB0F1010ADE
:1039C80053D04FF0000800202B4903F0C1F90746F7
:1039D80028B903202B4902F071F82C4645E0302025
:1039E80003F0AAF8054640B307620020E8613846AC
:1039F80002F012F88146244903203A464B4605F165
:103A0800040B02F05BF8484621465A46FEF770FF61
:103A1800A8B9484621465A46FEF7A9FE40B195F88E
:103A2800240000F01001CAB212B908F101080EE032
:103A3800032016493A4602F041F8002415E095F8AB
:103A4800241008F1010801F01002D3B213B9D045CF
:103A58000BD0F2E7D045AC62C5F810902E602C462A
:103A6800B1D303200A4902F029F82046BDE8F88FAF
:103A7800B4840008CE840008E38A0008B00200205D
:103A8800FE840008108500082F850008548500086A
:103A98006385000838B50546302003F04DF8044624
:103AA800302003F049F80CB9002038BD0028FBD0BD
:103AB800284601F09AF9037805462F2B1CD001F00F
:103AC800F9F90446FEF7F6F901F0F4F9A11C081813
:103AD80003F032F804460028E6D0FEF7EBF9014679
:103AE800204603F0E1F92046114903F0D7F82046B3
:103AF800294603F0D3F80AE001F0DCF9013003F0BD
:103B08001BF804460028CFD0294603F0CDF92046FB
:103B1800074903F0C3F803200649224601F0CEFF07
:103B28002046FFF7E3FE003018BF012038BD00BF74
:103B3800E38A00087585000870B501F06DFF084B31
:103B480006461D780024AC4207D2E0B2FFF7C6FE55
:103B5800016AB14202D00134F5E7002070BD00BF10
:103B6800B00200202DE9F0478AB08946904601F05E
:103B78003CF9054603F0EAF9013002F0DDFF06469C
:103B880008B9002492E0294603F08EF9342002F0A7
:103B9800D3FF04460028F4D02D782F2D1AD106F132
:103BA800010A5046294603F091F807460028E8D054
:103BB800002303705046FFF7BFFF294620603D7081
:103BC800304603F099F80028DBD000F8015B20624A
:103BD800E66112E0374B186820600028D1D02662D1
:103BE800C06A03F0B3F9013002F0A6FFE0610028D3
:103BF800C7D02268D16A03F057F9E069FFF776FE6B
:103C08000026A062A661206A01F006FF09F01305EC
:103C180009F00609B9F1020F206184F824501FD178
:103C280004AD00953146A26A02ABFEF74BFD18B110
:103C38002069A16AFEF7D2FE2068251D8189A06A45
:103C4800B8FBF1F2511C2A46FFF756F9002898D024
:103C5800A06A2946FFF7EEFA002892D000230AE06E
:103C680004F10405B9F1060FA16A2A4618D1FEF736
:103C78003FFE10B1A369E36218E020688189A06A59
:103C8800B8FBF1F2511C2A46FFF736F900283FF439
:103C980078AFA06A2946FFF7CDFA0028EAD170E785
:103CA800FEF726FE00283FF46CAFE66220460AB015
:103CB800BDE8F087B4020020F8B5044601F0FAF830
:103CC80002F03AFF0546D8B1214603F0EDF80D4958
:103CD800284603F03DF80C4B00241E7801F09CFEAA
:103CE8000746B44207D2E0B2FFF7F8FD026ABA42CB
:103CF80006D00134F5E7284602F066FF0020F8BD3B
:103D0800F8BD00BFE38A0008B0020020F8B50446F9
:103D180001F0D0F803205A4901F0D0FE2046594955
:103D280003F0E8F8054620B9FEF786F8564A15600C
:103D3800A4E02046554903F0DDF8054660BB524E25
:103D48000320534901F0BAFE3468002C00F0968035
:103D5800E06A01F0AFF80746206B01F0ABF80130DC
:103D68008742E06A0DDD2F212A4601F052FA206BC6
:103D780001F0A0F80746E06A01F09CF887427DDB75
:103D880008E001F097F80746206B01F093F8411C12
:103D98008F4273D1356071E0237803202F2B15D122
:103DA8003C4901F08BFE2046FFF774FE08B900205D
:103DB800F8BD0320384901F081FE2046FFF77CFF5B
:103DC800314B18602046FEF737F857E0334901F0C9
:103DD80075FE2D4806680320C6B1314901F06EFE14
:103DE800204601F067F80546F06A01F063F8A91C5F
:103DF800081802F0A1FE054600283FD0F16A03F03A
:103E080053F828461F4902F049FF0DE0254901F003
:103E180055FE204601F04EF8023002F08DFE0546B0
:103E280060B3184903F040F82146284602F036FFEF
:103E380003201D492A4601F041FE2846FFF756FD9A
:103E48000028B4D01949032001F038FE2846FFF7AE
:103E580033FF0D4A16491060032001F02FFE284653
:103E6800FDF7EAFF0320134901F028FE0320124959
:103E780001F024FE0320114901F020FE0120F8BDC5
:103E880097850008E38A0008B402002061860008CC
:103E9800AB850008B3850008BB850008D1850008FC
:103EA800F8850008068600086B8600080F8600085B
:103EB80021860008358600084786000864860008C1
:103EC80003682DE9F041B3F80C800546C068002767
:103ED80000FB08F14FEA5118474567D0302002F03F
:103EE8002BFE0446002861D02E68024642F8046B77
:103EF80028460021FEF788FD0646002845D094F89C
:103F0800242002F01003D8B200282ED0E86900F06F
:103F1800D1FF0646206A00F0CDFFB21C101802F04F
:103F28000BFE0646002844D0206A01F075FDE969B9
:103F38002061304602F0B8FF1F49304602F0AEFE5D
:103F4800216A304602F0AAFE3046FFF7CFFCE66150
:103F5800A0622046FFF7B4FF40B30320174901F0E1
:103F6800ADFDA36A2069996A0BE0206A01F054FD4F
:103F7800E9692061E1610320104901F09FFD206992
:103F88002946FEF72BFD0137A6E7286A01F044FD14
:103F98002F212861E86902F0AFFE08490670032066
:103FA80001F08CFD2869A96AFEF718FD0120BDE81B
:103FB800F081BDE8F08100BFE38A00087A86000836
:103FC80038B500F012FF037805462F2B1ED0FDF7F9
:103FD80071FF00F06FFF0446284600F06BFFA11C3C
:103FE800081802F0A9FD044608B9002038BDFDF7FD
:103FF80061FF0146204602F057FF2046134902F0B0
:104008004DFE2046294602F049FE0AE000F052FF24
:10401800013002F091FD04460028E6D0294602F05E
:1040280043FF03200A49224601F048FD2046FFF7D6
:104038005DFC05460028D8D0C4610649032001F07C
:104048003DFD2846FFF73CFF012038BDE38A000804
:1040580095860008C486000830B5A1B069462022BC
:10406800802301F0B3F9C5B20DB900240CE0042097
:1040780002F062FD04460028F7D020AB03EB85056B
:1040880055F8841C02F010FF204621B030BD0146CF
:1040980008B50431806AFFF7EBF9012008BD10B5B7
:1040A80090F82430044603F00201CAB20AB1FFF7BF
:1040B800EEFF606808B102F087FD206A08B102F0DF
:1040C80083FD204602F080FD012010BD70B5044636
:1040D80031490320E26801F0F1FC03202F492269ED
:1040E80001F0ECFC03202E49626901F0E7FC032093
:1040F8002C49E26901F0E2FC03202B49A26901F096
:10410800DDFC0320294901F0D9FC94F82030D907B7
:1041180003D50320264901F0D1FC94F8200000F0D3
:104128000201CAB21AB10320224901F0C7FC94F86F
:10413800205005F01003D8B218B103201E4901F031
:10414800BDFC94F8201001F00402D5B21DB1032083
:104158001A4901F0B3FC03201949A28801F0AEFC0A
:1041680003201849A26801F0A9FC0025A3889D42F4
:1041780010D220682E0182190CCA0320124901F0BE
:104188009DFC216803208E193289104901F096FCA4
:104198000135EBE770BD00BFE2860008EE86000837
:1041A800F8860008048700080E87000818870008AA
:1041B800258700082B870008328700083A870008FF
:1041C800428700085487000865870008BE800008F9
:1041D80038B500F00AFE037805462F2B1ED0FDF7F0
:1041E80069FE00F067FE0446284600F063FEA11C45
:1041F800081802F0A1FC044608B9002419E0FDF7EC
:1042080059FE0146204602F04FFE20460A4902F0B8
:1042180045FD2046294602F041FD0AE000F04AFE2D
:10422800013002F089FC04460028E6D0294602F055
:104238003BFE204638BD00BFE38A00082DE9F04167
:1042480005460C462A468AB024492346032001F035
:1042580035FC2846FFF7BCFF05462046FFF7FCFE65
:10426800064608B9002036E0284601210022FFF75B
:1042780079FC044620B300F10408404601A9FDF783
:104288003FFF2069A16AFEF7A9FB0028EAD0206A4F
:1042980002F09AFC304602F059FE013002F04CFC64
:1042A8000746206260B1314602F0FEFD206A01F047
:1042B800B3FB41462061A06AFEF7BCFF064618B969
:1042C800284602F081FCCDE72046FFF7E8FE2846A5
:1042D80002F07AFC01200AB0BDE8F081AA87000844
:1042E8002DE9FF41036815465A6C044612F4606FC5
:1042F800884601D0002542E0A169E66A42F40060E0
:1043080058648B1BAB4206D294F8245025F07F02E8
:1043180084F824201D460026AE4221D2211DE26ADF
:1043280002AB2068FDF731FFDDE90223AF1BB8427D
:1043380038BF0746B3F1FF3F08BFB2F1FF3FD9D0FE
:10434800216808EB060E0868CDF800E00197D0F860
:1043580018C0886CE047E26AF619D319E362DBE714
:104368002068E26A416C21F400634364A0698242D8
:1043780005D994F8241021F07F0384F824302846C6
:1043880004B0BDE8F08173B50646022002F0D4FB04
:10439800044608B9002420E0002596F92430002BB3
:1043A80019DB30460DF107010122FFF799FF90B1A3
:1043B8009DF8070000F022FD68B12046A91C02F014
:1043C80057FC04460028E5D09DF8070060550135E4
:1043D800B5F5806FE1D10021615520467CBD07B558
:1043E80001220DF10701FFF77BFF9DF807000EBDC5
:1043F8002DE9FF41036817465A6C044612F4606FB2
:1044080088464CD142F40060A16958649B897A18A7
:10441800E168981E41438A4201D800251CE0A06A41
:104428000121221DFFF771F90028F6D137E0711933
:10443800B94288BFC5EB0706016808EB050ECDF841
:1044480000E00196C969806C8847E36AA0699A19F7
:104458008119E262A161AD19BD4219D2211DE26A3A
:1044680002AB2068FDF791FEDDE90223002B08BFAF
:10447800B2F5805F064612D3B3F1FF3F08BFB2F131
:10448800FF3F2068D3D1436C23F40062426406E006
:1044980023685A6C22F400605864012000E0002070
:1044A80004B0BDE8F081F0B50022A1B00D460121AD
:1044B800FFF758FB044640B328460221A269FFF7DC
:1044C80051FB054620B92046FFF7E9FD28461CE0C8
:1044D800201DFFF7FBFD0026A3699E420DD2694609
:1044E80080222046FFF7FCFE0746694628463A46E2
:1044F800FFF77EFFF619002FEED12046FFF7CFFD1C
:104508002846FFF7CCFD0120FFE721B0F0BD07B535
:1045180003688DF80710197C01F00802D3B21BB1AB
:10452800C16A8269914205D10DF107010122FFF7A5
:104538005FFF00E000200EBD70B505460C4616462C
:104548000B20012100F034F9214632462846FFF7B6
:104558004FFF002104460B2000F02AF9204670BDC9
:104568002DE9F0470C4622468CB057498246032075
:1045780001F0A4FA204600F038FC0646FDF79AFC44
:1045880000F098FC0746304600F094FCB91C081867
:1045980002F0D2FA044618B903204C4901F08EFA09
:1045A800FDF788FC0146204602F07EFC484920467B
:1045B80002F074FB3146204602F070FB03204549A7
:1045C800224601F07BFA2046FFF790F9074620B90A
:1045D8000320414901F072FA72E0C4613F490320A7
:1045E800224601F06BFA4FF032094FF000083020F4
:1045F80002F0A2FA054600B963E03B684146036051
:1046080003AA3846FEF700FA80460028F4D00A9834
:1046180042460090069B0320314901F04FFA069A62
:10462800531C3DD09DF82C1001F01003D8B200287F
:1046380036D02C49032001F041FAF86900F03AFC21
:104648000446286A00F036FCA21C101802F074FA1E
:104658000446002834D0286A01F0DEF9F969286197
:10466800204602F021FC1A49204602F017FB296A6D
:10467800204602F013FB1C492246032001F01EFAD3
:104688002046FFF733F91949A862EC610320224656
:1046980001F014FA50463146FFF762FF28B1ABE744
:1046A80030460A9902F026FC30B9032010493246F8
:1046B800DAF82C3001F002FAB9F1010997D19BE739
:1046C80000200CB0BDE8F087C7870008D187000834
:1046D800E38A000895860008EA870008068800082B
:1046E80018880008318800083F8800087388000887
:1046F8009088000890F92430002B08DBC26A806992
:10470800B2EB000CDCF1000151EB0C00704701200A
:10471800704700000F2804D8144B9A6942F004002F
:1047280021E01F2804D8114B996941F008001AE0CC
:104738002F2804D80D4B986940F0100013E03F284B
:1047480004D80A4B9A6942F020000CE04F2804D89C
:10475800064B996941F0400005E05F2804D8034BF7
:104768009A6942F080009861704700BF00100240CB
:104778000F280BD91F280BD92F280BD93F280BD965
:10478800064B4F2894BF18460020704704487047CE
:1047980004487047044870470448704700180140AF
:1047A80000080140000C01400010014000140140C5
:1047B80000F00F03012202FA03F301B199B20F28A6
:1047C80001D80D4A0EE01F2801D80C4A0AE02F280C
:1047D80001D80B4A06E03F2801D80A4A02E04F28D0
:1047E80008D8094AD0689BB220EA0300D060D36891
:1047F8001943D160704700BF00080140000C014018
:1048080000100140001401400018014038B504466A
:104818000D46FFF77FFF2046FFF7AAFF04F00701C8
:104828008900034605F00F020F2002FA01F200FA90
:1048380001F12040C943072806D8186801401960CB
:1048480019680A431A6005E05868014059605968B8
:104858000A435A6015F0180102D02046012103E0EE
:1048680015F0280F04D02046BDE83840FFF7A0BF58
:1048780038BD0000094B10B5094C5A69218842F02F
:104888000100084A586141F00103238010688047FD
:10489800218821F00103238010BD00BF00040140DE
:1048A800F8020020B8020020094B10B5094C5A69DB
:1048B800218842F00200084A586141F0020323802F
:1048C80050688047218821F00203238010BD00BF73
:1048D80000040140F8020020B8020020094B10B57E
:1048E800094C5A69218842F00400084A586141F08D
:1048F8000403238090688047218821F004032380E3
:1049080010BD00BF00040140F8020020B8020020DA
:10491800094B10B5094C5A69218842F00800084A29
:10492800586141F008032380D0688047218821F02E
:104938000803238010BD00BF00040140F8020020D6
:10494800B8020020094B10B5094C5A69218842F079
:104958001000084A586141F010032380106980470D
:10496800218821F01003238010BD00BF00040140FE
:10497800F8020020B8020020324B10B55A6992069E
:104988000FD55869304C40F02001596123882F48D1
:1049980043F02002228041698847238823F02002BF
:1049A80022802849486940060FD54C69274844F0B9
:1049B8004003254C4B612288836942F040012180E5
:1049C8009847228822F0400121801E484369190631
:1049D8000FD544691D4B44F080021B4C426121886D
:1049E800DA6941F0800020809047218821F080001A
:1049F8002080144B5A69D2050FD55C69134A44F4D8
:104A08008071114C59612088116A40F480732380A9
:104A18008847208820F4807323800A494A699005D2
:104A28000FD54C69094A44F40070074C4861238843
:104A3800506A43F4007121808047238823F4007171
:104A4800218010BD00040140F8020020B8020020B7
:104A58003D4B10B55A6952050FD558693B4C40F487
:104A68008061596123883A4843F480622280816AD0
:104A78008847238823F480622280334948690005E7
:104A88000FD54C69324844F40063304C4B6122889E
:104A9800C36A42F4006121809847228822F40061A9
:104AA800218029484369D9040FD54469284B44F427
:104AB8008052264C426121881A6B41F48050208034
:104AC8009047218821F4805020801F4B5A69920416
:104AD8000FD55C691E4A44F400511C4C596120886A
:104AE800516B40F4005323808847208820F40053FA
:104AF800238015494A6950040FD54C69144A44F477
:104B08008040124C48612388906B43F48041218097
:104B18008047238823F4804121800B48426911048F
:104B280011D5446944F40043084C43612188084B7B
:104B38006FEA41406FEA50422280D96B884720884B
:104B480020F40042228010BD00040140F802002039
:104B5800B8020020244BDA6942F08050D861D96944
:104B6800224841F00062DA61016841F48072026013
:104B7800186840F0010119601A6A42F4014040F0D7
:104B8800010119621521184A106A820703D44B1EC5
:104B980099B20029F7D140F2F5121548838803F03D
:104BA80020018BB21BB9013A92B2002AF5D1818853
:104BB8008BB243F01002828001888BB243F001026D
:104BC8000280818821F00F031A04110C002347F694
:104BD800FF72818003818281818821F010031A0489
:104BE800110C8180704700BF001002400070004027
:104BF8000028004040F2F5120C4B998801F0200182
:104C080089B219B9013A92B2002AF5D199888AB2C3
:104C180042F01001020C80B299801A839883998817
:104C280021F010021004010C998070470028004000
:104C3800034B188B998B8AB242EA0040704700BF39
:104C48000028004030B50488002340F2B272A24226
:104C58001BD26421B2FBF1F501FB152169B94FF4B0
:104C6800C871B2FBF1F501FB152109B9910704D010
:104C780003F1F17303F5054305E003F1F07303F560
:104C8800993101F5C0730132E1E782780AB901214F
:104C9800817084780C2C01D90C22827081780022D2
:104CA80001398A4206D20C4D545D0C4D013205FB88
:104CB8000433F6E742793C21514304794FF46162A9
:104CC80002FB04128179C07852180449013801FBAB
:104CD8000022D01830BD00BF818B00088051010030
:104CE80030B52B4C40F2B273B0FBF4F202F2B2745E
:104CF8000B800B88A3421DD26422B3FBF2F502FBA2
:104D0800153295B275B94FF4C872B3FBF2F502FBD0
:104D1800153295B20DB99D0704D0A0F1F175A5F52E
:104D2800054005E000F17E4000F5F61202F5486006
:104D38000133DDE7174D0022B0FBF5F40B2C28BF3B
:104D48000B248A708B78144AA34205D2134DED5C6C
:104D580002FB05005A1CF4E7114D5C1CB0FBF5F38F
:104D68008C70DCB202FB04044FF46160B4FBF0F217
:104D78005D1C0C4BD0B203FB00400A713C22B0FB17
:104D8800F2F302FB1300CD704B71887130BD00BF88
:104D98005885E101A319280080AEFEFF818B000829
:104DA80080510100F0F1FFFF01290378427808D112
:104DB800110441EA0362C37880781A4342EA00206A
:104DC80070478178C078090441EA0222134343EA14
:104DD800006070470139002311F8012F1AB182428F
:104DE80008BF0133F8E7184670470346184613F81A
:104DF800012B12B1083A182AF8D9704720385E28D2
:104E08008CBF002001207047013911F8013F1BB108
:104E18009842FAD1012000E0184640B27047A0F14C
:104E28004103192B05D9613819288CBF00200120AE
:104E3800704701207047303809288CBF00200120B6
:104E48007047A0F14103192B09D9A0F16101192973
:104E580005D9303809288CBF00200120704701206F
:104E680070470A2806D00C2804D0B0F10D03584228
:104E78005841704701207047222804D0B0F127021A
:104E880050425041704701207047000008B503495F
:104E9800FFF7BAFF003018BF012008BDBE8900081F
:104EA80008B50349FFF7B0FF003018BF012008BD5F
:104EB800D08900080023C15C9AB229B10133B3F547
:104EC800803FF8D14FF6FF7210467047A0F14103BA
:104ED800192B01D82030C0B2704738B50D46FFF7FE
:104EE800F5FF04462846FFF7F1FFB4EB000EDEF1AC
:104EF800000050EB0E0038BD70B50D460646FFF7B2
:104F0800D9FF04462846FFF7D5FF84420BD1002479
:104F1800305D30B1295DFFF7E0FF01340028F7D19B
:104F280002E0012070BD002070BD70B50C4605463A
:104F3800FFF7C0FF06462046FFF7BCFF864209D1AF
:104F48000023EA5C22B1E15C01338A42F9D001E036
:104F5800012070BD002070BD2DE9F84F00254D815E
:104F68000D8180460C46FFF7A5FF814610B9002049
:104F7800BDE8F88F042001F0DFFD60600028F6D05E
:104F8800042001F0D9FD0646206018B9606801F0D8
:104F98001BFEECE718F805302D2B44D16F1C18F8D0
:104FA800071060682D2908BFAF1C65896A1C91002D
:104FB80001F05EFE054660600028D8D002206689B0
:104FC80001F0BAFD45F826006368608953F820109F
:104FD8000029CCD000264E4506EB070508D160898C
:104FE8006368002153F82020013091556081CDE09D
:104FF80008EB070A1AF80620202AF0D02C2AEED04F
:10500800B4F80AB06568F11C55F82B0001F030FEC1
:1050180045F82B00618963681AF8062053F82100C7
:1050280082550136D7E7202B00F0B0802C2B00F0FA
:10503800AD80222B03D101354FF0010A01E04FF07A
:10504800000A218920684A1C910001F011FE0646D9
:1050580020600220278901F06FFD46F827002068AC
:10506800002884D0238950F8231000293FF47FAF0B
:1050780000264E4580F08280B4F808B02768F11CFD
:1050880057F82B0001F0F4FD47F82B00228920681F
:1050980050F82230002B3FF46AAFBAF1000F63D00A
:1050A80018F8050005F10102222801D1154665E02E
:1050B8005C285DD118F802701546722F09D137495E
:1050C800032000F0FBFC228923680D2153F82230CD
:1050D80050E0742F09D10320314900F0EFFC2189F9
:1050E800206850F82130092144E06E2F13D10320A5
:1050F8002C4900F0E3FC218920680D2250F821306A
:1051080009F101099A5521892068013650F82130A2
:105118000A229A552FE06C2F09D12349032000F069
:10512800CDFC228923680A2153F8223022E0662F19
:1051380009D103201D4900F0C1FC2189206850F8DD
:1051480021300C2116E0222F02D10320184903E058
:10515800272F10D11749032000F0B0FC20892368BD
:1051680053F82020975506E018F80510202905D097
:1051780018F805109955013601357AE72089216814
:10518800002351F8202001309355208101354D45E9
:10519800FFF400AF0120BDE8F88F00BFD7890008F1
:1051A800FF8900081B8A00083B8A00085D8A0008FE
:1051B8007F8A0008A48A0008704770B5002310F899
:1051C800015B6DB100240E5D002EF8D0B54204D10C
:1051D8005D1CABB200F8012CF1E70134A4B2F2E790
:1051E800D8B270BD0346A0F13000C0B209280FD96B
:1051F800A3F14102052A02D8A3F1370305E0A3F180
:105208006101052903D8A3F15703D8B270470020DC
:10521800704770B504460D461646FFF74BFE30B191
:10522800013880B2225C2318AA42F8D11E70C0B29D
:1052380070BD0B461A780131002AFAD1013810F8EE
:10524800011F11B103F8011BF9E719707047013804
:1052580010F8013F13B101F8013BF9E70B707047F3
:105268002DE9F74F0C460646B0B1564B186808B101
:1052780001F0AAFC3046FFF71DFE013001F05CFC8E
:105288000546504805600DB9002597E02946304687
:10529800FFF7DDFF4C490D604B4A1368002BF3D034
:1052A800494E35682E78002EEED0A6F10800182851
:1052B80004D9E7B23B0605D52F2E03D14249013563
:1052C8000D60EDE714F0010B04D03046FFF7E8FD60
:1052D8000028F3D104F0080101F0FF02019221B186
:1052E8003046FFF7D3FD0028E8D104F0100303F09F
:1052F800FF0923B13046FFF7BFFD0028DED104F0D7
:10530800200000F0FF0AF8B12C2E1DD1D6E704F0DA
:105318000202D3B203BB3A0623D4BBF1000F24D157
:10532800019941BBB9F1000F2BD104F00402D3B2AB
:105338006BBBBAF1000F30D104F04000C1B20029B4
:105348002FD1214A013616601F490E6896F8008051
:10535800B8F1000FDBD12FE0A8F10800182825D9F3
:10536800D9E7B8F12F0FD8D120E04046FFF798FDD4
:105378000028D5D01AE04046FFF788FD0028D1D094
:1053880014E04046FFF778FD0028CED00EE04046F6
:10539800FFF767FD0028CCD008E0B8F12C0FCBD17F
:1053A80004E04046FFF73BFD0028CAD0002306482A
:1053B80006F8013B066001E0C1F800802846BDE818
:1053C800FE8F00BF00030020FC020020F8B50D4648
:1053D80016461F460024A3B2B34204D2002245F861
:1053E80024200134F7E73946FFF73AFF0024A1B239
:1053F800B14208D238B145F8240039460020FFF7F9
:105408002FFF0134F3E70846F8BD00002DE9F0410D
:1054180000238AB0C25C22B101A95A540133232B5C
:10542800F8D10AA8C41821492022002501A804F8A7
:10543800245CFFF7C2FE1E4900280CBF4FF001088C
:105448004FF0FF38202201A8FFF7B7FE90B901A856
:1054580018492022FFF7B1FE70B901A81649202289
:10546800FFF7ABFE50B901A814492022FFF7A5FEAB
:105478000A2404E0102402E0022400E008240DF1CC
:105488000307002517F8016F56B13046FFF7D9FC1E
:105498000028F7D03046FFF7A5FE65432D18F1E741
:1054A80008FB05F00AB0BDE8F08100BFC98A000812
:1054B800CB8A0008D08A0008D38A0008D68A000858
:1054C8002DE9F04F8DB0CDE906011E4600200023DE
:1054D8000021D45C54B109AD01275C550024C019E2
:1054E80041EB04010133082BF3D1082009AA002756
:1054F8001518DDE906ABBAF1000F7BF1000B2F7030
:1055080009DADDE90601404261EB4101CDE9060116
:105518002D2406F8014B0CAD15F80C7D252F04BF82
:105528009DF825700135302F01D1013500E0202785
:1055380028464C492022FFF740FE70B928464A49C0
:105548002022FFF73AFE58B9284648492022FFF79B
:1055580034FE40B14FF0020A07E04FF0100A04E0B1
:105568004FF0080A01E04FF00A0A4FF0000B2846F6
:10557800CDE900ABFFF74AFF411E0A46CB17002AC8
:1055880073F1000B01DA00220023012400254FF0FB
:1055980000084FF000090198009904FB00FEA4FBE5
:1055A80001AB01FB05E000EB0B0CCDE902ABDDE93B
:1055B80006ABCDF80CC0DDE9020182457BEB0101A9
:1055C80008DB0124002518EB040849EB0509DDE98F
:1055D8000245E0E7C446904579EB030A09DA4FF043
:1055E800FF304FF0FF31121806F8017B43EB01033F
:1055F800F1E7374622462B46DDE90601CDF814C00F
:1056080001F0BCF9DDE906AB194B1A5C00FB05F3A8
:1056180006F8012B01FB0432A0FB04015118BAEB78
:10562800000A6BEB010BDDE9002320462946CDE992
:1056380006AB01F0A3F94FF0FF324FF0FF3318EB40
:10564800020849EB0309994508BF904504460D46F1
:10565800DDF814C0CED16744002179700DB0BDE8E3
:10566800F08F00BFD98A0008D38A0008D08A0008C2
:10567800718B0008000000002DE9F0478AB004464D
:105688000D4616466A461F4601F0F6F8294620469A
:1056980000F042FE6A4629468046204601F0ECF8B2
:1056A80001F038F904460D46304606A9FFF7CFFD4C
:1056B8003D4802A9FFF7CBFD9DF8183006A8252B19
:1056C80008BF0DF1190004A902224123FFF77EFE4D
:1056D800C6B21EB1049802A9FFF7ABFD334802A970
:1056E800FFF7A7FD4046C11702AA3B46FFF7E8FEB1
:1056F8002F483946FFF79DFD022E0BD105980DF175
:105708000A01FFF7A4FD0598FFF780FE5FFA80F90C
:10571800CA4601E04FF00F0A0026B04656451DD094
:10572800244B20462946002200F096FF6A4601F0E5
:10573800A3F804460D4601F0EDF819A3D3E90023B8
:1057480001F08CF850B90A2000FB08F8DDE90001E7
:1057580000F00CFE711C8044CEB2DFE702A9BAF15A
:105768000F0F08BF4E461448FFF771FD0DF10A03ED
:10577800124AF0B20021FFF7A3FE02A90B48FFF777
:1057880058FD3846FFF796FB00213B1802AA404611
:10579800FFF796FE0AB0BDE8F08700BFAFF30080C0
:1057A80048AFBC9AF2D77A3EBC7D0008EF7F00086C
:1057B8006286000800002440DE8A0008EE7F0008A8
:1057C80007B5204901F0C4FA08B9002038E0FFF70E
:1057D8001DFE1C498DF80200002001F0B9FA0028CE
:1057E800F3D0FFF713FE17498DF80300002001F0EE
:1057F800AFFA0028E9D0FFF709FE1249ADF800001A
:10580800002001F0A5FA0028DFD0FFF7FFFD0D49C1
:105818008DF80400002001F09BFA0028D5D0FFF78E
:10582800F5FD08498DF80500002001F091FA0028DF
:10583800CBD0FFF7EBFD8DF806006846FFF702FABC
:105848000EBD00BFE18A00082DE9F041044600269C
:10585800274F214657F83600FFF767FB4FEAC6087F
:10586800054618B147443879BDE8F08101361F2E46
:10587800EED120461F492022FFF79FFC10B9FF20D8
:10588800BDE8F08120461C492022FFF796FC38BB72
:1058980020461A492022FFF790FCD0B92046184923
:1058A8002022FFF78AFCB0B9204616492022FFF7CC
:1058B80084FC90B9204614492022FFF77EFC70B979
:1058C800204612492022FFF778FC0028D7D050251F
:1058D80006E0102504E0202502E0302500E0402500
:1058E8002046FFF793FD2818C0B2BDE8F08100BF3D
:1058F800A0880008E58A0008E88A0008D08A00081D
:10590800EB8A0008D68A0008EE8A0008F18A0008A7
:10591800002305499AB2595C814203D00133102B08
:10592800F7D11A4610467047718B0008F8B50E4635
:10593800851C0024023515F8040C60B1FFF7E8FF58
:105948000001C7B215F8030CFFF7E2FF391831550B
:105958000134A4B2EEE72046F8BD7047134B10B5EA
:105968001A68541CB2F5804F1C600AD1104C114AB9
:105978002468126842EA04440C600021196001227C
:1059880000E000220B490B68C0184FF6F173B0FB1A
:10599800F3F403FB1400086005490C680019B0FB18
:1059A800F3F403FB140310460B6010BD0C03002036
:1059B8001003002008030020202807D80021012315
:1059C800814204D04A1C5B00D1B2F9E70023184693
:1059D8007047000002290CD004290DD001294FF08E
:1059E800000011D1094A0A4B11600A491860086081
:1059F80070471146FFF7B2BF0548044B01681868A5
:105A080040EA014111600120704700BF08030020EF
:105A1800100300200C0300200B4B012213B50B4C84
:105A28001A600B4A002121601160441E14F8010F0E
:105A380018B101A9FFF792FFF8E704210DEB010265
:105A4800FFF7C8FF01981CBD0803002010030020C1
:105A58000C03002010B5064C00231C20236001F025
:105A68006BF80449086008B10120206010BD00BF30
:105A7800040300201403002070B5064600240D4DD1
:105A88002B68195979B13046FFF74FFA58B1296890
:105A9800094B08190022C2808260C260036142611A
:105AA8000A51012070BD1C34B4F5D27FE7D1002023
:105AB80070BD00BF14030020635900080EB42DE91F
:105AC800F04396B01D9C0546002C00F0038100238E
