:020000040800F2
:10000000C0140120DF02000855020008495C000806
:10001000590200085B0200085D02000800000000B1
:100020000000000000000000000000005F02000867
:100030006102000800000000630200083116000899
:1000400067020008690200086B0200086D020008E0
:100050006F02000871020008E1490008154A000813
:10006000494A00087D4A0008B14A00087D0200089C
:100070007F02000881020008830200088502000850
:1000800087020008890200088B0200088D02000820
:100090008F0200089102000893020008E54A000858
:1000A00097020008990200089B0200089D020008C0
:1000B0009F020008A1020008A3020008A502000890
:1000C00097180008991800089B180008AD0200084E
:1000D000AF020008011B0008491B00088D1B000827
:1000E000BD4B0008B9020008BB020008BD020008B1
:1000F000BF020008C1020008C3020008C5020008D0
:10010000C7020008C9020008CB020008CD0200089F
:10011000CF020008D1020008D3020008D50200086F
:10012000D7020008D9020008DB020008DD0200083F
:100130002A49072291438D4629482A492A4A00F034
:1001400039F82A482A492B4A00F034F82A482B4922
:100150002B4A00F02FF82B482B492C4A00F02AF8A4
:100160002B482C492C4A00F025F82C482C492D4AC4
:1001700000F020F82C482D49002200F026F82C48E9
:100180002C49091A082903DB0022026004300160AF
:100190001D481E49884205D00268043003B49047C8
:1001A00003BCF7E700208646EC4600200021224AE7
:1001B0009047FEE7884207D0521A05D003780130F5
:1001C0000B700131013AF9D17047884202D00270B8
:1001D0000130FAE77047194870470000C014012049
:1001E000F48400080000002014000020EC02000845
:1001F000EC02000860760008F4840008000000208B
:100200000000002060760008607600086076000834
:100210006076000860760008607600086076000866
:1002200060760008F484000814000020C004002058
:10023000C0040020C004012071110008FFFFFFFF6F
:100240002748854600F005F8264827490160FFF752
:100250006FBF7047FEE7FEE7FEE7FEE7FEE7FEE75B
:10026000FEE7FEE7FEE7FEE7FEE7FEE7FEE7FEE766
:10027000FEE7FEE7FEE7FEE7FEE7FEE7FEE7FEE756
:10028000FEE7FEE7FEE7FEE7FEE7FEE7FEE7FEE746
:10029000FEE7FEE7FEE7FEE7FEE7FEE7FEE7FEE736
:1002A000FEE7FEE7FEE7FEE7FEE7FEE7FEE7FEE726
:1002B000FEE7FEE7FEE7FEE7FEE7FEE7FEE7FEE716
:1002C000FEE7FEE7FEE7FEE7FEE7FEE7FEE7FEE706
:1002D000FEE7FEE7FEE7FEE7FEE7FEE7FEE7FEE7F6
:0C02E0000080012008ED00E00000000894
:1002EC00024A034B0120DA60704700BF0400FA0594
:1002FC0000ED00E0002070470020704700207047A0
:10030C000020704700207047002070470020704785
:10031C000020704700207047002070470020704775
:10032C000020704700207047002070470020704765
:10033C0070470000002008B5024905F055FB00206D
:10034C0008BD00BF89790008002008B5024905F0F6
:10035C004BFB012008BD00BFA87E000808B503F0C8
:10036C00D9FE012008BD1FB501A904F08FFD58B1BD
:10037C00BDF80C30022B06D1019B93E8030003F06F
:10038C00F9FF012000E0002005B000BD2DE9F04F81
:10039C0085B001A904F07AFD002800F088800020C7
:1003AC00544905F021FB002408E0019B224653F838
:1003BC0024300020504905F017FB0134BDF80C30F7
:1003CC009C42F2D3032B40F08D80019B986804F083
:1003DC0007FD019B8346586804F002FD824647499D
:1003EC00002052465B4605F0FFFA0AF1010006F0C8
:1003FC00DBFB0746002877D0019B186804F0F0FC63
:10040C00023006F0D1FB044600286ED000253C4992
:10041C00057006F0BDFC019B2046196806F04AFCED
:10042C00019B012118682A4603F03EFC0646022176
:10043C002046B26903F038FC8046002856D0284686
:10044C003049B26905F0D0FA2DE0304604F06FF86F
:10045C00019B81465B6800205B5D4A462A4905F09A
:10046C00C3FA019B05F101025B685B5D4B4513D13F
:10047C007B550020154625491A4605F0B5FA554519
:10048C0011D1019B00209A68214905F0ADFA019B1E
:10049C00404699685A4603E007F8059040463946AD
:1004AC0004F04EF80025F26AB3699A42CDD3304677
:1004BC0003F09DFE404603F09AFE019B186803F082
:1004CC0029FE019B2246002012491B6805F08CFA7C
:1004DC00019B2046196803F04DFF204606F098FB5F
:1004EC00012003E0002001E000E0FFE705B0BDE8DB
:1004FC00F08F00BF65760008727600087A760008E7
:10050C00987600089A760008A7760008BA76000854
:10051C00D0760008E376000808B51321002203F01A
:10052C00C3FB10B106F074FB012008BD08B504F044
:10053C00E2FB0321002203F0B7FB003018BF0120BF
:10054C0008BD000010B504F0D6FB0321002203F017
:10055C00ABFB044660B1074804F042FC0549024677
:10056C00204603F0EDFF204603F041FE012010BDB4
:10057C0010BD00BFF776000838B504F0BCFB0721AE
:10058C00002203F091FB044670B14025013D20464A
:10059C0006492122EDB203F0D3FF002DF6D12046FF
:1005AC0003F025FE012038BD38BD00BF07770008D9
:1005BC0010B504F0A0FB044603F022FA214604F027
:1005CC007DF8012010BD0000F8B5062104F0F6FD01
:1005DC0028BBF8BD164803F0AAFF96F9243007464D
:1005EC00002B19DB0D2808BF0024B4FBF5F005FB2C
:1005FC00104080B210B90F4905F0F6F900200D2F0C
:10060C0006D0A7F12003DBB25E2B01D90A4900E02A
:10061C000A493A4605F0E8F90134A4B202E0044E66
:10062C000024502596F92430002BD3DA0120F8BD94
:10063C00200000200577000828770008477700087D
:10064C0010B5062104F0BAFD06210446002004F082
:10065C00B5FD1CB1003018BF012010BD204610BDE7
:10066C0010B5062104F0AAFD06210446002004F072
:10067C00A5FD1CB1003018BF012010BD204610BDD7
:10068C001FB501A904F002FC28B1019B93E80300FB
:10069C0003F0B9FF012005B000BD000008B501F062
:1006AC0051FC03490246032005F09EF9012008BDC8
:1006BC002D7700082DE9F04F8FB00BA903220623EC
:1006CC0004F026FE002584B254EA050171D00B9883
:1006DC006A4904F0C2FB00286BD04FF002084FF0BF
:1006EC00000988EA040889EA050958EA090205D1D3
:1006FC000C9804F02FFE0646C51718E003220023C1
:10070C0054405D4054EA05030BD10C9804F022FED2
:10071C000646C5170D9804F01DFE80464FEAE07999
:10072C0005E04FF000084FF0000946464D4600200A
:10073C00534905F059F903F063F90446002800F019
:10074C00978083894FF00F0AA6FB03674FF0000BCD
:10075C0003FB057723E0236832461968A06C3B46FF
:10076C00884706EA0A0207EA0B0352EA0301054628
:10077C0005D10020434932463B4605F035F9284661
:10078C0004F0C5FA10B100203F4900E03F492A4669
:10079C0005F02AF901220023B61847EB0307A189BB
:1007AC00A8FB012301FB0933964277EB0301D2D35B
:1007BC005FE003F025F90546F8B9354905F014F961
:1007CC0003F018F90024002586B200274FF0010829
:1007DC004FF000090CE0E0B203F018F903462D4984
:1007EC0000201A6B05F000F914EB080445EB090521
:1007FC00B44275EB0702EED33BE001F0A3FB03F030
:10080C000DF90368C2689B890026534300275B09D6
:10081C0004469A464FF0000BB046B94623E03146E9
:10082C00204602AA02F061F9064610B39DF8280092
:10083C0010F0100006D000201749099A079B05F00C
:10084C00D3F80AE0AB89049A144953430093099BEB
:10085C00069A0193079B05F0C7F80122002318EBB9
:10086C00020849EB0309D04579EB0B03D7D300E021
:10087C0000E001200FB0BDE8F08F00BF3177000819
:10088C000577000839770008457700084A77000893
:10089C00507700085A7700086477000871770008D1
:1008AC0010B504F028FA044604490020224605F04D
:1008BC009BF82046BDE8104003F0CEBA82770008C2
:1008CC0038B504F018FA054601F03CFB04F088FA40
:1008DC000446284604F084FA0234201806F064F921
:1008EC00044601F02FFB0146204606F051FA204643
:1008FC00074906F0DFF92946204606F0DBF92046C9
:10090C0003F08CF8C461BDE8384003F081BB00BF34
:10091C00B083000810B504F0EEF90121002203F0B9
:10092C00C3F90446B0B10069A16A02F0CBF860B11A
:10093C0005F0CEFC211D6061A06A02F0FDFC20B127
:10094C00204603F054FC012010BD204603F04FFC60
:10095C00002010BD10BD000038B504F0CCF9012109
:10096C00002203F0A1F9044678B11425204603F0C7
:10097C00B4FD024650B1013D00200549ADB205F071
:10098C0033F8002DF2D1012038BD38BD012038BD1F
:10099C002D770008F0B5044685B022460020984912
:1009AC0005F022F8204601A904F070FA044600284C
:1009BC0000F020810020934905F016F8002407E090
:1009CC00019B914953F8242005F00EF80134A4B290
:1009DC00BDF80C300020A342F2D88C4905F004F885
:1009EC00002408E0029B002053F82420864904F0E0
:1009FC00FBFF0134A4B2BDF80E30A342F2D8019B28
:100A0C008349186806F0CCF9044620BB814904F0F0
:100A1C00EBFFBDF80C30012B05D9019B586806F093
:100A2C00C9F982B200E02246019B0221586803F00A
:100A3C003BF90446002800F0A680BDF80C30012BD1
:100A4C0040F2CC80019B00205A68734904F0CCFF23
:100A5C00019B5D6820E0019B7049186806F0A0F9C5
:100A6C00054610BB6E4904F0BFFF019B0621586878
:100A7C00002203F019F90446002800F08480BDF828
:100A8C000C30012B40F2AA80019B28469A686549DC
:100A9C0004F0AAFF019B9D68284606F08BF92946B5
:100AAC000246204603F04CFD98E000205E4904F01D
:100ABC009BFFBDF80C30012B57D9019B544958684A
:100ACC0006F06EF9044600284FD1584904F08CFF0B
:100ADC00BDF80C30032B56D9019B4D49586806F0D4
:100AEC005FF90246002840F08580019B02211868BE
:100AFC0003F0DAF8044648BB45E053F825204C498E
:100B0C0004F072FF019B012153F82500002203F031
:100B1C00CBF8064680B9474904F066FF01A804F0FB
:100B2C00F1FA344669E003F002FD01370146204634
:100B3C0003F09DFDBFB200E00027B36930469F4231
:100B4C00F1D3013503F053FBADB200E00225BDF843
:100B5C000C300020AB42019BCFD837491A6804F007
:100B6C0043FF204603F043FB3FE0019B00201A6843
:100B7C00324904F039FF019B01211868002203F06F
:100B8C0093F8044620B920462A4904F02DFF31E0A1
:100B9C0000202B4904F028FF17E0204603F09DFCB1
:100BAC000546B8B1BDF80E303BB1019B254918681C
:100BBC0006F0F6F808B9244901E0134900202A464A
:100BCC0004F012FF284606F023F8204603F03EFE00
:100BDC000028E2D000201D4904F006FF204603F057
:100BEC0006FB0020134904F0FFFE01A804F08AFA6A
:100BFC00012402E001A804F085FA204605B0F0BDFE
:100C0C00A4770008BA7700082D770008C37700088E
:100C1C0007780008CF770008F977000806780008F5
:100C2C00097800081978000825780008477800082A
:100C3C0009810008DC770008F07600085A78000873
:100C4C006778000820790008707800087978000827
:100C5C0070B504F050F8054606F0ACF8013005F01C
:100C6C00A3FF0446002C2ED0294606F091F820460E
:100C7C00154906F053F815490646002006F04EF8C3
:100C8C0005460020014606F049F811490446324653
:100C9C00002004F0A9FE00200E492A4604F0A4FE10
:100CAC0000200D49224604F09FFE3DB12046022152
:100CBC00002202F0F9FF002003F099FA204605F01B
:100CCC00A7FF012070BD70BD9B820008707A0008E0
:100CDC008F78000899780008A178000838B504F0DE
:100CEC000AF8054C0546204604F0BCFF2046294670
:100CFC00BDE8384004F0CFBF5C01002038B503F0EC
:100D0C00FAFF054C0546204604F0ACFF2046294668
:100D1C00BDE8384004F0AABF5C010020F0B58DB0EE
:100D2C0002A90822062304F0F3FAC6B2002E36D02C
:100D3C0002981C4906F034F820B91B4904F054FE03
:100D4C00012500E000250024761B16E00CA92F19C4
:100D5C0001EB870757F8280C04F024FD0CA9034677
:100D6C000A1902F8080C0020FF2B19D00F4957F86C
:100D7C00282C04F039FE0134A4B2B442E6DB9DF811
:100D8C002A109DF8282000919DF82B109DF82930F1
:100D9C0001910748294601F02DF9012000E0304669
:100DAC000DB0F0BDAF780008B7780008C578000822
:100DBC009884000808B501F055F8034B01201A7807
:100DCC0042F001021A7008BD590100202DE9FF41C3
:100DDC00044602F015FE01A905460322204606230F
:100DEC0004F096FA002D39D0C0B2012838D90198F8
:100DFC001D4904F019F830B1029804F0ABFA4FF425
:100E0C008057064607E0019804F0A4FA06460298BB
:100E1C0004F0A0FA07460020144904F0E5FD002474
:100E2C0018E02B68A2191968A86C00238847804623
:100E3C0014F00F0002D10D4904F0D6FD404603F02A
:100E4C0066FF10B100200A4900E00A49424604F04E
:100E5C00CBFD0134BC42E4D1012002E0284600E085
:100E6C00002004B0BDE8F081CD78000805770008BB
:100E7C00D4780008D978000837B5062369460222D1
:100E8C0004F046FAC4B24CB1009D284601F030F98A
:100E9C00034904462A46002004F0A6FD20463EBD28
:100EAC00E07800082DE9F0418CB002A90822062355
:100EBC0004F02EFAC6B2002E38D0029C1D482146F2
:100ECC0005F06EFF054618B91B4904F08DFD2C4644
:100EDC004FF00008013E17E00CAA08F1010502EBE7
:100EEC00850757F8280C04F05DFC0CAA03469044C7
:100EFC0008F8080C0020FF2B19D0104957F8282CA3
:100F0C0004F072FD1FFA85F8B045E5DB9DF82A1058
:100F1C009DF8282000919DF82B109DF82930019107
:100F2C000748214601F01AFF012000E030460CB0C2
:100F3C00BDE8F08131770008EE78000810790008E0
:100F4C00988400087FB5022202A9062304F0E0F978
:100F5C00C0B2002800F0AC800298564905F020FF82
:100F6C0020B10298544905F01BFF70B90020534979
:100F7C0004F03AFD1E211F238DE80A001C22039960
:100F8C001D234F4802F086FC90E002984D4905F075
:100F9C0007FF20B102984C4905F002FF60B9002010
:100FAC004A4904F021FD1F2300931C211D221E23FE
:100FBC00434801F079FE79E00298454905F0F0FECE
:100FCC0050B91E221F238DE80C0003991C221D23EF
:100FDC003B4801F042FE69E002983E4905F0E0FE14
:100FEC000546002862D1039802F048FE044600280A
:100FFC005ED02846384904F0F7FCA36B93F82C001C
:10100C0010B12846354900E0354904F0EDFC0020CC
:10101C003449226B04F0E8FC00203349E26904F007
:10102C00E3FC228B0020314904F0DEFC002511E0AA
:10103C0063692E019B19D3E9002300202C4904F08D
:10104C00D3FC636900209E1932892A4904F0CCFC38
:10105C000135EDB2238BAB42EAD80020264904F0CF
:10106C00C3FCA36B0020DA681F4904F0BDFCA36B22
:10107C0000201A891D4904F0B7FC002512E05B68BA
:10108C002E019B19D3E900230020194904F0ACFC74
:10109C00A36B00205B6817499E19328904F0A4FCED
:1010AC000135EDB2A36B1A89AA42E8D80120FFE7FB
:1010BC0004B070BD197900081F7900082279000866
:1010CC0098840008377900083E79000841790008B7
:1010DC00527900085B790008657900086E79000880
:1010EC007E7900088F7900089A790008AC7900089D
:1010FC00BF790008D9790008EC79000830B585B0C3
:10110C0001A903F0C3FED8B1039BB3F1011F17D1A2
:10111C00029B1049186805F043FE0546B8B90E4904
:10112C0004F062FC019B186804F000FB04460B49B8
:10113C002846224604F058FC204605F0ABF806E0A1
:10114C0005F0C6F806490246002004F04DFC0120CB
:10115C0005B030BD2F770008FD7900080B7A000828
:10116C00167A000873B5864B0B209A69032142F05E
:10117C001C029A61DA6942F48022DA61DA6942F47B
:10118C000032DA619A6942F480429A619A6942F0BB
:10119C0004029A619A6942F008029A6103F0E8FB32
:1011AC000C20032103F0E4FB01210B2003F0AAFB2C
:1011BC0000F0DAFD734B744A1860744802601968C9
:1011CC0040F2164291427249724A0BD1724B0B603B
:1011DC00724B11211360724B724A1A601A68724B6F
:1011EC0019601DE01C68B4F5846F03D01B68B3F55F
:1011FC00856F08D16D4B0B606D4B1360684B6D4A5E
:10120C001A601A680CE06C4B0B606C4B13606C4AE8
:10121C00634B1A606B4B12220360634B1A606A4A71
:10122C00574B196841F48031196019460868544BC2
:10123C008403FBD5002199625449096859601968E7
:10124C0041F08071196019688801FCD55F4B8021D1
:10125C0059604021596052482021596004684FF46C
:10126C007A71B4FBF1F443F8E84C0068B0FBF1F18F
:10127C0043F8EC1C072143F8F01C554B45F2555133
:10128C0019600521596040F6FF7199604CF6CC410C
:10129C0019604AF6AA21196003F55C43596821F4D8
:1012AC007F415960596841F496415960D1084FF417
:1012BC006133B1FBF3F1B2FBF3F303F0070303EB80
:1012CC000112444B92B21A814FF400629A824AF294
:1012DC002C029A8100F0FEFA03203F4900F09AFBA1
:1012EC0003203E4900F0A4FB3D49032000F0AEFB77
:1012FC00032000F0B9FB032000F0FCFA0C200121C4
:10130C0003F000FB3749002004F06EFB204B1D68F6
:10131C0000F010FD044600F01BFD064600F01EFD1B
:10132C0023462A46304901900020009604F05CFBCD
:10133C0000F01AFD2D490246002004F055FB04F084
:10134C005BFF2B4804F080FC1E252A481F2401213A
:10135C001C221D230095019400F04CFE26491C22F2
:10136C001D2324480095019402F094FA2148224947
:10137C001C221D230095019401F0F0FCFEE700BF38
:10138C000010024018000020020001005400002050
:10139C001C000020F8010020607600080024F400F6
:1013AC00140000200048E80100200240447D0008A1
:1013BC00001BB70000366E01497D000800127A0050
:1013CC0000A24A0402C01D000051250200E100E009
:1013DC000030004000480040F51B0008D11B0008FD
:1013EC00491500081A7A0008307A0008547A000867
:1013FC005C01002098840008637A000808B502F0AC
:10140C00FFFA00F09FFD034902460020BDE80840AA
:10141C0004F0EABA6A7A0008F0B5002291B00546E9
:10142C000846012102F040FC044600B92CE00020E3
:10143C002B461649024604F0D7FA002700F012FD9D
:10144C000020134904F0D0FA3D4617E00026204650
:10145C0003F06DF80D280DF806000CD110AB9E1999
:10146C00062106F8405C684603F0A8FE013000F047
:10147C0003FC074602E00136402EE8D194F92430F3
:10148C00002B01DBFF2FE1D111B0F0BD727A000807
:10149C004B7F000838B503F02EFC022103F08EFEC2
:1014AC0004210446002003F089FE054603F098FC55
:1014BC00C1B2284603F0FEFB054622462B4600200F
:1014CC00054904F091FA28462146FFF7A5FF034A87
:1014DC00034BDA6038BD00BF8E7A00080400FA05B1
:1014EC0000ED00E02DE9F0410D460321064603F026
:1014FC0065FE00240746104855F8341005EBC40867
:10150C0003F0ABFCA0B9384655F8341003F0A5FC39
:10151C0058B13846D8F8044003F062FC3018A047A4
:10152C00003018BF0120BDE8F0810134A4B2E2E71D
:10153C000020BDE8F08100BF06770008F8B5012156
:10154C000C2003F0DFF900F0CFF9264D06460320FE
:10155C0000F0D0F92B8899063BD52B88224823F034
:10156C0020031B041B0C2B80AC88E4B2214604F036
:10157C0029FC034648B92B2C1C4F0BD11C4804F0FA
:10158C000BFA80233B70FFF739FF3046BDE8F8407B
:10159C0000F0B0B93A7812061BD50D2C154A0DD1B6
:1015AC0011781548137043541449FFF79BFF10B979
:1015BC00134904F019FAFFF721FF0AE0AC80082C5C
:1015CC00137802D12BB1013B02E00B49CC5401330F
:1015DC001370304600F08EF90C200121BDE8F84064
:1015EC0003F090B9004800405C0100205801002035
:1015FC00B07A00085A01002058000020AC7B00088B
:10160C00BC7A00081FB501A903F040FC20B1019B76
:10161C0003491868FFF766FF002005B000BD00BF46
:10162C00AC7B0008034B04484AF6AA221A6004F06B
:10163C007FBB00BF003000405C010020F0B5426869
:10164C00448A00235461802757FA03F5868A0D4299
:10165C00856814BF2E616E610133082B14615461CF
:10166C00F2D1F0BD38B5038B044658070D4609D5A9
:10167C00090E2046FFF7E2FFC5F307412046FFF7AE
:10168C00DDFF01E0990704D5C5F307212046FFF7DC
:10169C00D5FFE9B22046BDE83840FFF7CFBF03685D
:1016AC00028A10B504465A61FFF7C8FF2368228AE4
:1016BC001A6110BD4268418A0023F0B5C668C58A1C
:1016CC005161184680241161B7683D4203D054FA29
:1016DC0003F73843C0B20133082B5161F3D1F0BD8D
:1016EC00F8B515461E46028A036804465A61FFF790
:1016FC00B9FF238B1F0702D52046FFF7DBFF00271E
:10170C0004E02046FFF7D6FFE8550137B742F8D181
:10171C002368228A1A61F8BDF8B5028A0368044668
:10172C005A61FFF79FFF238B1B0702D52046FFF75B
:10173C00C1FF2046FFF7BEFF06062046FFF7BAFFA3
:10174C0007462046FFF7B6FF05462046FFF7B2FFD7
:10175C0046EA07462368228A30431A6140EA05208C
:10176C00F8BD38B5028A036804465A61FFF77AFF60
:10177C00238B1A0702D52046FFF79CFF2046FFF764
:10178C0099FF05022046FFF795FFADB22368228A28
:10179C0028431A6180B238BD0368028A10B504462A
:1017AC005A61FFF75FFF238B190702D52046FFF71D
:1017BC0081FF2046FFF77EFF2368228A1A6110BD45
:1017CC0038B503681546028A04465A61FFF74AFF8A
:1017DC00238BD90602D52046FFF76CFF20462946FD
:1017EC00FFF72CFF2368228A1A6138BD2DE9F843D4
:1017FC0016469DF8208004460D46084603211F46D8
:10180C009DF8249003F0B4F80321304603F0B0F8AF
:10181C00B8F1FF0F0CD00321404603F0A9F8404665
:10182C0003F050F8A06008F00F0004F04CF8A08210
:10183C00FF2F0CD00421384603F09AF8384603F0F9
:10184C0041F8E06007F00F0004F03DF8E082284614
:10185C0003F038F82060304603F034F8606005F08F
:10186C000F0004F030F8208206F00F0004F02BF883
:10187C0000216082A4F81890304603F043F8284603
:10188C000121BDE8F84303F03DB87047704770473D
:10189C00032810B516D8282358430B4900220B18DF
:1018AC000A52144609495A809A80DA801A815A8160
:1018BC009A61DA6183F82420054AD96059611A6269
:1018CC00012010BD002010BDFC010020D1580008E3
:1018DC000577000810B5002420460134E4B2FFF768
:1018EC00D7FF042CF8D110BD014B1878704700BFFE
:1018FC009C020020114B282218705043104B195A8F
:10190C001A1819805188598091889980D188D9806A
:10191C001189198151895981D168D960116919616D
:10192C005169596191699961D169D96192F8241011
:10193C00126A83F824101A62704700BF9C020020C0
:10194C00FC010020032813D80D4B282202FB003089
:10195C0042896AB1013A4281C36902899B5C0132B6
:10196C008B80C38892FBF3F103FB11230381704737
:10197C008B8923F080031B041B0C8B81704700BFE9
:10198C00FC01002007B5002303288DF804108DF806
:10199C00053006D8034B282202FB0030C36801A88F
:1019AC0098470EBDFC010020032830B513D828241D
:1019BC0044430A4D2B19988870B15988013880B26C
:1019CC002A5B0918988091FBF2F002FB10129B69BC
:1019DC0092B2985C30BD002030BD00BFFC010020ED
:1019EC00032830B512D828235843094C23189A8859
:1019FC00205A82420AD25C88A41894FBF0F500FBB2
:101A0C00154001329A809B6980B2195430BD00BFD9
:101A1C00FC010020032806D8044B282202FB0030CE
:101A2C00C160012070470020704700BFFC010020FE
:101A3C00032806D8044B282202FB00300161012048
:101A4C0070470020704700BFFC010020032806D817
:101A5C00044B282202FB003041610120704700201A
:101A6C00704700BFFC010020054B282202FB003010
:101A7C0090F8243043F0200380F82430704700BFE6
:101A8C00FC0100202DE9F041194F282303FB0073C2
:101A9C0004460D460846196A03F1200803F03EF986
:101AAC0098F80430C6B29A0704D51EB920462946C8
:101ABC00FFF768FF282303FB047797F824302046B0
:101ACC005B0704D5082D02D1FFF76EFF02E0294613
:101ADC00FFF786FF064B282202FB043463692BB107
:101AEC0094F82420110700D506B19847BDE8F08181
:101AFC00FC01002010B50E4C23889B060CD50D4B19
:101B0C0093F84C20900602D5DB6B984704E0A18833
:101B1C000120C9B2FFF7B6FF2388190603D50120AF
:101B2C000549FFF70FFF024B00221A8010BD00BFC2
:101B3C0000380140FC0100200044004010B50E4C60
:101B4C00238899060CD50D4B93F87420920602D578
:101B5C005B6E984704E0A1880220C9B2FFF792FFA0
:101B6C0023881B0603D502200349FFF7EBFE024B2B
:101B7C0000221A8010BD00BF00440040FC01002070
:101B8C0010B50E4C238899060DD50D4B93F89C205F
:101B9C00920603D5D3F88C30984704E0A188032033
:101BAC00C9B2FFF76FFF23881B0603D50320034937
:101BBC00FFF7C8FE014B00221A8010BD0048004000
:101BCC00FC010020074A4FF47A731188090603D5EB
:101BDC00044B988001207047013B9BB2002BF4D141
:101BEC00184670470048004010B5044602E0FFF765
:101BFC00E9FF20B114F8010B0028F8D1012010BD29
:101C0C00044B0549054A10B159645A647047596030
:101C1C005A6070470020024023016745AB89EFCD25
:101C2C00134B70B5984204460E46124D0FD92B6DCE
:101C3C001B0602D50120FFF7E3FF2B6D43F00103D8
:101C4C002B650C4B2680DA6CD007FCD40EE02B698C
:101C5C00190602D50020FFF7D3FF2B6943F00103CF
:101C6C002B61044B2680DA68D207FCD4012070BDAE
:101C7C00FFFF070800200240F0B591B0694603F061
:101C8C000BFE9DF803309DF80070052B48D8DFE85B
:101C9C0003F0050347472F37FF2042E09DF8023041
:101CAC009DF80150204C03EB0525204B1D6023783B
:101CBC0043B91F4B4FF6FF7118682818FFF7B0FF98
:101CCC000123237000241A4E0FE010AA1319306858
:101CDC0013F83B1C13F83C3C2818001943EA01216B
:101CEC00FFF79EFFE8B10234A4B2BC42EDD317E07B
:101CFC009DF804209DF80530120642EA03420DE0DF
:101D0C009DF805209DF80430120442EA03629DF808
:101D1C0007301A439DF8063042EA0322044B1A603E
:101D2C00012011B0F0BD00BF9D020020A4020020D4
:101D3C00A0020020054B188880B2B0F5007F94BF3C
:101D4C004FF480604FF40060704700BFE0F7FF1F56
:101D5C00014B1888704700BFE0F7FF1F014B188834
:101D6C00704700BFE2F7FF1F104B18680005000D0D
:101D7C00A0F58063B3F5807F16D90D4B18884028E9
:101D8C000DD080280ED0A0F5807040F2144340F2A4
:101D9C001242B0F5807F8CBF1046184670474FF446
:101DAC00826070474FF48260704700BF002004E0EF
:101DBC00E0F7FF1F70B5284B05461E880246B6B2E9
:101DCC00B6F5007F34BF4FF480764FF400760023D5
:101DDC0052F8041B013103D101339BB2B342F7D348
:101DEC00B34235D01D4B1E4C9D4214D90120FFF738
:101DFC0007FF236D43F0020323656565236D43F0F4
:101E0C0040032365E26C164BD107FBD41A6D22F00C
:101E1C0042021A6513E00020FFF7F2FE236943F03B
:101E2C00020323616561236943F040032361E26887
:101E3C000B4BD207FBD41A6922F042021A61002321
:101E4C0055F8042B013205D101339BB2B342F7D3C1
:101E5C00012070BD002070BDE0F7FF1FFFFF0708D9
:101E6C00002002402DE9F843144B1A881F8892B2C7
:101E7C00B2F5007F0FD3C7F34E07023FBFB24FF44A
:101E8C000065042404FB05F6DFF8349006F10066C7
:101E9C004AF6AA280CE0023FBFB24FF48065082432
:101EAC00F0E73046C9F80080FFF784FF013476195B
:101EBC00BC42F6D30120BDE8F88300BFE0F7FF1F5A
:101ECC00003000401D4B70B51C680546002C2FD00F
:101EDC00E06A08B104F09CFEBDB9206B02F080FFF3
:101EEC00861C304604F060FE2946E062324604F05F
:101EFC0047FFE16AF9B1236BEBB1114803F054F9D8
:101F0C00206BE16A03F042F910E0284602F068FF0A
:101F1C00461C304604F048FE0021E062324604F0D4
:101F2C002FFFE16A31B1284603F03EF9012502E0AA
:101F3C00254600E00D46284670BD00BFB0020020CB
:101F4C00B0830008054B1B682BB1D86A044B0028E2
:101F5C0008BF184670470248704700BFB002002007
:101F6C00B08300082DE9F843204B04461A78204E24
:101F7C00002A2FD03268002A2CD000259946B04672
:101F8C0013E0D8F80030216B53F82530AF00186BF4
:101F9C0004F006FF40B93368D859844217D004F0D6
:101FAC0037FE3368DC5112E0013599F800100F4F01
:101FBC008D420F4EE5D301318900306804F068FE84
:101FCC0088B13B78306040F8234001333B700120EE
:101FDC00BDE8F883042004F0E7FD306018B1034B32
:101FEC00046001201870BDE8F88300BFAC0200202B
:101FFC00A80200200EB42DE9F04D064685B04C2009
:10200C009DF8345004F0D0FD044600283FD00EABB0
:10201C0000930393716A002300F148000022884763
:10202C00214641F8046BF36AA06C9847DDB1236834
:10203C00A06C5B6B984722E0236837609968A06CB2
:10204C0052465B468847404505D02368A06C996B87
:10205C0052465B468847A28900231AEB020A4BEBD7
:10206C00030B013508E00C4E4FF0000A4FF0000B4B
:10207C004AF6AA2741F21118A3689D42DCD3A06C42
:10208C0004F0C6FD204604F0C3FD0120FFE705B0B7
:10209C00BDE8F04D03B0704700300040836B10B5C5
:1020AC000446586808B104F0B3FDA36B186A08B174
:1020BC0004F0AEFDA36BD86908B104F0A9FDA06BC8
:1020CC0008B104F0A5FD206B08B104F0A1FDE06A95
:1020DC0008B104F09DFD606908B104F099FDA06C95
:1020EC0008B104F095FD204604F092FD012010BDCE
:1020FC002B4B2DE9F04781461E680024DFF8A880A1
:10210C00284F28E03B68494653F82430A500186B4B
:10211C0004F046FE8246E8B9234B1878013880005B
:10212C0004F042FD0746002837D01E4B1B685B5954
:10213C00B34205D11A4B5046C3F800A0FFF7C2FEBC
:10214C00184E33685859FFF7A9FF174B002219781E
:10215C0013460FE0013498F800309C42D2D300278C
:10216C0018E0A34205D0306850F8230047F822004D
:10217C00013201338B42F4D30A4C206804F048FD41
:10218C00094A1378013BDBB213700BB1276000E0F6
:10219C0023600127F8B2BDE8F087BDE8F08700BFE7
:1021AC00B0020020A8020020AC02002003680B60E3
:1021BC0083888B8083688B6003690B61C368CB60F9
:1021CC0043694B6183698B61C369CB6190F82030A3
:1021DC0081F82030704730B50B7830241B02038116
:1021EC004A7802311343038100220023C0E9002303
:1021FC0011F8015BD0E90023A540083C2A4343EACF
:10220C00E57314F1080FC0E90023F1D130BD038947
:10221C0010B542680468180A4B700870002302312C
:10222C00C8188471013B240A44EA0264120AD81DBE
:10223C00F6D110BD80892DE9F043841E1E468B68B3
:10224C00B2FBF4F79F4212D94FF0FF324FF0FF333D
:10225C00C6E900230020BDE8F0830D6805EB0315EB
:10226C002D896544BD4209D80133AC4601E00023F9
:10227C009C46BC4502D28D88AB42EED337B17C4331
:10228C00B2FBF4F504FB1525023500E0951CCCEBF4
:10229C00070747430C68ADB204EB0313D3E90023E3
:1022AC0012EB0708AAB243F10009002318EB02084D
:1022BC0049EB03098B88C6E90089013B04EB031445
:1022CC002189D4E900234143521843EBE173424581
:1022DC0073EB090103D3401B80B2BDE8F0834FF0D0
:1022EC00FF324FF0FF33C6E900230020BDE8F08336
:1022FC002DE9F04FB1F804C089B081460E46144662
:10230C00BCF1000F66D0B2F804B0002737E02168AA
:10231C004FEA071AD9F8002051440B899089CDF85F
:10232C0008B05843D1E90023121843EBE073CDE910
:10233C0006230020CDF804A003941AE0D6F8008000
:10234C00DDE906AB08EB0014D4E900238AEA020AA3
:10235C008BEA030B5AEA0B03CDE904AB08D12289B3
:10236C000B89019CD3180B8108EB0403C3E900AB68
:10237C0001306045E2D3DDF808B0039C01375F45BE
:10238C00C5D300251DE033682F01DB19D3E90023E9
:10239C0052EA030A14D0A18820680131090104F023
:1023AC0077FCC0B12060A188336800EB0110DF1905
:1023BC00D7E90023C0E900233B8901310381A180C7
:1023CC000135B3889D42DED3A268B3680120D318CF
:1023DC00A36000E0604609B0BDE8F08F2DE9F74F2F
:1023EC00814659F8043B0025B3F80CB004460E4660
:1023FC000D604FEA5B1B2F46AA4629E04946424630
:10240C0000AB2068FFF716FFDDE90023D043D9436A
:10241C0050EA010C22D06FF00100121820684FF026
:10242C00FF3143EB01030168CDE900230969806C9E
:10243C00884718B933680133336002E0013008BFB4
:10244C000135013708F120085F45D7D30AF1010A9D
:10245C00E3689A4503D24FEA4718F5E7002528466A
:10246C00BDE8FE8F03682DE9F74F9B89C2680025F4
:10247C0002FB03FA044689464FEA5A1A2E4600F12B
:10248C00040B29E04FEA4618594642466B46206831
:10249C00FFF7D0FEDDE90023D043D94350EA010C0D
:1024AC001CD06FF00100121820684FF0FF3143EB85
:1024BC0001030168CDE900230969806C884748B1A4
:1024CC00013008D1002D08BF47460135EDB24D450E
:1024DC0001D104E0054601365645D3D100273846D4
:1024EC00BDE8FE8F2DE9F04F064687B0D0690F4648
:1024FC00904602F075FC00F1FF33FE2B834600F290
:10250C00CC803368D8F80C101A6800915169986C1B
:10251C00D7E900238847D7E9002330680424002535
:10252C00121943EB05030168002400944968806C80
:10253C008847D7E90045336805201A68002124181C
:10254C0045EB0105D2F814A0D3F8489003F0C0FE77
:10255C0022462B4600904846D047D7E90045092231
:10256C000023A41845EB0305306898F82030016867
:10257C0003F01303009322462B464968806C88476E
:10258C00D7E9004530680A220023A41845EB03055F
:10259C0001685FFA8BF3009322462B464968806CE6
:1025AC008847D7E900453368BBF1150FCDE90445E1
:1025BC004FF00B004FF000011A680BD8241845EBB4
:1025CC000105D8F81C108DE80208D169986C2246D8
:1025DC002B4661E0DDE90445241845EB0105D8F8EC
:1025EC001C10CDE90445152400910194D169986C17
:1025FC00DDE90423884707F108054FF001094FF086
:10260C001B0AB446DCF800602F460420D7E90023EF
:10261C00002108351218D6F800E043EB01035FFAED
:10262C0089F10091CDE90423DEF80410B06CCDF8EB
:10263C000CC08847C4EB0B02DDF80CC01B2ADCF87D
:10264C00000017D9052655E902230027921943EB00
:10265C000703D8F81C7001683F198DE880041B34FF
:10266C00C969806C88475C4509F10109DDF80CC02B
:10267C00C8D312E0056803460520D7E9006700219E
:10268C00361847EB0107D8F81C1001920C1900946E
:10269C00E969986C32463B468847012007B0BDE893
:1026AC00F08FF7B516460446042200681F46002337
:1026BC00921943EB07030168FE2500954968806C6D
:1026CC00884720689DF8205001680522009500235A
:1026DC00921943EB07034968806C88472068099C72
:1026EC000168082200940023921943EB07034969FF
:1026FC00806C88470120FEBD2DE9F04F9A46136887
:10270C0089B09B8905915B091446049300270DF150
:10271C001809804634E020686368818903EB0B0E4E
:10272C007143DEE90023521843F10003690152188A
:10273C0043F10003CDE90223CAE900230368052213
:10274C000192CDF800909969806CDDE902238847ED
:10275C000121484602F0AEFA40459DF81C3002D1EA
:10276C00059A93421BD0013500E00125049B9D4244
:10277C00D1D3013663685B441B899E42F5D3013784
:10278C0023899F4203D24FEA071B0026F2E74FF042
:10279C00FF324FF0FF33CAE90023002000E0012094
:1027AC0009B0BDE8F08F73B515461C46FFF7A4FFC2
:1027BC0088B10520D4E90023002112182D6843EBC1
:1027CC00010306992E6800911B210191B169A86C37
:1027DC008847012005E04FF0FF324FF0FF33C4E98A
:1027EC0000237CBD70B58CB00B46144603AA009236
:1027FC00FE211A460AABFFF7D6FF08B39DF80C5022
:10280C006B1EDBB2FD2B0CD99DF80D506B1EDBB291
:10281C00FD2B06D99DF80E506B1EDBB2FD2B88BF2D
:10282C000125032603AB9819012102F043FA431E3C
:10283C00033301D8606106E004361B2EF2D100E0B0
:10284C0001250023636128460CB070BD2DE9F04FC3
:10285C008FB08A460DF1300915460DF11408002190
:10286C0052464B468346CDF80080FFF79CFF00286C
:10287C004DD00121404602F01DFA9DF818309DF80C
:10288C001940286185F82030204604F08DF9E86164
:10289C0000283CD0A21D1B2392FBF3F30133DBB2C7
:1028AC00152C039308F1060103D8224604F05AFABA
:1028BC0029E0152204F056FA15270126C1461BE023
:1028CC000CABF1B258465246CDF80090FFF76BFFB7
:1028DC000346E8692BB9029304F09AF9029B184657
:1028EC0015E0C0194946424604F03CFAB8F11B0FFA
:1028FC0009D91B37FFB20136039BC7EB04089E4274
:10290C005FFA88F8DCD3EB6900221A5501200FB06E
:10291C00BDE8F08F2DE9F04F95B003901020049195
:10292C0093469A4604F040F9044600284CD00DF129
:10293C001C09002509F11B00A8462F46059038E01C
:10294C0007F12101C9B203985A4612ABCDF8009099
:10295C00FFF729FF00282FD04E460EA83146FFF76F
:10296C003AFCDDE90E236FF001004FF6FF71904247
:10297C0099411DD3BDF84030B3B1ED18691C204608
:10298C00090104F085F90446F0B108F101085FFA79
:10299C0088F808F1FF3300EB0313BDF84020DDE9A4
:1029AC000E01C3E900011A81059B09369E42D4D160
:1029BC00013704988742C3D3CAF80040AAF80480B0
:1029CC00CAF80850012000E0204615B0BDE8F08F91
:1029DC00F8B5431E033304460E4615461AD8FFF7C6
:1029EC0035FF074688B1204631462A46FFF7FAFEE6
:1029FC00074638B13946204632462B46FFF78AFF48
:102A0C00074648B90320064901E00649032002F0B5
:102A1C00EBFF02E0002700E001273846F8BD00BFBD
:102A2C004E7D00086D7D00081FB5002102AC02919F
:102A3C008DF80C100168009405240194C969806C10
:102A4C00884704B010BD73B506460D460024E1B2AC
:102A5C0030462A466B46FFF74FFE48B12868DDE941
:102A6C0000230134FFF7E0FF212CF0D1002000E01F
:102A7C0001207CBD13B50C462246FE216B46FFF7A8
:102A8C003BFE38B12068DDE90023FFF7CDFF0030B5
:102A9C0018BF01201CBD73B506460D462124E1B2BA
:102AAC0030462A466B46FFF727FE48B12868DDE919
:102ABC0000230134FFF7B8FFE82CF0D1002000E030
:102ACC0001207CBD38B505460C46FFF7BCFF58B15C
:102ADC0028462146FFF7DFFF30B128462146FFF795
:102AEC00C9FF003018BF012038BD2DE9F04786B072
:102AFC0005460C461646002700F1040A0DF1100895
:102B0C003FE05146224602ABFFF794FBDDE90201A0
:102B1C00C243CB4352EA030C37D06FF0010220348E
:102B2C00121828684FF0FF3343EB01034FF0050EEA
:102B3C000168CDF804E0CDF80080CDE90223896965
:102B4C00806C88470121404602F0B4F800F1FF3355
:102B5C000333814614D89DF814308BB9294632467C
:102B6C00FFF736FF98B196F82030DB0605D44846BF
:102B7C0029463246FFF736FE50B90023736107E051
:102B8C0001372868C3899F42BBD3002400E0044668
:102B9C00204606B0BDE8F0870EB4F0B5B4B02AAB51
:102BAC0016933AAB0546009315AF2EAE02AC696A8C
:102BBC000022339310970023079614A88847211DF1
:102BCC00EB6A029510971696149898471099BDF8D1
:102BDC00143048685B09ADF81630002200230C60F5
:102BEC00C0E9002300240123132203814BF6BB35DB
:102BFC00CB600B81CC610C6281F824208C6181F854
:102C0C002C301EE0029BBDF814209968624300230F
:102C1C0014988847A84213D11098002341680022C9
:102C2C00C1E90023BDF81630012B09D0202121AABF
:102C3C00FFF75BFF20B12898002104F0B1F818B120
:102C4C000134049B9C42DDD34FF0FF304FF0FF3139
:102C5C0034B0BDE8F04003B070470EB4FFB509AC1A
:102C6C0054F8041B054622460394FFF795FFC24314
:102C7C00CB430F4652EA030106460FD0039400944F
:102C8C000024696A00220023204688470094E968E2
:102C9C00204632463B468847012000E0002004B025
:102CAC00BDE8F04003B070470FB430B50420B1B0AC
:102CBC00349D03F079FF002849D035AB0093696A45
:102CCC0000222F9314A80023884715AB02AC109355
:102CDC002AAB211D029516931498EB6A984710990C
:102CEC00BDF8143048685B090C600022ADF8163052
:102CFC000023C0E9002300240123132203814BF697
:102D0C00BB35CB600B81CC610C6281F824208C61CB
:102D1C0081F82C3018E0029BBDF8142099686243AE
:102D2C00002314988847A8420DD1109800234168BD
:102D3C000022C1E90023BDF81630012B03D020215D
:102D4C0021AAFFF7D2FE0134049B9C42E3D300205E
:102D5C0031B0BDE8304004B0704700000EB42DE92E
:102D6C00F04F064688B04C20119D03F01DFF044621
:102D7C00002800F0C680302003F016FF0746A06341
:102D8C00002800F0BB80102003F00EFFA36B7860CE
:102D9C005B68002B00F0B48012AB0093716A0022C8
:102DAC00079304F14800002388472146F36A41F851
:102DBC00046BA06C9847A38901275B09E381A36B83
:102DCC004FF000085A684FF000094FF0130A002624
:102DDC001C60C2E90089178183F824A0DF601F8181
:102DEC00DE611E62A36B83F82C709E61A36B9E62E6
:102DFC00002D75D1102003F0D7FE0646606158B146
:102E0C00434801F0EDFF013003F0CEFE4049206352
:102E1C0003F0BEFF266B26B92046FFF73FF9344678
:102E2C006FE063693046C3E900891F81E76127833E
:102E3C00E56284F834A002F09BFDA5622062656413
:102E4C002046FFF78FF8334B1B78012B59D12846BE
:102E5C0041E02368A289996872430023A06C8847DB
:102E6C0048453BD1A06B002341680022C1E90023F7
:102E7C00E389012B32D004F114022021FFF735FE37
:102E8C0000282BD0206B294603F08AFF074628BB6D
:102E9C0023680DF10C080C220192CDF80080996981
:102EAC0052465B46A06C88471B4841468DF818700B
:102EBC0003F076FF074688B96064A062E06228469A
:102ECC0002F056FD20622046FFF74CF8114B1B78A0
:102EDC00012B16D13846FEF7F5FF12E0013605E05E
:102EEC004BF6BB394FF0020A4FF0000BA3689E4221
:102EFC00AFD32046FFF7D2F8002402E0044600E0EE
:102F0C001C46204608B0BDE8F04F03B0704700BF28
:102F1C008A7D0008AC020020000000202DE9F84357
:102F2C0004469046994600282ED0858900271046E5
:102F3C0019462A463B4603F06FFD494606462A468B
:102F4C0040463B4603F068FD52EA030118BF0136C8
:102F5C00002E08BF01264FF000084FF000094FF675
:102F6C00FF750EE02368A06C996842464B46884773
:102F7C00A8420DD0A289002318EB020849EB0309E3
:102F8C000136A3689E42EDD34FF000084FF00009C4
:102F9C0040464946BDE8F883F8B505460F4600247F
:102FAC0001260EE0AA89002372432846FFF7B6FFDC
:102FBC0050EA010301D0013400E00024BC4205D0EA
:102FCC000136AB689E42EDD300200021F8BD2DE9FF
:102FDC00F04F06680023B6F80C908BB0938093608A
:102FEC0010201446884603F0DFFD2060002876D0C0
:102FFC004FF0000A4FF0000BCDE904AB4AF6AA27BC
:10300C0064E00122DDE904AB00231AEB020A4BEB6E
:10301C00030B5B465246CDE902AB03F0FDFC0546C3
:10302C0029463046FFF7B8FF82468B465AEA0B0317
:10303C0048D0A18820680131090103F029FE28B984
:10304C000746206803F0E4FD384648E0A38820607A
:10305C00002100EB031000220023C0E900AB058126
:10306C00CDF818900791CDE902230895099115E048
:10307C0033680097D96852465B46B06C8847DDE9E7
:10308C00022301200021121843EB0103CDE9022396
:10309C00DDE906231AEB020A4BEB030BDDE9020117
:1030AC00DDE90823904271EB0303E1D3A388DDE94A
:1030BC0004AB0133A380A368CDE902AB5B19A36019
:1030CC00C5EB0808DDE902ABCDE904AB40460021B5
:1030DC00DDE904AB82457BEB010B92D301200BB0F5
:1030EC00BDE8F08F2DE9F04F03689BB0B3F80CB03E
:1030FC00C16805AD4FEA5B1B01312A4604460BF152
:10310C00FF3BFFF764FF002871D194E0211D52466C
:10311C0016AB2068FFF78EF8DDE91601C243CB43EE
:10312C0052EA030500F086806FF001021218206845
:10313C004FF0FF3343EB01030168CDE91623096916
:10314C00806C88470138033045D805A94FEA4812EE
:10315C0018AB2068FFF76EF8DDE91867F243FB4304
:10316C0052EA0301216804D14B6C43F400734B64A5
:10317C0060E06FF0010292194FF0FF3343EB07034D
:10318C00CDE918230EAE0B682025009601959F699A
:10319C00886CDDE91623B847236808F101081A6822
:1031AC0000960195D169986CDDE918238847DDE913
:1031BC00160126680023B5892A4603F02DFCA0FBD6
:1031CC00052301FB0533002031680090CDE916235F
:1031DC004969B06C884709F101090AF1200AD945FF
:1031EC0094D34F46DDF80C9009F1010904E04FF03F
:1031FC00010847464FF00009E368994505D2CDF820
:10320C000C904FEA471AB946E9E7079B994501D15B
:10321C005F450FD0606803F0FBFC059B211D6360CC
:10322C00079B2046E360BDF81830238100F0FDFABF
:10323C00012000E000201BB0BDE8F08F2DE9F04F1D
:10324C000446908889B08946174600286FD0394BC0
:10325C004AF6AA2245081A60204607A9FFF7BEF8CD
:10326C000135A84206460DD2079B13B12046FFF745
:10327C0039FF079BF618AE4204D2221D20460121CD
:10328C0000F0CBFA0025A8462E460DF1100A4FF09F
:10329C00090B48E03868514600EB0810FEF7B7FF01
:1032AC00CEB909EBC5030422D3E900010023801831
:1032BC0041EB0301D4F800E0CDE90201DDE9022382
:1032CC0005F12101DEF800C0C9B20091DCF8041050
:1032DC00DEF8480088470BFB06F105220023521844
:1032EC0043F10003D4F800E0CDE90223DDE902014B
:1032FC0009EBC503D3E90023DEF800C080188DE884
:10330C00000C41EB0301CDE90201DDE90223DCF8FD
:10331C001C10DEF84800884716B10135002600E085
:10332C00012608F10108BB889845B3D3002009B0E9
:10333C00BDE8F08F003000402DE9F04F03688DB0F0
:10334C005C6C064614F400790D4662D1C86901F034
:10335C0047FD0446E86902F00BFB431E03330746A6
:10336C0055D85FFA84F81B23B5F804B008F10608A9
:10337C0098FBF3F80323BBFBF3FB08F101085FFA9E
:10338C008BFB5FFA88F80BF1020AC2445FFA8AFAE7
:10339C000AFA03F003F008FC0446002836D003AB0D
:1033AC0000933846494632460AABFFF7FCF9002831
:1033BC002DD1384631465246234600F02FF808B33B
:1033CC00304621462A46FFF78DF8D8B1AB882BB191
:1033DC0004EBC80130462A46FFF730FF0BF1010B16
:1033EC005FFA8BF3009398446B6904EBC808019364
:1033FC00D8E900233046FFF754F9204603F008FCC7
:10340C00012007E0204603F003FC02E002E04846FE
:10341C0000E000200DB0BDE8F08F00002DE9F04F6A
:10342C000E688BB00493736C91469A0503900C460E
:10343C0000F19E80084609A9FEF7D0FF48454ED200
:10344C00099BC01848450BD32046FFF74BFE054699
:10345C0000283ED1221DA06A002100F0DEF988E090
:10346C00A56A002D2ED101213046FFF795FD6FEA9C
:10347C0000026FEA010382468B4652EA0300CDE953
:10348C0006AB76D033684BF6BB320092D968524605
:10349C005B46B06C8847DDE906AB022200231AEBD1
:1034AC00020A4BEB030B354B316800930C23019351
:1034BC00C969B06C52465B468847211DA06AFFF76C
:1034CC003BFF04E0221D2846002100F0A6F900284D
:1034DC004CD0204609A9FEF781FF484548D34FF050
:1034EC00000847463EE0C7EB090B5FFA8BF120461C
:1034FC00FEF7B8FF054628BB31E02A46059906AB16
:10350C002068FEF797FEDDE90601C243CB43203568
:10351C0052EA030C2CD0DDF810C06FF00102121827
:10352C004FF0FF33039843EB01030CEBCA0A3168ED
:10353C00CAE900230090CDE906234969B06C88479D
:10354C00013704E004F1040C0027CDF814C008EB9B
:10355C00070A5F455FFA8AFACFD34F4601E001377D
:10356C00C246D0464F45BED3012502E0054600E0D9
:10357C00002528460BB0BDE8F08F00BF00000020EE
:10358C002DE9F04703688CB05E6C044616F40076A7
:10359C000D4640F0AC8003AB0093C8682246FE2178
:1035AC000AABFFF700F9002800F088809DF80C307A
:1035BC00A8885A1ED2B2FD2A0DD99DF80D305A1E7C
:1035CC00D2B2FD2A09D99DF80E305A1ED2B2FD2A6C
:1035DC0022D8022102E0314600E001210322B0FB97
:1035EC00F2F20132D2B2934216D0D4F800E00522A6
:1035FC000023DDE90A67B618CAB2DEF8000047EB13
:10360C0003070023B618009347EB030741683246C3
:10361C00DEF848003B46884700264FF000084FF084
:10362C000009B24603A908F103000818012101F0B2
:10363C0041FB411C474618D000282BD06B6998429F
:10364C0028D0206808260168DDE90A230027921992
:10365C00CDF800A043EB070312EB080243EB090380
:10366C004969806C8847012614E09EB108202468C3
:10367C00DDE90A230021121843EB0103696926686E
:10368C0012EB0802009143EBE8737169A06C884758
:10369C0001202DE00422002318EB020849EB03095A
:1036AC001822002382EA080283EA090352EA03077C
:1036BC00B8D12068DDE90A23FFF7B6F9E86821469E
:1036CC0001220AABFFF7AAFE90B1AA880323B2FB32
:1036DC00F3F30133DBB200936B6920460193DDE910
:1036EC000A23FEF7DEFF003018BF012000E00020A7
:1036FC000CB0BDE8F0872DE9F0470446D0B024208B
:10370C000F46164603F050FA4590002800F08280D0
:10371C0000234793ADF8183198464AF6AA2A47E099
:10372C0008F10105B7FBF5F920684946FFF734FCB1
:10373C004EABC3E9000150EA010338D0BDF81811B3
:10374C0045980131090103F0A3FA4590002861D096
:10375C00BDF818314EA900EB0310A0F80890D1E980
:10376C0000230025C0E9002315E02068BDF81821CE
:10377C008189459B6943D0F800E003EB0213D3E940
:10378C000023CDF800A0521843F10003DEF80C1012
:10379C00806C884701354D45E7D1BDF818317F1B4A
:1037AC000133ADF81831479B5B1947934546A84642
:1037BC00B845B5D323685B6C98052AD4204645A937
:1037CC003246FEF795FD2125E9B2F06822464EAB54
:1037DC00FEF792FF40B14EA92068D1E900230135D4
:1037EC00FFF722F9E82DEFD1B288F06852080132C8
:1037FC00D2B2214602ABFFF711FE58B102A93246F4
:10380C002046FFF71BFD20463146FFF7B9FE01208D
:10381C0000E0002050B0BDE8F08703685B6C9B05AE
:10382C0001D4FFF768BF00207047F8B50368044661
:10383C005B6C0E469A052AD488884008C00003F0B9
:10384C00B3F90546002824D02789A16A2069FFF71F
:10385C0022F90322B7FBF2F302FB13729A1801321E
:10386C00D2B22069A16A2B46FFF7D8FD074620B9D2
:10387C00284603F0CDF93846F8BD29463246A06AF1
:10388C00FFF7DCFC284603F0C3F90120F8BD00204B
:10389C00F8BDF8BD0EB42DE9FF430B9C0546204640
:1038AC0001F09EFA013003F07FF90746002800F082
:1038BC009180214603F06CFA4C2003F075F9044614
:1038CC00002800F08E80302003F06EF90646A063CD
:1038DC00002800F08380102003F066F9A36B706061
:1038EC005B68002B78D0102003F05EF96061002833
:1038FC0076D00CAB00930022696A039304F1480064
:10390C0000238847214641F8045BEB6AA06C98477A
:10391C00A38901255B09E381A36B00265A681C600F
:10392C001581132283F82420DD601D81DE611E6267
:10393C00A36B204683F82C509E61A36B2946D3F8C9
:10394C000480FFF729FBA36BC8E900015B68D3E98E
:10395C0000896FEA08026FEA090352EA03013DD0BD
:10396C0023684BF6BB320092D96842464B46A06C9A
:10397C008847A36B02225B682168D3E90089002386
:10398C0018EB020849EB0309194B424600930C2330
:10399C000193C9694B46A06C8847384601F0E8FF93
:1039AC00A662E662666404F1140620622763E56190
:1039BC002583A06B29463246FFF709FB80B1A06B2B
:1039CC003146FFF7B9FC2046FEF7CCFA002808BFB9
:1039DC00002406E0044604E01C4602E0344600E005
:1039EC000446204604B0BDE8F04303B0704700BF66
:1039FC0000000020014B1878704700BFAC0200207B
:103A0C00014B1868704700BFB0020020024B1B68C6
:103A1C0053F82000704700BFA80200202DE9F84F92
:103A2C00074601F0DDF90446023003F0BDF880468C
:103A3C00002800F0B480394603F0AAF908EB04031F
:103A4C0013F8012C2F2A08D02F2208F8042000226A
:103A5C005A700320574901F0C7FF032056494246CC
:103A6C0001F0C2FF302003F09FF80446002800F05C
:103A7C009D80302003F098F8054618B9204603F0D5
:103A8C00C7F892E040464D4903F048F94C4B82464A
:103A9C0093F800904FF000080BE05FFA88F0FFF706
:103AAC00B5FF51460646006B03F07AF918B108F1E0
:103ABC000108C845F1D3C84573D003204149326B86
:103ACC0001F092FF102003F06FF8606000286AD0BC
:103ADC00B06B2146043041F8046BFEF767FBB36B07
:103AEC0061685B682F20D3E90023C1E9002301231F
:103AFC000B81394601F0F4F8B0F1010A56D00027D9
:103B0C0000E02C4600202D4903F008F9804610B93E
:103B1C0003202D4940E0302003F046F805460028EC
:103B2C0043D00023C361C0F82080404601F020FF41
:103B3C0081462649032042464B4605F1040B01F011
:103B4C0053FF484621465A46FEF742FF88B948467D
:103B5C0021465A46FEF77AFE28B195F82430D9064C
:103B6C0001D401370CE003201949424601F03CFF17
:103B7C0017E095F8243007F1010713F0100F03D16B
:103B8C00574518BF002411E05745C5F81090AC629A
:103B9C002E60B6D30F49032001F026FF05E0044642
:103BAC0004E0002402E0044600E02C462046BDE878
:103BBC00F88F00BF907D0008AA7D0008B083000834
:103BCC00AC020020DA7D0008EC7D00080B7E0008BA
:103BDC00307E00083F7E000838B50546302002F0E4
:103BEC00E3FF0446302002F0DFFF002C3FD000281A
:103BFC003CD0284601F07FF8037805462F2B1BD0CC
:103C0C0001F0EEF80446FEF79DF901F0E9F80234F4
:103C1C00201802F0C9FF044648B3FEF793F9014699
:103C2C00204603F0B5F82046124903F043F820462D
:103C3C00294603F03FF809E001F0D2F8013002F018
:103C4C00B3FF044698B1294603F0A2F8204609496F
:103C5C0003F030F803202246074901F0C5FE204648
:103C6C00FFF7DCFE041C18BF012400E004462046CC
:103C7C0038BD00BFB0830008517E000870B501F05C
:103C8C0077FE084B06461D78002406E0E0B2FFF7ED
:103C9C00BDFE036AB34203D00134AC42F6D300201C
:103CAC0070BD00BFAC0200202DE9F0478AB00E4673
:103CBC00154601F020F8804603F07CF8013002F044
:103CCC0073FF0746002800F08F80414603F060F830
:103CDC00342002F069FF0446002800F08C8098F82C
:103CEC000080B8F12F0F1BD107F10109484641465E
:103CFC0002F0EEFF8246002878D00023037048467D
:103D0C00FFF7BCFF414620608AF80080384602F07D
:103D1C00EBFF00286ED000F8018B2062E76112E007
:103D2C00374B1B680360002B62D00762D86A03F024
:103D3C0041F8013002F038FFE06100285AD02368C6
:103D4C00D96A03F025F8E069FFF768FE0027A06246
:103D5C00A761206A01F00CFE06F0130306F00606BC
:103D6C00022E206184F824301ED102AB0093394618
:103D7C00A26A08ABFEF717FD18B12069A16AFEF71D
:103D8C00A1FE2368261D9989A06AB5FBF1F5691C73
:103D9C003246FFF71CF900282CD0A06A3146FFF7F9
:103DAC00CBFA38B3002318E0062E04F10406A16AFE
:103DBC00324614D1FEF70CFE70B92368A06A9989BB
:103DCC003246B5FBF1F5691CFFF701F990B1A06A19
:103DDC003146FFF7B1FA68B1A369E3620BE0FEF775
:103DEC00F7FD38B1E76206E0044604E0044602E061
:103DFC001C4600E0044620460AB0BDE8F08700BF30
:103E0C00B0020020F8B5054600F0EAFF02F0CCFE47
:103E1C000446DCB1294602F0BBFF0D49204602F0F6
:103E2C007DFF0C4B00251F7801F0A2FD064606E035
:103E3C00E8B2FFF7EBFD036AB34207D00135BD4290
:103E4C00F6D3204602F0E4FE0020F8BDF8BD00BF1A
:103E5C00B0830008AC020020F8B5064600F0C0FFA5
:103E6C0003205B4901F0C0FD30465A4902F098FF2F
:103E7C00044620B9FEF726F8574B1C60A4E03046E8
:103E8C00564902F08DFF054600282CD1524E0320D6
:103E9C00534901F0A9FD3468002C00F09580E06ACC
:103EAC0000F09EFF0746206B00F09AFF013087421E
:103EBC00E06A0DDD2F212A4601F055F9206B00F048
:103ECC008FFF0746E06A00F08BFF87427CDB08E03F
:103EDC0000F086FF0746206B00F082FF013087421E
:103EEC0072D1356070E0337803202F2B14D13D490B
:103EFC0001F07AFD3046FFF76FFE002867D00320F3
:103F0C00394901F071FD3046FFF77CFF324B1860E8
:103F1C003046FDF7D7FF57E0344901F065FD2E4BD5
:103F2C0003201D68C5B1324901F05EFD304600F03A
:103F3C0057FF0446E86A00F053FF0234201802F0E1
:103F4C0033FE044600283FD0E96A02F021FF2046E8
:103F5C00204902F0AFFE0EE0264901F045FD304647
:103F6C0000F03EFF023002F01FFE044600282DD068
:103F7C00184902F00DFF3146204602F09BFE03204B
:103F8C001D49224601F030FD2046FFF747FDF0B1F8
:103F9C001A49032001F028FD2046FFF733FF0E4B92
:103FAC0017491860032001F01FFD2046FDF78AFF1A
:103FBC000320144901F018FD0320134901F014FDEE
:103FCC000320124901F010FD0120F8BD0120F8BDBD
:103FDC00737E0008B0830008B00200204C7F0008FC
:103FEC00877E00088F7E0008977E0008AD7E000853
:103FFC00D47E0008E27E0008EB7E0008FA7E000802
:10400C000C7F0008207F0008327F00084F7F0008DB
:10401C0003682DE9F0419B89C76805465F4300267C
:10402C007F0969E0302002F0BFFD0446002865D00E
:10403C002B68024642F8043B28460021FEF755FD4A
:10404C008046002845D094F82430D80631D5E8694C
:10405C0000F0C6FE8046206A00F0C2FE08F102089D
:10406C00404402F0A1FD804600284AD0206A01F0AD
:10407C007FFCE9692061404602F08AFE23494046F4
:10408C0002F018FE216A404602F014FE4046FFF78B
:10409C00C5FCC4F81C80A0622046FFF7B9FF0028BD
:1040AC0031D003201A4901F09FFCA36A2069996A58
:1040BC000BE0206A01F05CFCEB69206114490320E1
:1040CC00E36101F091FC20692946FEF7FBFC013607
:1040DC0012E0286A01F04CFC2F212861E86902F0FB
:1040EC0003FE0B4980F80080032001F07DFC286959
:1040FC00A96AFEF7E7FC01E0BE4293D10120BDE8BE
:10410C00F081BDE8F0810120BDE8F081B0830008AA
:10411C00567F000838B500F0EEFD037805462F2BCE
:10412C001CD0FDF70FFF00F05BFE0446284600F0A4
:10413C0057FE0234201802F037FD044668B3FDF731
:10414C0001FF0146204602F023FE2046144902F0EE
:10415C00B1FD2046294602F0ADFD09E000F040FE1D
:10416C00013002F021FD0446B8B1294602F010FEE0
:10417C0003200C49224601F037FC2046FFF74EFC89
:10418C00054648B1C4610849032001F02DFC2846BE
:10419C00FFF73EFF012400E00446204638BD00BF77
:1041AC00B0830008717F0008A07F000830B5A1B073
:1041BC0069462022802301F0ABF8C5B265B104201A
:1041CC0002F0F2FC044640B120AB03EB850555F838
:1041DC00841C02F0DDFD00E02C46204621B030BDF1
:1041EC00011D08B5806AFFF7CBF9012008BD10B599
:1041FC0090F8243004469B0701D5FFF7F1FF606867
:10420C0008B102F005FD206A08B102F001FD20465C
:10421C0002F0FEFC012010BD70B504462E490320AF
:10422C00E26801F0E1FB03202C49226901F0DCFB80
:10423C0003202B49626901F0D7FB03202949E2696D
:10424C0001F0D2FB03202849A26901F0CDFB032029
:10425C00264901F0C9FB94F82030DD0703D5032073
:10426C00234901F0C1FB94F82030980703D50320B3
:10427C00204901F0B9FB94F82030D90603D503206E
:10428C001D4901F0B1FB94F820305A0703D50320E7
:10429C001A4901F0A9FBA2880320194901F0A4FBDB
:1042AC0003201849A26801F09FFB002510E0236849
:1042BC002E019B19D3E900230320134901F094FB31
:1042CC00236803209E193289104901F08DFB0135BA
:1042DC00A3889D42EBD370BDBE7F0008CA7F000847
:1042EC00D47F0008E07F0008EA7F0008F47F000814
:1042FC0001800008078000080E8000081680000866
:10430C001E80000830800008418000089A7900085F
:10431C0038B500F0F0FC037805462F2B1CD0FDF7C8
:10432C0011FE00F05DFD0446284600F059FD0234F4
:10433C00201802F039FC0446C0B1FDF703FE01461B
:10434C00204602F025FD2046094902F0B3FC204628
:10435C00294602F0AFFC09E000F042FD013002F00A
:10436C0023FC044610B1294602F012FD204638BD4C
:10437C00B08300082DE9F04105460C462A46234639
:10438C008AB02949032001F02FFB2846FFF7C0FF14
:10439C0005462046FFF70AFF0446002840D0284671
:1043AC0001210022FFF780FC064620B9284602F0C6
:1043BC002FFC344634E0071D384601A9FDF7F6FE04
:1043CC003069B16AFEF77EFB48B3306A02F020FC1C
:1043DC00204602F0EFFC013002F0E6FB8046306232
:1043EC0020B9284602F014FC444619E0214602F09C
:1043FC00CFFC306A01F0BCFA39463061B06AFEF786
:10440C009BFF044618B9284602F002FC08E030462F
:10441C00FFF7EDFE284602F0FBFB012400E004460A
:10442C0020460AB0BDE8F081868000082DE9F04FE7
:10443C00036815465A6C85B012F4606F04468846C2
:10444C0046D142F400625A648269C36AD31AAB4201
:10445C0006D290F824201D4622F07F0280F82420FA
:10446C00002604F1040921E04946E26A02AB206807
:10447C00FDF7E0FEDDE902AB6FEA0A026FEA0B031F
:10448C0052EA030124D02368AF1BB84238BF074659
:10449C0008EB06011A688DE882009169986C524607
:1044AC005B468847E36AF619DB19E362AE42DBD35D
:1044BC0023685A6C22F400625A64E26AA3699A4235
:1044CC0007D994F8243023F07F0384F8243000E0DB
:1044DC000025284605B0BDE8F08F73B506460220CE
:1044EC0002F062FB044600B3002518E030460DF1E3
:1044FC0007010122FFF79AFFA8B19DF8070000F011
:10450C0006FC80B12046A91C02F0C2FB044660B137
:10451C009DF8073043550135B5F5806F03D096F9FA
:10452C002430002BE2DA0023635520467CBD07B50E
:10453C0001220DF10701FFF779FF9DF807000EBD71
:10454C002DE9F04F036817465A6C85B012F4606F72
:10455C000446894653D142F400625A649B89C1686F
:10456C00023B4B438269BA189A4203D8002604F1E5
:10457C0004083BE0021D0121806AFFF74EF9002878
:10458C00F4D13DE0E26A02AB20684146FDF752FEF1
:10459C00DDE902AB40F6FF720023524573EB0B03CF
:1045AC002DD26FEA0A026FEA0B0352EA030105D11E
:1045BC0023685A6C22F400625A6420E08319BB42CF
:1045CC002368054609EB060188BFC6EB07051A6888
:1045DC008DE82200D169986C52465B468847E36AA5
:1045EC0076195B19E362A3695B19A361BE42C9D357
:1045FC00236801205A6C22F400625A6400E0002007
:10460C0005B0BDE8F08FF0B50022A1B00D46012138
:10461C00FFF74AFB044640B328460221A269FFF784
:10462C0043FB054620B92046FFF7E1FD28461CE078
:10463C00201DFFF7F1FD00260CE069468022204684
:10464C00FFF7F4FE0746694628463A46FFF778FF1F
:10465C00F61917B1A3699E42EFD32046FFF7C7FDA9
:10466C002846FFF7C4FD0120FFE721B0F0BD07B5D8
:10467C0003688DF807101B7C1B0703D5C26A83697E
:10468C009A4205D10DF107010122FFF759FF00E015
:10469C0000200EBD70B505460C4616460B200121B8
:1046AC0000F030F9214632462846FFF749FF002139
:1046BC0004460B2000F026F9204670BD2DE9F0478A
:1046CC000C4622468CB056498046032001F08CF9EA
:1046DC00204600F010FB0646FDF734FC00F080FB92
:1046EC000446304600F07CFB0234201802F05CFAE1
:1046FC00044618B903204B4901F076F9FDF722FC6A
:10470C000146204602F044FB4749204602F0D2FA0B
:10471C003146204602F0CEFA03204449224601F0ED
:10472C0063F92046FFF77AF9054620B90320404982
:10473C0001F05AF970E0C4613E490320224601F0B1
:10474C0053F94FF0320A0027302002F02DFA0446BC
:10475C00002860D02B683946036003AA2846FEF770
:10476C00C4F90746002856D00A9B0320009332490F
:10477C00069B3A4601F038F9069B01333CD09DF874
:10478C002C30DA0638D52D49032001F02DF9E869D3
:10479C0000F026FB8146206A00F022FB09F1020999
:1047AC00484402F001FA8146002835D0206A01F015
:1047BC00DFF8E9692061484602F0EAFA1A494846EE
:1047CC0002F078FA216A484602F074FA1C494A460B
:1047DC00032001F009F94846FFF720F91949A062B6
:1047EC00C4F81C9003204A4601F0FEF840463146BE
:1047FC00FFF764FF28B10EE030460A9902F0D0FAB8
:10480C0030B9032010493246D8F82C3001F0ECF8BE
:10481C00BAF1010A98D100E000200CB0BDE8F08795
:10482C00A3800008AD800008B0830008717F0008E9
:10483C00C6800008E2800008F48000080D810008A2
:10484C001B8100084F8100086C81000890F924300E
:10485C00002B06DBC26A8369D11A484240EB010087
:10486C0070470120704700000F2804D8144B9A6938
:10487C0042F004021AE01F2804D8114B9A6942F046
:10488C00080213E02F2804D80D4B9A6942F010024D
:10489C000CE03F2804D80A4B9A6942F0200205E04C
:1048AC004F2805D8064B9A6942F040029A6170472E
:1048BC005F2804D8024B9A6942F080029A617047D3
:1048CC00001002400F280BD91F280BD92F280BD909
:1048DC003F280BD9064B4F2894BF18460020704731
:1048EC0004487047044870470448704704487047B0
:1048FC000018014000080140000C0140001001406C
:10490C0000140140012200F00F0312FA03F39BB2D2
:10491C00002914BF194600210F2801D80F4A0AE0BC
:10492C001F2801D80E4A06E02F2801D80D4A02E0B4
:10493C003F2808D80C4AD06820EA0303D360D36818
:10494C001943D16070474F2807D8084AD06820EA2D
:10495C000303D360D3681943D1607047000801404A
:10496C00000C0140001001400014014000180140EF
:10497C0038B504460D46FFF777FF2046FFF7A2FF38
:10498C0004F0070292000F2105F00F03934011FA77
:10499C0002F22140D243072906D801680A4002607E
:1049AC0002681343036005E041680A4042604268B4
:1049BC001343436015F0180102D02046012103E097
:1049CC0015F0280F04D02046BDE83840FFF79ABFF9
:1049DC0038BD000010B5094B094C5A6942F0010270
:1049EC005A61238843F001032380064B1B689847C8
:1049FC00238823F00103238010BD00BF0004014075
:104A0C00F4020020B402002010B5094B094C5A697D
:104A1C0042F002025A61238843F002032380064BC2
:104A2C005B689847238823F00203238010BD00BFE6
:104A3C0000040140F4020020B402002010B5094B20
:104A4C00094C5A6942F004025A61238843F004036A
:104A5C002380064B9B689847238823F0040323800C
:104A6C0010BD00BF00040140F4020020B40200207D
:104A7C0010B5094B094C5A6942F008025A61238857
:104A8C0043F008032380064BDB689847238823F008
:104A9C000803238010BD00BF00040140F402002075
:104AAC00B402002010B5094B094C5A6942F01002AF
:104ABC005A61238843F010032380064B1B699847E7
:104ACC00238823F01003238010BD00BF0004014095
:104ADC00F4020020B402002010B5324B5A69900643
:104AEC000FD55A69304C42F020025A61238843F0AA
:104AFC00200323802D4B5B699847238823F02003E8
:104B0C002380284B5A6951060FD55A69264C42F01E
:104B1C0040025A61238843F040032380234B9B6956
:104B2C009847238823F0400323801E4B5A691206B2
:104B3C000FD55A691C4C42F080025A61238843F00D
:104B4C0080032380194BDB699847238823F080036B
:104B5C002380144B5A69D0050FD55A69124C42F474
:104B6C0080725A61238843F4807323800F4B1B6A35
:104B7C009847238823F4807323800A4B5A69910544
:104B8C000FD55A69084C42F400725A61238843F4D9
:104B9C0000732380054B5B6A9847238823F40073CA
:104BAC00238010BD00040140F4020020B402002058
:104BBC0010B53D4B5A6950050FD55A693B4C42F420
:104BCC0080625A61238843F480632380384B9B6A4C
:104BDC009847238823F480632380334B5A6911054B
:104BEC000FD55A69314C42F400625A61238843F460
:104BFC00006323802E4BDB6A9847238823F40063E1
:104C0C002380294B5A69D2040FD55A69274C42F498
:104C1C0080525A61238843F480532380244B1B6BAE
:104C2C009847238823F4805323801F4B5A699004A0
:104C3C000FD55A691D4C42F400525A61238843F433
:104C4C00005323801A4B5B6B9847238823F4005343
:104C5C002380154B5A6951040FD55A69134C42F4F1
:104C6C0080425A61238843F480432380104B9B6B12
:104C7C009847238823F4804323800B4B5A691204F2
:104C8C0011D55A69094C42F400425A6123886FEAE3
:104C9C0043436FEA53432380054BDB6B98472388D0
:104CAC0023F40043238010BD00040140F4020020D3
:104CBC00B402002001290378427808D1C17812048B
:104CCC0042EA036380780B4343EA00207047817803
:104CDC00C078090441EA0222134343EA006070479A
:104CEC000346002002E09A4208BF013011F8012B64
:104CFC00002AF8D17047034603E0083AD2B2182ACA
:104D0C0004D8184613F8012B002AF6D17047203826
:104D1C00C0B25E288CBF00200120704701E0984291
:104D2C0004D011F8013B002BF9D100E0012358B25B
:104D3C007047A0F14103DBB2192B06D96138C0B220
:104D4C0019288CBF0020012000E0012040B27047E0
:104D5C003038C0B209288CBF002001207047A0F168
:104D6C004103DBB2192B0BD9A0F16103DBB2192B78
:104D7C0006D93038C0B209288CBF0020012000E0D1
:104D8C00012040B270470A2807D00C2805D0A0F1AA
:104D9C000D03584240EB030000E0012040B2704785
:104DAC00222805D0A0F12702504240EB020000E07F
:104DBC00012040B27047000008B50349FFF7AEFF71
:104DCC00003018BF012008BD8B82000808B50349CC
:104DDC00FFF7A4FF003018BF012008BD9D8200081A
:104DEC00002303E00133B3F5803F04D0C15C9AB2D9
:104DFC000029F7D101E04FF6FF7210467047A0F181
:104E0C004103DBB2192B01D82030C0B2704738B542
:104E1C000D46FFF7F4FF04462846FFF7F0FF231A70
:104E2C00584240EB030038BD70B50C460546FFF701
:104E3C00D7FF06462046FFF7D3FF86420BD104E08E
:104E4C0014F8011BFFF7E3FF30B115F8010B002834
:104E5C00F6D1012070BD002070BD70B50D46044622
:104E6C00FFF7BEFF06462846FFF7BAFF864202E070
:104E7C0015F8012B934205D114F8013B002BF7D107
:104E8C00012000E0002040B270BD00002DE9F84F79
:104E9C0000254D810D8107460C46FFF7A1FF80468A
:104EAC00B8F1000F00F01E81042001F07DFE60605F
:104EBC00002800F01781042001F076FE06462060E1
:104ECC0028B9606801F0A4FE3046BDE8F88F7B5D20
:104EDC002D2B43D16E1CBB5D61892D2B08BFAE1CE5
:104EEC0001318900606801F0D3FE0546606000283E
:104EFC0000F0F8800220B4F80A9001F055FE45F855
:104F0C0029006289636853F82200002800F0EA80C7
:104F1C00002512E0B4F80AA0D4F80490E91C59F862
:104F2C002A0001F0B5FE49F82A0061896368BA5D70
:104F3C0053F8213001365A550135454504D0BB5D37
:104F4C00202B01D02C2BE5D163896268002152F80B
:104F5C0023200133515563813546BCE0202B00F0F2
:104F6C00BA802C2B00F0B780222B03D101354FF0E7
:104F7C00010901E04FF00009218920680131890005
:104F8C0001F086FE064620600220B4F808A001F06D
:104F9C000BFE46F82A002068002800F0A380238925
:104FAC0050F82300002800F09D80002688E0B4F81B
:104FBC0008B0D4F800A0F11C5AF82B0001F068FEE0
:104FCC004AF82B002289236853F82200002800F0AD
:104FDC008980B9F1000F6CD07A5D05F10103222AAA
:104FEC0001D11D466FE05C2A66D117F803A01D465F
:104FFC00BAF1720F09D103203B4900F0F5FC22896C
:10500C00236853F822300D220BE0BAF1740F0AD149
:10501C000320364900F0E8FC2289236853F822303B
:10502C0009229A554AE0BAF16E0F13D13049032088
:10503C0000F0DAFC228923680D2153F8223008F1A4
:10504C000108995522892368013653F822300A2227
:10505C009A5533E0BAF16C0F0AD12649032000F0BF
:10506C00C3FC228923680A2153F82230995525E084
:10507C00BAF1660F09D103201F4900F0B5FC228953
:10508C00236853F822300C22CBE7BAF1220F02D15D
:10509C0003201A4904E0BAF1270F0FD11849032055
:1050AC0000F0A2FC2289236853F8223003F806A0F2
:1050BC0004E07B5D202B06D07B5D835501360135EA
:1050CC004645FFF474AF23892268002152F823204F
:1050DC0001339155238101354545FFF4F8AE01208C
:1050EC00BDE8F88FBDE8F88FA4820008CC820008D8
:1050FC00E8820008088300082A8300084C83000813
:10510C0071830008704770B500230DE0B54204D1DF
:10511C0001339BB200F8012C06E00134A4B200E08C
:10512C0000240E5D002EF1D110F8015B002DF7D19B
:10513C00D8B270BD0346A0F13000C0B2092811D915
:10514C00A3F14102D2B2052A02D8A3F1370006E03E
:10515C00A3F16102D2B2052A03D8A3F15700C0B261
:10516C0070470020704770B504460D461646FFF791
:10517C0037FE07E0013880B2225C2318AA4201D125
:10518C001E7001E00028F5D1C0B270BD0B461A7834
:10519C000131002AFAD101E003F8012B10F8012BA0
:1051AC00002AF9D11A70704701E001F8013B10F8A0
:1051BC00013B002BF9D10B70704700002DE9F04F2B
:1051CC00054685B00C46B0B14F4B186808B101F0DC
:1051DC001FFD2846FFF704FE013001F0E5FC4A4BA9
:1051EC0006461860002800F0878028463146FFF7F5
:1051FC00DBFF464B1E60454B1E68002E72D17BE0D8
:10520C00A5F10803DBB2182B1ED979E02F2D1BD08A
:10521C0014F0010A03D02846FFF7D8FDA0B914F00A
:10522C00080B03D02846FFF7C7FD68B914F010032C
:10523C00019303D02846FFF7B3FD28B914F02003DF
:10524C0002933BD02C2D39D10136C8F800604DE0CB
:10525C00B9F1000F04D0A5F10803DBB2182B3BD930
:10526C00039B002B01DA2F2D36D0BAF1000F04D09E
:10527C002846FFF7ABFD00282ED1BBF1000F03D061
:10528C002846FFF799FD38BB019B1BB12846FFF759
:10529C0087FD08BB610703D52846FFF774FDD8B915
:1052AC00029B0BB12C2D17D0620603D52846FFF7B5
:1052BC0040FD88B90137C8F8007005E07FB2DFF80F
:1052CC004C8004F002090397D8F800703D78002D4B
:1052DC00BED10E4B1D600FE0002307F8013B0B4BBA
:1052EC001F6009E0E7B298464FFA87F9D8F80060DA
:1052FC003578002D84D12E46304605B0BDE8F08FB0
:10530C00B9F1000F84DA81E7F8020020FC020020DA
:10531C00F8B51F46002314460E460A46194603E00C
:10532C00013342F8041B9BB2A342F9D13946FFF773
:10533C0045FF002507E046F8040B39460020FFF72F
:10534C003DFF0135ADB2A54201D00028F3D128466E
:10535C00F8BD00002DE9F04100238AB004E001A95A
:10536C005A540133232B02D0C25C002AF7D10AAA6B
:10537C00D318002203F8242C1E49202201A8FFF781
:10538C00C2FE1D4900280CBF01244FF0FF3420221F
:10539C0001A8FFF7B8FE90B901A818492022FFF721
:1053AC00B2FE70B901A816492022FFF7ACFE50B925
:1053BC0001A814492022FFF7A6FE0A2504E01025B7
:1053CC0002E0022500E008250DF10408002608E0A3
:1053DC003846FFF7C4FC20B13846FFF7ABFE6E43EE
:1053EC00361818F8017B002FF2D104FB06F00AB036
:1053FC00BDE8F08196830008988300089D8300081F
:10540C00A0830008A38300082DE9F04F8BB01E4643
:10541C00CDE904010DF11B03002400254FF0010818
:10542C004FF000094FF0080A4FF0000B0CE014EBA2
:10543C00080445EB090503F8011F84EA0A0085EA14
:10544C000B0150EA010703D012F8011B0029EED121
:10545C000DF11C0A54440023DDE904ABBAF1000F32
:10546C007BF1000B23700ADADDE904ABDAF1000AF8
:10547C006BEB4B0BCDE904AB2D2306F8013B9DF8F0
:10548C001C40252C06BF9DF81D400DF11D0507ADD8
:10549C00302C01D1013500E0202428464E49202231
:1054AC00FFF731FE70B928464C492022FFF72BFE3E
:1054BC0058B928464A492022FFF725FE40B14FF043
:1054CC00020A07E04FF0100A04E04FF0080A01E06E
:1054DC004FF00A0A4FF0000B2846CDE902ABFFF75C
:1054EC0039FF013880464FEAE079B8F1000F79F1C5
:1054FC00000BBCBF4FF000084FF00009002000214A
:10550C004FF0010A4FF0000BCDE900010BE0012038
:10551C00DDE900AB00211AEB000A4BEB010BCDE9E6
:10552C0000AB92469B46039A029B0AFB02F103FBDB
:10553C000B11AAFB0323CB18DDE90401904299411E
:10554C00E5DA009F4FF0FF324FF0FF3305E018EB28
:10555C00020806F8014B49EB0309DDE9000140455F
:10556C0071EB0901F3DB1F4C35464FF0FF384FF060
:10557C00FF3952465B46DDE9040101F07DFA235CFC
:10558C0006F8013B00FB0BF301FB0A33A0FB0A01FD
:10559C005918DDE90423121A63EB0103CDE9042346
:1055AC00DDE902235046594601F066FA82468B46E5
:1055BC00DDE9000110EB080041EB0901CB43C243CC
:1055CC00CDE9000152EA0301D3D1ED1900236B7030
:1055DC000BB0BDE8F08F00BFA6830008A0830008C5
:1055EC009D8300083E840008000000002DE9F04F68
:1055FC008BB004460D46164604AA1F4601F0B2F9BC
:10560C002046294600F028FF04AA81462946204658
:10561C0001F0A8F901F0FCF982468B463046694648
:10562C00FFF7C2FD3B4806A9FFF7BEFD9DF8003011
:10563C0008A9252B14BF68460DF101000222412355
:10564C00FFF766FEC4B21CB1089806A9FFF79EFDD1
:10565C00314806A9FFF79AFD4846C11706AA3B46F2
:10566C00FFF7D2FE2D483946FFF790FD022C0BD1E7
:10567C000DF11A010998FFF797FD0998FFF76AFEDB
:10568C005FFA80F8454600E00F25002426464FF0CF
:10569C000A091BE0224B50465946002201F064F8DF
:1056AC0004AA01F05FF982468B4601F0B1F917A309
:1056BC00D3E9002301F04AF950B9DDE9040100F007
:1056CC00F3FE09FB06F601343618E4B2AC42E1D124
:1056DC0006A90F2D08BF44461248FFF765FD0DF1D2
:1056EC001A03114AE0B20021FFF78EFE06A90A4800
:1056FC00FFF74CFD3846FFF773FB00213B1806AA59
:10570C003046FFF781FE0BB0BDE8F08F48AFBC9A76
:10571C00F2D77A3E98760008CB7800084D7F0008C7
:10572C0000002440AB830008CA78000807B51C4968
:10573C0001F0F4FA98B3FFF70DFE19498DF8020049
:10574C00002001F0EBFA50B3FFF704FE14498DF87A
:10575C000300002001F0E2FA08B3FFF7FBFD10494B
:10576C00ADF80000002001F0D9FAC0B1FFF7F2FD4E
:10577C000B498DF80400002001F0D0FA78B1FFF746
:10578C00E9FD07498DF80500002001F0C7FA30B19A
:10579C00FFF7E0FD8DF80600684600F0A3FD0EBD96
:1057AC00AE8300082DE9F041DFF8A88004460026FE
:1057BC0058F836002146FFF750FBF700054620B19C
:1057CC00244BDF193879BDE8F08101361F2EEFD15B
:1057DC00204621492022FFF796FC002833D0204692
:1057EC001E492022FFF78FFC30BB20461C4920228B
:1057FC00FFF789FCC8B920461A492022FFF783FC21
:10580C00A8B9204618492022FFF77DFC88B920460C
:10581C0016492022FFF777FC68B92046144920224C
:10582C00FFF771FC90B1502506E0102504E020250F
:10583C0002E0302500E040252046FFF78BFD2D18B7
:10584C00E8B2BDE8F081FF20BDE8F081FF20BDE8A3
:10585C00F08100BF7C810008B2830008B58300088A
:10586C009D830008B8830008A3830008BB8300084D
:10587C00BE83000810B50023064902E00133102B4B
:10588C0004D05C5C9AB28442F8D100E01A4610460F
:10589C0010BD00BF3E840008F8B504460E46002536
:1058AC000BE0FFF7E7FF07016078FFF7E3FFFFB2BC
:1058BC003F18775501350234ADB220780028F0D16D
:1058CC002846F8BD7047202808D80022012302E0A2
:1058DC0001325B00D2B28242FAD100E000231846BA
:1058EC0070470000022910B503460CD0042930D0B3
:1058FC0001294FF0000034D11A4B19601A4B186073
:10590C001A4B186010BD19490868441CB0F5804F3B
:10591C000C600AD1144804681248006840EA04403C
:10592C00106000220A60012000E000200D490A6886
:10593C009B184FF6F172B3FBF2F402FB14330B60BD
:10594C0009490C681B19B3FBF2F402FB14320A6010
:10595C0010BD054B01201968024B1B6843EA01433B
:10596C00136010BD00030020A8040020AC0400202C
:10597C0037B5054601AC0020012100E0022122468A
:10598C00FFF7B0FF15F8010B0028F7D104212246D0
:10599C00FFF7A8FF01983EBD2DE9F0410024104F00
:1059AC0080462546E1590E4E89B14046FFF755FA1F
:1059BC0068B11C235D430B49731900227251DA80C4
:1059CC009A60DA6019615A610120BDE8F0811C34DB
:1059DC000135B4F5D27FE5D10020BDE8F08100BFE0
:1059EC0004030020D15800080EB42DE9F04F98B0F4
:1059FC00DDF884A00546BAF1000F00F016810023F3
:105A0C008C4E8DF85E30282722AB169307FB00686E
:105A1C0006E1252B4FF0000940F0F68009E05A789A
:105A2C0010AB09F8032009F10109B9F10C0F01D1F0
:105A3C0014E054460AEB090358780593FFF788F9EC
:105A4C005FFA89FB0134059B0028E8D15A782D2A8E
:105A5C00E5D02B2AE3D02E2AE1D000E0CB4618A8C3
:105A6C0000EB0B03002103F8201C2378252B06D018
:105A7C00632B0BD1169B18A81A1D1B68169200F8E5
:105A8C00043D07FB05631B699847C7E0732B51D195
:105A9C00169B1A1D1692D3F800A05046FFF7A0F9DA
:105AAC0020238DF85C309DF8403081462D2B21D180
:105ABC0007FB056350461B6998470DF14100FFF742
:105ACC0049FCC0B2484586BFC9EB00095FFA89F9A9
