:020000040800F2
:1000000090140120FB1100085D110008F97500082B
:10001000611100086311000865110008000000006C
:100020000000000000000000000000006711000850
:1000300069110008000000006B1100080128000889
:100040006F11000871110008731100087511000884
:100050007711000879110008E15D0008155E0008BD
:10006000495E00087D5E0008B15E00088511000849
:1000700087110008891100088B1100088D110008F4
:100080008F110008911100083D2D000895110008FE
:1000900097110008991100089B110008E55E0008FF
:1000A0009F110008A1110008A3110008A511000864
:1000B000A7110008A9110008AB110008AD11000834
:1000C000C5290008C7290008C9290008B51100087A
:1000D000B7110008412C0008BB110008E12C0008F2
:1000E000BD5F0008C1110008C3110008C511000858
:1000F000C7110008C9110008CB110008CD11000874
:10010000CF110008D1110008D3110008D511000843
:10011000D7110008D9110008DB110008DD11000813
:10012000DF110008E1110008E3110008E5110008E3
:101030002F49072291438D462E492F480A1A06D080
:101040000722914381F30988022282F314882B48F6
:101050002B492C4A00F039F82B482C492C4A00F037
:1010600034F82C482C492D4A00F02FF82C482D49F3
:101070002D4A00F02AF82D482D492E4A00F025F877
:101080002D482E492E4A00F020F82E482E490022E5
:1010900000F026F82D482E49091A082903DB002202
:1010A0000260043001601F481F49884205D0026871
:1010B000043003B4904703BCF7E700208646EC46B3
:1010C00000200021234A9047FEE7884207D0521AA9
:1010D00005D0037801300B700131013AF9D1704726
:1010E000884202D002700130FAE770471A48704710
:1010F000901401209018012090140120A499000858
:10110000000000204C00002008120008081200080F
:101110002C8F0008A4990008000000200000002087
:101120002C8F00082C8F00082C8F00082C8F0008B3
:101130002C8F00082C8F00082C8F00082C8F0008A3
:10114000A39900084C000020900400209004002087
:101150009004012035220008FFFFFFFFFEE7FEE7B5
:10116000FEE7FEE7FEE7FEE7FEE7FEE7FEE7FEE757
:10117000FEE7FEE7FEE7FEE7FEE7FEE7FEE7FEE747
:10118000FEE7FEE7FEE7FEE7FEE7FEE7FEE7FEE737
:10119000FEE7FEE7FEE7FEE7FEE7FEE7FEE7FEE727
:1011A000FEE7FEE7FEE7FEE7FEE7FEE7FEE7FEE717
:1011B000FEE7FEE7FEE7FEE7FEE7FEE7FEE7FEE707
:1011C000FEE7FEE7FEE7FEE7FEE7FEE7FEE7FEE7F7
:1011D000FEE7FEE7FEE7FEE7FEE7FEE7FEE7FEE7E7
:1011E000FEE7FEE7FEE70548854600F005F80448FF
:1011F00004490160FFF71CBF7047FEE70080012033
:0812000008ED00E00000000809
:10120800024A034B0120DA60704700BF0400FA0568
:1012180000ED00E000207047002070470020704774
:10122800002070470020704700207047002070475A
:10123800002070470020704700207047002070474A
:10124800002070470020704700207047704700005A
:10125800002008B5024906F0A5F8002008BD00BF27
:1012680055920008002008B5024906F09BF80120B5
:1012780008BD00BF4592000808B503F0A3FF012090
:1012880008BD1FB501A905F0A9F950B1BDF80C308A
:10129800022B05D1019803C804F0C4F8012000E02E
:1012A800002005B000BD00002DE9F04F85B001A970
:1012B80005F094F9002800F08A800020524906F0D1
:1012C80071F80024BDF80C309C4209D2019B2246DB
:1012D80053F8243000204D4906F064F80134F1E752
:1012E800032B01D000208CE00198806805F0A2F85B
:1012F80001998246486805F09DF8814644490020D6
:101308004A46534606F04EF809F1010007F0A2F8E4
:1013180080460028E6D0019A106805F08BF8023064
:1013280007F098F805460028DCD0002439490470F5
:1013380007F08CF9019E2846316807F015F9019FDE
:1013480001213868224603F071FD0646022128462D
:10135800B26903F06BFD07460028C3D020462E492A
:10136800B26906F01FF8F06AB36998422FD2304686
:1013780004F01FF983460198284943685A4600201B
:101388001B5D06F00FF801994A68135D04F101022C
:101398005B4514D108F804300020144620491A4649
:1013A80006F000F84C45DED1019C00201D49A268DA
:1013B80005F0F8FF019938468968524603E008F8B5
:1013C80004B03846414604F0FDF80024CBE7304627
:1013D80003F059FF384603F056FF0199086803F0F7
:1013E800F1FE019B00201B680F492A4605F0DAFF31
:1013F800019A2846116804F015F8284607F05EF8A7
:10140800012005B0BDE8F08F318F00083E8F00083D
:10141800468F0008648F0008668F0008738F0008E5
:10142800868F00089C8F0008AF8F000808B513212D
:10143800002203F0FBFC18B107F040F8012008BDBA
:1014480008BD08B504F091FF0321002203F0EEFC6B
:10145800003018BF012008BD10B504F086FF032135
:10146800002203F0E3FC044660B1074804F0E2FF01
:1014780005490246204604F0A5F8204603F003FF7C
:10148800012010BD10BD00BFC38F000838B504F09F
:101498006CFF0721002203F0C9FC044670B1402507
:1014A800212220460649013D04F08CF815F0FF057D
:1014B800F6D1204603F0E7FE012038BD38BD00BF55
:1014C800D38F000810B504F050FF044603F09CFBCE
:1014D800214604F01DF9012010BD000070B5062159
:1014E80005F00EFA00B970BD0024164E96F92430A6
:1014F800002B25DB304604F05CF8054696F92400FD
:1015080000281ADB0D2D08BF00245021B4FBF1F28E
:1015180001FB1246B0B210B90B4905F043FF002099
:101528000D2D06D0A5F12003D9B25E2901D90749AE
:1015380000E007492A4605F035FF0134A4B2D4E794
:10154800012070BD58000020D18F0008F48F0008DA
:101558001390000810B5062105F0D2F906210446BB
:10156800002005F0CDF91CB1003018BF012010BDD6
:10157800204610BD10B5062105F0C2F90621044623
:10158800002005F0BDF91CB1003018BF012010BDC6
:10159800204610BD38B504F0E8FE0121002203F012
:1015A80045FC044680B11425204603F0D6FF0246C8
:1015B80008B9012038BD013D00200449ADB205F04D
:1015C800F1FE002DF0D1F4E738BD00BFF98F000817
:1015D8001FB501A905F002F828B1019B93E80300A3
:1015E80004F04BF8012005B000BD000008B501F07B
:1015F80007FE03490246002005F0D4FE012008BD7D
:10160800F98F00082DE9F04F8FB00322062302A9B5
:1016180005F02CFA002584B254EA050300F089800D
:101628000298664904F07AFF002800F08280002DB5
:1016380008BF022C08D1039805F038FA00240646A2
:101648004FEAE079002513E0002D08BF032C0BD1E9
:10165800039805F02BFA06464FEAE079049805F05E
:1016680025FA0446C51703E0002400252646A946A6
:101678000020534905F096FE03F0C6FA804600287C
:1016880000F099808189A6FB016701FB0977B8F80A
:101698000C00A4FB002300FB05339F4208BF9642C1
:1016A80045D2D8F80030D8F84800196832463B4689
:1016B80088474FF00F0A4FF0000B0AEA060A0BEAB8
:1016C800070B5AEA0B03814605D100203D493246F3
:1016D8003B4605F067FE484604F050FE10B1002076
:1016E800394900E039494A4605F05CFE01220020EC
:1016F800B61847EB0007CAE701F082FD03F092FA3B
:10170800036882469A89C06800245043002541092D
:101718000E460027A046A946B94508BFB04506D2DF
:101728002146504605AA02F00BFB044618BB0120CF
:1017380041E003F069FA83460028DDD1244905F029
:1017480031FE03F05BFA002406460025F2B20023BE
:101758009D4208BF9442EAD2E0B203F05BFA034626
:101768001A6B00201B4905F01DFE01220020A41859
:1017780045EB0005EAE79DF8343003F01002D0B2DB
:1017880030B1002014490C9A0A9B05F00BFE0BE0BF
:10179800BBF80C10079B0C9A4B43019200930F491E
:1017A800099A0A9B05F0FEFD0120002118EB0008AC
:1017B80049EB0109B0E70FB0BDE8F08FFD8F0008D5
:1017C800D18F0008059000081190000816900008B5
:1017D8001C90000826900008309000083D900008F2
:1017E80010B504F0C2FD044604490020224605F065
:1017F800D9FD2046BDE8104003F0ECBB4E90000830
:1018080038B504F0B2FD054601F0FAFC04F012FE0A
:101818000446284604F00EFEA11C081806F01AFE1D
:10182800044601F0EDFC0146204606F00FFF204675
:10183800074906F099FE2946204606F095FE2046FF
:1018480003F0F0F9C461BDE8384003F04BBC00BFB9
:101858005B98000810B504F088FD0121002203F010
:10186800E5FA0446A0B10069A16A02F053FA60B132
:1018780004F090FC211D6061A06A02F077FE20B19F
:10188800204603F000FD012010BD204603F0FBFCBC
:10189800002010BDF0B5044685B0002093492246CB
:1018A80005F080FD204601A904F098FE002800F00C
:1018B800D48000208E4905F075FD0024BDF80C3059
:1018C8000020A34208D9019B8A4953F8242005F037
:1018D80069FD601C84B2F1E7874905F063FD0024C7
:1018E800BDF80E00A04209D9029A824952F8242074
:1018F800002005F057FD611C8CB2F1E701990868DA
:101908007E4906F0ABFE044638BB7D4905F04AFD2A
:10191800BDF80C10012905D9019C606806F0AAFEE3
:1019280082B200E0224601980221406803F07EFA64
:10193800044620B90020734905F034FD8DE0BDF858
:101948000C20012A40F2C180019B00206E495A6890
:1019580005F028FD019D6D681FE0019A6B4910682C
:1019680006F07CFE054608BB694905F01BFD019899
:1019780006214068002203F059FA04460028D9D00D
:10198800BDF80C20012A40F2A080019B284661493D
:101998009A6805F007FD019DAD68284606F06AFEC5
:1019A80029460246204603F00DFE8EE000205A49E3
:1019B80005F0F8FCBDF80C30012B53D901984F49BC
:1019C800406806F04BFE00284CD1544905F0EAFC6B
:1019D800BDF80C000328ADD901994868474906F0BD
:1019E8003DFE0246002838D1019E0221306803F0EE
:1019F8001DFA064600289DD00224BDF80C200020C0
:101A0800A242019B21D953F82420454905F0CAFC7C
:101A1800019D012155F82400002203F007FA05462C
:101A2800002887D00027A96928468F4208D203F0EA
:101A3800C0FD01370146304603F053FEBFB2F2E75E
:101A4800013403F020FCA4B2D7E736491A6805F040
:101A5800A9FC304603F017FC42E001A804F0A7FEF9
:101A6800002041E0019C002022682F4905F09AFCE3
:101A7800019900220868012103F0D8F904460028DA
:101A88003FF458AF0020294905F08CFC0FE0BDF861
:101A98000E2012B3019B2649186806F0DFFDE0B955
:101AA80024492A4605F07EFC284606F007FD204614
:101AB80003F0B4FE28B9204603F04FFD0546002880
:101AC800E5D100201C4905F06DFC204603F0DBFB46
:101AD80000200C4905F066FC02E000200549E0E71B
:101AE80001A804F064FE012005B0F0BD7090000864
:101AF80086900008F98F00088F900008D39000089E
:101B08009B900008A8900008C5900008D290000893
:101B1800D5900008E5900008F1900008139100089E
:101B2800428F0008BC8F00082691000833910008F6
:101B380001920008529100083C91000870B504F029
:101B480014FC054606F096FD013006F083FC0446B9
:101B580000282ED0294606F079FD2046154906F0C2
:101B680035FD15490646002006F030FD05460020E3
:101B7800014606F02BFD114904463246002005F0C7
:101B880011FC00200E492A4605F00CFC00200D49E6
:101B9800224605F007FC3DB120460221002203F051
:101BA80045F9002003F06FFB204606F087FC012072
:101BB80070BD70BD289800087E9300085B910008EE
:101BC800659100086D91000838B504F0CEFB054C0E
:101BD8000546204605F02CFD20462946BDE838403C
:101BE80005F03FBD9801002038B504F0BEFB054C58
:101BF8000546204605F01CFD20462946BDE838402C
:101C080005F01ABD98010020F0B58DB004A908228E
:101C1800062304F02BFFC6B20EB9002036E0049864
:101C28001B4906F01BFD20B91A4905F0BBFB01252D
:101C380000E000250024731B9C4218DA0CAA2F1917
:101C480002EB870757F8200C05F03EF90CA903466C
:101C5800FF2B01EB040000F8283CDED000200E49E1
:101C680057F8202C013405F09DFBA4B2E3E79DF85A
:101C78000A109DF80B00009101909DF808209DF82E
:101C880009300648294601F009FB01200DB0F0BDD6
:101C98007B91000883910008919100084099000801
:101CA80008B501F01BFA034B1A7842F001001870CE
:101CB800012008BD940100202DE9FF41044602F0EF
:101CC800A3FF01A9054603222046062304F0CEFE01
:101CD800C0B2002D39D0012837D901981D4904F028
:101CE800CBFB30B1029804F0E1FE4FF480578046F8
:101CF80007E0019804F0DAFE8046029804F0D6FE68
:101D080007460020144905F04DFB0024BC421AD0B8
:101D18002B68A86C196804EB08020023884706465C
:101D280014F00F0002D10C4905F03CFB304604F0DA
:101D380025FB10B10020094900E00949324605F0A9
:101D480031FB0134E2E7012000E0002004B0BDE8E7
:101D5800F08100BF99910008D18F0008A091000878
:101D6800A591000837B506236946022204F07EFED5
:101D7800C0B250B1009D284601F00AFB0449044650
:101D88002A46002005F00EFB00E0044620463EBD32
:101D9800AC9100082DE9F0418CB004A90822062373
:101DA80004F064FEC6B20EB9002034E0049D1B485E
:101DB800294606F053FC044618B9194905F0F2FA09
:101DC80025460024731E9C4216DA671C0CAA02EBF7
:101DD800870858F8200C05F077F80CA90C19FF288B
:101DE800034604F8280CDFD000200E4958F8202CB0
:101DF80005F0D8FABCB2E5E79DF80A109DF80B008B
:101E0800009101909DF808209DF809300648294660
:101E180002F0DAF801200CB0BDE8F081FD8F00086F
:101E2800BA910008DC910008409900087FB50222A9
:101E3800062302A904F01AFE10F0FF0F01D10020BA
:101E4800AAE00298554906F009FC70B900205449E7
:101E580005F0A8FA062107238DE80A000422039951
:101E68000523504802F028FE33E002984E4906F058
:101E7800F5FB0028EAD002984C4906F0EFFB60B960
:101E880000204B4905F08EFA072000900421052216
:101E98000623444802F03DF81BE00298454906F045
:101EA800DDFB0028ECD00298434906F0D7FB50B977
:101EB800062207238DE80C000399042205233948DC
:101EC80001F0FFFF05E002983C4906F0C7FB054614
:101ED80008B1012060E0039802F092FF0446002850
:101EE800ADD02846364905F05DFAA36B93F82C006F
:101EF80010B12846334900E0334905F053FA002071
:101F08003249226B05F04EFA00203149E26905F0AA
:101F180049FA00202F49228B05F044FA0025208B2E
:101F2800A84211D960692E0182190CCA00202A49D9
:101F380005F038FA616900208E193289274905F0C1
:101F480031FA6B1CDDB2EAE70020254905F02AFAD0
:101F5800A26B00201E49D26805F024FAA56B002068
:101F68002A891C4905F01EFA0025A16B0B89AB4292
:101F7800AFD948682E0182190CCA0020164905F00D
:101F880011FAA16B00204B6801359E19134932895B
:101F980005F008FAEDB2E8E704B070BDE591000875
:101FA800EB9100084099000800920008039200088D
:101FB8000A9200081B9200081E9200082792000847
:101FC800319200083A9200084A9200085B92000891
:101FD80066920008789200088B920008A592000883
:101FE800B892000830B585B001A904F0F7FAD8B165
:101FF800039BB3F1011F17D102981049006806F03E
:102008002DFB0546B8B90E4905F0CCF901990868C9
:1020180004F016FF04460B492846224605F0C2F98B
:10202800204604F099F806E004F0B4F806490246A0
:10203800002005F0B7F9012005B030BDFB8F00087E
:10204800C9920008D7920008E29200081FB501A9BA
:1020580004F0C4FAB0B1BDF80C30022B12D10198CB
:10206800006804F031FF01990446486804F06EFAEC
:102078000146204603F03CFC20B101A804F097FB80
:10208800012003E001A804F092FB002004B010BD79
:1020980030B585B001A904F0A1FAE0B1BDF80C3063
:1020A800032B18D10198006804F00EFF019905462A
:1020B800486804F0FBFC019A0446906804F0F6FCBA
:1020C8002146C2B2284603F067FD20B101A804F0FA
:1020D8006EFB012003E001A804F069FB002005B0B5
:1020E80030BD00001FB501A904F078FA08B9002036
:1020F80014E0BDF80C40012CF9D1019B186804F0DC
:10210800E3FEFF28F3D004F001F905490246002058
:1021180005F048F901A804F04AFB204604B010BDB8
:10212800F98F00081FB501A904F058FA08B9002072
:1021380016E0BDF80C30022BF9D10198006804F0C4
:10214800C3FE01990446486804F0B0F901462046E8
:1021580003F002FC0028EAD001A804F028FB0120C3
:1021680004B010BD1FB501A904F038FAC8B1BDF814
:102178000C40012C14D1019B186804F0A5FE03F053
:102188005CFB00F071FE05F085FD02460B46002061
:10219800054905F007F901A804F009FB204600E00D
:1021A800002004B010BD00BFE692000810B5012061
:1021B80000F012FE044600F057FE05F06BFD0246E3
:1021C8000B460020044905F0EDF80449002022469A
:1021D800BDE8104005F0E6B8EA9200080093000850
:1021E800F8B5074608460D46164604F03BFB384648
:1021F80004F020F90446284604F01CF92418304657
:1022080004F018F92018013006F024F9044650B1FA
:10221800394606F01BFA2946204606F0A5F920465D
:10222800314606F0A1F92046F8BD00008F4B73B582
:102238009A6942F01C009861D96941F48024DC61F4
:102248009D6945F480469E619A69894E42F0040072
:1022580098619969874A41F008049C61864B00257A
:102268001D603260186840F216418842834C0CD1D8
:10227800834E84482660844B844C8549854A1C607B
:1022880011250160046815601EE01D687E4AB5F5D9
:10229800846F03D01B68B3F5856F08D17E49794DEB
:1022A80011607E4A7E482A6020602C680CE07D48D8
:1022B8007D49206011607D4C724D7D4A754B2C60C4
:1022C80032607C4C12261E60684E736843F0010031
:1022D8007060316841F4803535603368634A9D0326
:1022E800FBD500266248966201685160156845F082
:1022F800807313605D4A1668B001FBD504F06CFF6B
:1023080000F082FB6C49012000F020FC6B490120A1
:1023180000F02AFC6A49012000F034FC012000F09A
:102328003FFC012000F082FB6648E608416821F482
:102338007F454560436843F4964242604FF4E1307C
:10234800B4FBF0F4B6FBF0F104F007055E4805EBCA
:1023580001139EB24FF400614AF22C02068100F587
:10236800404481828281656825F47F636360606888
:10237800202340F49665656004F540542681534E49
:10238800A182404DA28180214022716072607360F9
:1023980028684FF47A74B0FBF4F146F8E81C2A6810
:1023A8000725B2FBF4F346F8EC3C46F8F05C484EDF
:1023B80045F25550052440F6FF714CF6CC424AF6DA
:1023C800AA233060434D7460B16032603360424E7E
:1023D800424832682968FFF703FF414C02462060F3
:1023E80020B100203F4905F0F3F802E03E4905F02E
:1023F800EFF82248056800F0D7FD044600F0E2FD3A
:10240800064600F0E5FD234638492A460190009625
:10241800002005F0DDF800F0E1FD35490246002016
:1024280005F0D6F803F048FE324805F0F3F803212A
:10243800002003F091FA0121002003F059FA00214D
:10244800012003F089FA0021022003F085FA012017
:1024580000F0D6FC022000F0D3FC00F08FFC2648E8
:102468006421264A04F02CFFFEE700BF001002405A
:102478008C000020020001005000002054000020C1
:102488002C8F00084C000020340200200024F400A7
:102498000048E80100200240001BB70000366E012A
:1024A800DC960008E196000800127A0000A24A04AF
:1024B80002C01D0000512502BD2C0008952C000803
:1024C80021270008000C01400048004000E100E01E
:1024D8000030004000000020040000201093000895
:1024E80090000020129300082693000840930008EB
:1024F800649300089801002073930008B521000830
:1025080008B502F081FB00F07BFE0349024600207B
:10251800BDE8084004F046BF7893000870B5002273
:1025280090B004460846012102F080FC054600B937
:102538002CE0002016490246234604F033FF00F041
:10254800CDFD0020134904F02DFF002695F9243015
:10255800002B1BDBFF2E19D00024284603F029F896
:102568000D280DF804000DD110A80419002104F855
:10257800401C6846062104F0C3F9013000F0B8FC9D
:102588000646E3E70134402CE7D1DFE710B070BD21
:1025980080930008BA93000838B503F0E6FE0221DC
:1025A80004F0AEF904210446002004F0A9F9054618
:1025B80003F040FFC1B2284603F0B6FE05462246A6
:1025C8002B460020054904F0EDFE28462146FFF77A
:1025D800A5FF034A034BDA6038BD00BF9C9300088F
:1025E8000400FA0500ED00E02DE9F84300220F464B
:1025F8000121044602F01AFC064614B90020BDE881
:10260800F88302F0AAFF0028F8D01B4903F086FFE0
:102618000028F3D0304603F001F9044620B93046CB
:1026280002F09BFF804610B90120BDE8F883032122
:1026380004F066F9054607EB0409D9F80430BBB184
:102648000E48294603F06AFF80B90D48294603F071
:1026580065FF58B92846395903F060FF30B128465C
:10266800D9F8049003F0E6FE4044C8470834E2E78E
:10267800404605F023FFCDE7CA930008D79300082A
:10268800DF9300081FB501A903F0A8FF70B1BDF8DA
:102698000C40012C09D1019B05491868FFF7A4FFDC
:1026A80001A804F084F8204600E0002004B010BD22
:1026B800149500082DE9F0410D460321074604F062
:1026C8001FF900240646104855F8341005EBC408D5
:1026D80003F024FFA0B9304655F8341003F01EFF6C
:1026E80058B13046D8F8044003F0A4FE3818A04783
:1026F800003018BF0120BDE8F0810134A4B2E2E740
:102708000020BDE8F08100BFD28F00080149FFF723
:10271800D1BF00BF149500082DE9F04100F080F901
:10272800254D0646012000F081F92B8803F0200092
:1027380081B200293AD02A8822F0200427043B0CD1
:102748002B80A888C4B2A7B2AF801C48214605F0E8
:102758001FF8024650BB2B2CDFF8788006D11848AA
:1027680004F0B6FD802388F8003011E098F80010D6
:102778000B061BD50D2C134B0DD1197812481A7066
:1027880042541249FFF796FF10B9114904F00AFEA6
:10279800FFF7B6FE0AE0AF80082C187802D128B1FE
:1027A800411E02E0084A411C145419703046BDE825
:1027B800F04100F03BB900BF00380140980100200B
:1027C800BE930008380200209400002014950008E9
:1027D800E4930008390200201FB501A903F0FEFEAA
:1027E80020B1019B03491868FFF764FF002005B07A
:1027F80000BD00BF1495000808B5054B4AF6AA228B
:102808001A6004F08FFD0348BDE8084004F076BF65
:10281800003000409801002070B54268448A0023C7
:102828005461802545FA03F5868A0D42856814BFF0
:102838002E616E610133082B14615461F1D170BDB2
:1028480038B5038B0C4603F0040291B2054649B132
:10285800210EFFF7E1FF2846C4F30741FFF7DCFF2D
:10286800284603E003F002039AB21AB1C4F3072121
:10287800FFF7D2FF2846E1B2BDE83840FFF7CCBFEA
:102888000368028A10B504465A61FFF7C5FF20683D
:10289800218A016110BD4268418A002370B5C4686D
:1028A800C58A516118461161A668354204D0802650
:1028B80046FA03F63043C0B20133082B5161F2D116
:1028C80070BD0368028A10B504465A61FFF7B8FF65
:1028D800208B00F008018BB213B12046FFF7DBFF15
:1028E8002046FFF7D8FF2168228A0A6110BD38B553
:1028F80003681546028A04465A61FFF7A1FF208B38
:1029080000F010018BB213B12046FFF7C4FF204638
:102918002946FFF781FF2068228A026138BD2DE928
:10292800F84316469DF8208004460D4608460321C4
:102938001F469DF8249003F00FF80321304603F05A
:102948000BF8B8F1FF0F0CD00321404603F004F850
:10295800404602F0ADFFA06008F00F0004F0EEFB67
:10296800A082FF2F0CD00421384602F0F5FF38462C
:1029780002F09EFFE06007F00F0004F0DFFBE0824A
:10298800284602F095FF2060304602F091FF606013
:1029980005F00F0004F0D2FB208206F00F0004F0CF
:1029A800CDFB00216082A4F81890304602F0A0FF09
:1029B80028460121BDE8F84302F09ABF70477047E6
:1029C80070470000022810B516D8282358430B4931
:1029D80000220B180A520A480A49D860586114465E
:1029E8005A809A80DA801A815A819A61DA6183F86A
:1029F80024201962012010BD002010BD3C020020D7
:102A0800B76F0008D18F000808B50020FFF7DAFF7C
:102A18000120FFF7D7FF0220BDE80840FFF7D2BF2B
:102A2800014B1878704700BFB4020020114B2822D0
:102A380018705043104B1A18195A5088198058802A
:102A48009188D0889980D8801189508919815881B6
:102A5800D1681069D96018615169906959619861A4
:102A6800D16992F82400126AD96183F824001A62A5
:102A7800704700BFB40200203C020020022813D88F
:102A88000D4B282202FB003042896AB1013A42818B
:102A9800C36902899B5C01328B80C38892FBF3F186
:102AA80003FB1122028170478B8923F08000020406
:102AB800130C8B81704700BF3C02002007B5002330
:102AC80002288DF804108DF8053006D8034928220D
:102AD80002FB0010C36801A898470EBD3C02002005
:102AE800022830B513D8282444430A4D2B19988856
:102AF80070B10138598882B29A8089182A5B9B691B
:102B080091FBF2F002FB10118AB2985C30BD0020F4
:102B180030BD00BF3C020020022830B512D828235F
:102B28005843094C23189A88205A82420AD25C8852
:102B3800A41894FBF0F500FB154001329A809B69BC
:102B480080B2195430BD00BF3C020020022806D8CC
:102B5800044B282202FB0030C1600120704700208E
:102B6800704700BF3C020020022806D8044B2822E8
:102B780002FB00300161012070470020704700BF50
:102B88003C020020022806D8044B282202FB003011
:102B98004161012070470020704700BF3C020020BF
:102BA800054B282202FB003090F8241041F0200247
:102BB80080F82420704700BF3C0200202DE9F04136
:102BC8001C4F28230D4603FB0071044601F1200821
:102BD8002846096A03F0D8FBC6B298F8040000F04A
:102BE8000202D3B223B11EB920462946FFF766FF79
:102BF800282101FB047797F8240000F00402D3B2DF
:102C0800204623B1082D02D1FFF76AFF02E02946CA
:102C1800FFF782FF0748282101FB040463693BB1E1
:102C280094F8242002F00801C8B200B106B1984710
:102C3800BDE8F0813C020020114B10B51A8802F063
:102C4800200081B271B10F4C94F84C2002F02000A2
:102C5800C1B211B1E46BA04704E09B880120D9B24E
:102C6800FFF7ACFF06480288044602F080018BB2E9
:102C78001BB101200449FFF701FF0020208010BD8F
:102C8800003801403C020020004400404FF47A73B1
:102C9800074A118801F0800189B211B190800120A2
:102CA8007047013B9BB2002BF2D11846704700BF1A
:102CB80000380140013810F8013F43B1054A118836
:102CC80001F0800189B20029F8D09380F3E7012050
:102CD800704700BF00380140114B10B51A8802F048
:102CE800200081B271B10F4C94F8742002F02000DA
:102CF800C1B211B1646EA04704E09B880220D9B22A
:102D0800FFF75CFF064C228802F0800081B219B1FF
:102D180002202146FFF7B2FE0023238010BD00BF2A
:102D2800004800403C020020014B1888704700BF53
:102D3800B6020020024B1A6800221A60704700BFD2
:102D48000024014006280C4B04D8D96A0138052311
:102D580058430AE00C284FF0050203D85043196B7A
:102D6800233802E05043596B413821FA00F0C2B2CF
:102D780002F01F00704700BF002401400C4B9A6905
:102D8800A3F56C4142F400700A4A986100238B60F5
:102D98000B604B60CB600B61CB620B634B638A604B
:102DA80088684207FCD4044B01211980704700BF92
:102DB8000010024005001E00B6020020002305494D
:102DC800DAB2595C814203D00133122BF7D10022C9
:102DD80010467047E696000808B5FFF7EFFF074B67
:102DE800002258631A60986840F0010199601A68D7
:102DF8009107FCD5014BD86C80B208BD0024014076
:102E080038B5FFF7DBFF01240546E0B2FFF79AFF6C
:102E180028B10134A4B2112CF7D1002038BD681CA8
:102E2800062CC0B20F4B08D8013C05214C4300FAD0
:102E380004F0DA6A1043D86212E00C2C4FF0050255
:102E480007D86243233A00FA02F0196B0843186363
:102E580006E06243413A00FA02F0596B08435863AE
:102E6800012038BD0024014008B504F0C7FE04F075
:102E780011FF05A3D3E9002305F0C0F804F026FFED
:102E880008BD00BFAFF300806666666666664A3FA7
:102E9800144B9842144B11D91A6D120604D5134AD3
:102EA8005A6402F188325A641A6D42F001021A65B6
:102EB80001800D4BD86CC107FBD410E01A691206CB
:102EC80004D50A4A5A6002F188325A601A6942F0F7
:102ED80001021A6101800448C168CB07FBD40120B4
:102EE800704700BFFFFF0708002002402301674525
:102EF80070B590B0694604F043F89DF803309DF82A
:102F08000060052B47D8DFE803F0050346462E3658
:102F1800FF2041E09DF802409DF801501F4904EB55
:102F280005251F4C0D60237843B91E4A4FF6FF71E3
:102F380010682818FFF7ACFF012121700024B44263
:102F480029D2184B10A91A680B19A81813F83C1C99
:102F580013F83B2C001941EA0221FFF799FFD8B179
:102F68000234A4B2EBE79DF804309DF805001A0678
:102F780042EA00410DE09DF805209DF80400110487
:102F88009DF8073041EA00609DF80620184340EAA2
:102F9800022104480160012010B070BDB802002071
:102FA800BC020020C0020020054B188881B2B1F590
:102FB800007F94BF4FF480604FF40060704700BFFB
:102FC800E0F7FF1F014B1888704700BFE0F7FF1FAD
:102FD800014B1888704700BFE2F7FF1F0E4B1868B7
:102FE8000105080DA0F58062B2F5807F13D90B4B5F
:102FF800188840280DD080280BD0A0F5807140F2A9
:10300800144340F21242B1F5807F8CBF1046184637
:1030180070474FF482607047002004E0E0F7FF1F1C
:10302800294B10B51A88002391B2B1F5007F34BF3F
:103038004FF480724FF40072011F51F8044FB4F13D
:10304800FF3F03D101339BB29342F6D3934201D1A0
:10305800012010BD1D4C1E4BA0421E491E4C13D909
:103068005C645964196D41F0020119655865196D60
:1030780041F040011965164BD96CC907FBD4196D8D
:1030880021F04201196512E05C605960196941F04C
:10309800020119615861196941F0400119610C4B2D
:1030A800D968C907FBD4196921F0420119610023C5
:1030B80050F82310013104D1013399B29142F7D36A
:1030C800C6E7002010BD00BFE0F7FF1FFFFF07089D
:1030D80000200240AB89EFCD23016745F8B5134BBB
:1030E8001A881F8890B2B0F5007F0BD3C7F34E043F
:1030F800A51EAFB24FF40066042404FB06F303F1E7
:10310800006505E0B91E8FB24FF480660824F4E725
:10311800BC4209D206484AF6AA2202602846FFF7AE
:103128007FFF0134AD19F3E70120F8BDE0F7FF1F79
:103138000030004010B5044604F028F940F2164368
:1031480098420CBF014B024B185D10BDF896000861
:103158000A9700083F284FF00102094B04D940386C
:1031680002FA00F29A6070471F2804D9203802FA40
:1031780000F25A60704702FA00F01860704700BF0A
:1031880000E100E01C4B70B51C6805460CB9002036
:1031980070BDE06A08B105F091F9CDB9206B03F074
:1031A80049F9861C304605F055F92946E062324651
:1031B80005F042FAE16A0029E9D0206B0028E6D040
:1031C8000E4803F094FB206BE16A03F06FFB11E0FB
:1031D800284603F02FF9461C304605F03BF900213C
:1031E800E062324605F028FAE16A0029CFD0284685
:1031F80003F07DFB012070BDCC0200205B98000825
:10320800054B186828B1C06A0449002808BF084659
:1032180070470248704700BFCC0200205B98000846
:10322800F8B51C4B044618781B4D48B3296839B3C8
:103238000026184F184D3A78964213D22A68216B07
:1032480052F82630B700186B05F008FA40B929681B
:10325800C859844212D005F031F92868C4510DE0EC
:103268000136E6E7531C2868990005F067F980B134
:103278003978286040F82140481C38700120F8BD92
:10328800042005F0E7F8286018B1024A046001201C
:103298001070F8BDC8020020C40200200EB4FFB5AB
:1032A80004464C209DF8247005F0D4F80646002802
:1032B8003CD00AAB00930393616A002200F14800F6
:1032C80000238847314641F8044BE26AB06C9047C6
:1032D80027B13068416BB06C88471FE00024002597
:1032E800B06887421AD23268134B4AF6AA2119608D
:1032F800B06C91682B462246884741F211139842D8
:1033080005D030682246816B2B46B06C8847B2895D
:103318000023A41845EB03050137E1E7B06C05F07D
:10332800CDF8304605F0CAF80120FFE704B0BDE843
:10333800F04003B0704700BF00300040836B10B509
:103348000446586808B105F0B9F8A06B006A08B1DE
:1033580005F0B4F8A16BC86908B105F0AFF8A06B27
:1033680008B105F0ABF8206B08B105F0A7F8E06AE2
:1033780008B105F0A3F8606908B105F09FF8A06CE2
:1033880008B105F09BF8204605F098F8012010BD1B
:103398002B4B2DE9F047D3F8009082460024294DA5
:1033A800287884422AD2DFF8A080A700D8F8001035
:1033B80051F824205146106B05F050F90646D8B94B
:1033C8002B785D1EA80005F045F80546002834D086
:1033D800D8F80000C159494504D1194A3046166049
:1033E800FFF7D0FE184B1868C059FFF7A7FF15491B
:1033F8000022087813460DE00134D0E7002519E0D3
:10340800A34206D01049096851F8231045F8221044
:10341800013201338342F3D30B4C206805F04EF898
:10342800084A1378581EC1B2117009B1256000E02E
:1034380021600125E8B2BDE8F087BDE8F08700BF4C
:10344800CC020020C8020020C40200200368828841
:103458000B608A80836802698B600A61C36842696D
:10346800CB604A618369C26990F820008B61CA61A8
:1034780081F8200070470B7830B51C02048111F8E0
:10348800012F002314430022C0E9002304813024C3
:1034980011F8015FD0E9002305FA04F5083C2A4336
:1034A80043EAE57314F1080FC0E90023F0D130BDF9
:1034B800038910B542680468180A4B700870002325
:1034C8000231C8188471013B240A44EA0264120AD2
:1034D800D81DF6D110BD8C4619468389F0B5981EC3
:1034E800DCF80840B2FBF0F5A54244D80024264693
:1034F800AE4207D3ADB16843B2FBF0F700FB17202B
:10350800821C0FE0BCF80470BC42F3D2DCF80070F7
:1035180007EB04173F89F719AF42EBD801343E4651
:10352800E6E70232AE1B5E4390B2DCF8002002EB05
:103538000415D5E90045A41986B245F10005002710
:10354800A419BCF8046045EB0705771E02EB0712C7
:10355800B2F808C0C1E9004503FB0CFCD2E90067DA
:1035680016EB0C0647EBEC77AF4208BFA64202D336
:10357800191A88B2F0BD4FF0FF324FF0FF33C1E99E
:1035880000230020F0BD2DE9F04F0F46898887B051
:10359800164619B1B2F8048000231FE000205EE04F
:1035A8003D6805EB0914D4E900AB03950294DDE905
:1035B80004455D4508BF54450BD1029C25891489F3
:1035C8002D19039C158104EB0C0A00250024CAE977
:1035D800004509F101098945E2D30133434515D274
:1035E80034684FEA031C04EB0C0204681589B4F82C
:1035F8000C9009FB05F9D2E9004514EB090A45EBE3
:10360800E97BCDE904AB4FF00009E4E70024BB886F
:103618009C421FD23B6825015819D0E9002352EA81
:10362800030A15D0B18830684B1C190104F086FFD5
:103638000028B3D03060B1883A6800EB0110551902
:10364800D5E90023C0E900232B8901310381B1802A
:103658000134DCE7B068BA688118B160012007B0AE
:10366800BDE8F08F2DE9F04F0368074698890026DA
:1036780085B08A460E6041090191B046B146FA68A4
:10368800914533D24FEA481B019B98452AD2391DF0
:1036980038685A4602ABFFF71EFFDDE90245B5F16F
:1036A800FF3F08BFB4F1FF3F1FD06FF001000219C0
:1036B80038684FF0FF3141EB05030168CDE902237B
:1036C8000969806C884728B9DAF80020531CCAF8C1
:1036D800003002E0013008BF013608F101080BF1A3
:1036E800200BD1E709F10109C9E70026304605B0EA
:1036F800BDE8F08F03682DE9F04F9A890746C06846
:1037080085B050438B46002641090191B046019B84
:1037180098450FD04FEA4819391D38684A4602AB18
:10372800FFF7D9FEDDE90245B5F1FF3F08BFB4F167
:10373800FF3F02D14FF0000A1CE06FF0010212199E
:103748004FF0FF3040EB05033868CDE902230168EC
:10375800806C0969884748B1013008D1002E08BF3C
:10376800CA460136F6B25E4501D103E0064608F1C5
:103778000108CCE7504605B0BDE8F08F2DE9F04FC1
:10378800064685B0D0698946904602F053FE431E2E
:10379800FE2B074600F2B6803068D8F80C20016886
:1037A80000924C69D9E90023806CA047D9E900232D
:1037B80035680021286804240091D0F804C0A86C5A
:1037C8000025121943EB0503E047D9E900453368A2
:1037D80005201A680021241845EB0105D2F814A029
:1037E800D3F848B002F0D6FC22462B460090584643
:1037F800D047D9E90023316898F82040086804F0D8
:1038080013050095D0F804C0886C092100245218CB
:1038180043EB0403E047D9E900233568F9B2286887
:103828000A240091D0F804C0A86C0025121943EBB3
:103838000503E047D9E90023152F30684FF00B0442
:103848004FF0000505D8D8F81C1006688DE88200EE
:1038580052E0D8F81C10D0F800E04FF0150A00919B
:10386800CDF804A01219DEF81C10806C43EB050398
:10387800884709F108094FF0010B33685FFA8BF0AC
:103888001A6800904946D2F804C00422D1E90045DC
:10389800986C0023121943EB05030391E047CAEB28
:1038A800070EBEF11B0F09F1080930684FF0050437
:1038B8004FF00005039917D9D8F81C10D0F800E08C
:1038C800514459E9022300911B210191121943EB3C
:1038D8000503DEF81C10806C0AF11B0A8847BA45FC
:1038E8000BF1010BC9D30DE0D1E90023D8F81C1066
:1038F800066851448DE802401219F169806C43EB67
:1039080005038847012005B0BDE8F08F73B51D4653
:1039180003681446FE211A6800915168042206467D
:10392800986C0023121943EB0503884730689DF80B
:10393800181002680091516805220023121943EB00
:103948000503806C88473068079A0168009208224E
:103958000023121943EB05034969806C884701204D
:103968007CBD2DE9F04F98461368824698898BB044
:103978008B464109144607910026228996423BD27C
:103988004FEA06190025636803EB090001898D4297
:1039980030D20127079A97422AD220686368818922
:1039A80003EB090E6943DEE90023521843F10003D3
:1039B8007901521843F10003CDE9042308A9C8E9A5
:1039C80000230368052200910192D3F818C0806C87
:1039D800DDE904230391E0470121039802F0A4FCE8
:1039E80050459DF8243001D15B450DD00137D1E712
:1039F8000135C8E70136C0E74FF0FF324FF0FF331B
:103A0800C8E90023002000E001200BB0BDE8F08FDA
:103A180037B515461C46FFF7A4FF80B12B68069AF8
:103A28001B20196830CC009201900522986C002365
:103A3800121943EB050389698847012005E04FF017
:103A4800FF324FF0FF33C4E900233EBDF0B58DB01F
:103A58000B46164605AA0092FE211A4602ABFFF74E
:103A6800D7FF20B39DF81440601EC1B2FD290DD9BF
:103A78009DF81540651EEFB2FD2F07D99DF8163049
:103A88005C1EE2B2FD2A94BF1C4601240DF1170505
:103A98000DF12F070121284602F046FC411ECB1CE0
:103AA80001D8706106E00435BD42F3D100E001247D
:103AB8000020706120460DB0F0BD2DE9F04F8FB0A9
:103AC800894607AE1546009600214A4604AB824651
:103AD800FFF79EFF08B9002053E00121304602F0AD
:103AE80023FC9DF820309DF82140286185F820307E
:103AF800204604F0AFFCE8610028ECD0152C06F154
:103B0800060103D8224604F089FD1FE0152204F0BF
:103B180085FD04F1060B1B209BFBF0F202F1010668
:103B28005FFA86FB152701260AE0C019614642465E
:103B380004F074FDB8F11B0F08D91B37FFB201362A
:103B4800C7EB04085E455FFA88F804D3E9690020EA
:103B58000855012015E00DF11C0CCDF800C004AB90
:103B68005046F1B24A46CDF80CC0FFF751FF034664
:103B7800DDF80CC0E869002BD7D1039304F09EFC54
:103B8800A9E70FB0BDE8F08F2DE9D04F92B00290B1
:103B9800102003919346994604F05CFC064608B948
:103BA800002048E04FF0000A5746D046039B98454E
:103BB8000AD20BA808F121010090C9B202985A460E
:103BC80004ABFFF725FF38B9C9F80060A9F80470FD
:103BD800C9F808A001202EE000240BAA111906A894
:103BE800FFF749FCDDE906016FF001024FF6FF73AC
:103BF8008B4208BF82421BD3BDF82030ABB19A4438
:103C08000AF101013046090104F098FC0137FFB2BE
:103C180006460028C4D07A1EBDF8203000EB0210FA
:103C28000381DDE90623C0E9002309341B2CD4D124
:103C380008F10108BAE712B0BDE8D08F431E03337C
:103C480070B504460E46154601D9002070BDFFF731
:103C580034FF0028F9D0314620462A46FFF7F6FE01
:103C680001460028F1D0204632462B46FFF78CFF4C
:103C7800003018BF012070BD1FB5002102AC0291B1
:103C88008DF80C100168009405240194C969806CB2
:103C9800884704B010BD73B506460D46002430466B
:103CA800E1B22A466B46FFF75CFE48B12868DDE9B9
:103CB80000230134FFF7E0FF212CF0D1002000E0C1
:103CC80001207CBD13B50C462246FE216B46FFF74A
:103CD80048FE38B12068DDE90023FFF7CDFF00304A
:103CE80018BF01201CBD73B506460D462124304679
:103CF800E1B22A466B46FFF734FE48B12868DDE991
:103D080000230134FFF7B8FFE82CF0D1002000E0D1
:103D180001207CBD38B505460C46FFF7BCFF08B945
:103D2800002038BD28462146FFF7DDFF0028F7D0E0
:103D380028462146FFF7C6FF003018BF012038BDCE
:103D48002DE9F04F814687B0884692464FF0000B28
:103D5800D9F80000C3899B450DD209F104014246F8
:103D680004ABFFF7B8FBDDE90467B7F1FF3F08BF15
:103D7800B6F1FF3F02D14FF000083BE0D9F8000050
:103D88006FF00104A4194FF0FF3545EB07050268F1
:103D9800052102AE0096019191692B462246CDE994
:103DA8000445806C88470121304602F0BDFA431E65
:103DB800033308F12008044619D89DF80C20B2B93D
:103DC80049465246FFF73AFF0028D4D09AF8200017
:103DD80000F01001CBB21BB10022CAF8142009E090
:103DE800204649465246FFF731FE18B9F4E70BF171
:103DF800010BADE7404607B0BDE8F08F0EB4F0B553
:103E0800B4B0054615AF3AA804AB08AE21AC16937A
:103E1800039000230090696A00222F97269633A802
:103E28008847211DEA6A21952F971696339890475F
:103E3800BDF890302F995809ADF892000C604C6885
:103E480000220023C4E90023012323811322002434
:103E5800CB600B81CC610C6281F824208C6181F8E5
:103E68002C302398844223D2BDF890202199002336
:103E780062438968339888474BF6BB33984201D030
:103E88000134EEE72F98002241680023C1E900239E
:103E9800BDF89220012AF3D020210CAAFFF750FF89
:103EA8000028EDD01398002104F0D8FB0028E7D1B2
:103EB8004FF0FF304FF0FF3134B0BDE8F04003B0B1
:103EC80070470EB4FFB509AE56F8041B07463246D4
:103ED8000396FFF793FF04460D46B5F1FF3F08BF71
:103EE800B4F1FF3F0FD0009603960026796A0022AE
:103EF8000023304688470096F968304622462B460C
:103F08008847012000E0002004B0BDE8F04003B07D
:103F180070470FB430B50420B1B0349D04F09AFA5C
:103F280000284AD035AB00930393696A0022002326
:103F38002FA888471DAC04AA11A8211D2B90129206
:103F4800EB6A1D952F9898472B9900220C60BDF8B5
:103F58008040002360094C68ADF88200C4E9002362
:103F68000123238113220024CB600B81CC610C62D6
:103F780081F824208C6181F82C301F998C421CD246
:103F88001D98BDF880200023816862432F988847D8
:103F98004BF6BB3398420ED12B9800224168002380
:103FA800C1E90023BDF88220012A04D020210DEBAD
:103FB8000102FFF7C5FE0134DFE7002031B0BDE89C
:103FC800304004B0704700000EB42DE9F0470446B5
:103FD80089B04C20119F04F03DFA064608B9002626
:103FE800C0E0302004F036FA0546B0630028F6D069
:103FF800102004F02FFAB36B686058680028EED0E0
:1040080012A90091656A0023002206F14800039175
:10401800A847314641F8044BE26AB06C9047B06B50
:10402800B48941684FF001086309002500244FF066
:104038001309F3810660C1E90045A1F8088080F8FA
:104048002490B36B002283F82C80C0F80C80A0F871
:104058000880C2610262B06B9A618262002F7FD1D0
:10406800102004F0F7F98246706170B1404802F000
:10407800E1F9013004F0EEF93D49306304F0E6FA65
:10408800D6F830A0BAF1000F04D13046FFF756F940
:10409800564667E072695046C2E90045A2F80880B2
:1040A800C6F81C80A6F81880F76286F8349003F0EA
:1040B80075F8B762306277643046FFF7B1F82D497A
:1040C8000B78012B4ED1384647E00135B1688D4257
:1040D80085D23368B28999686A430023B06C8847EF
:1040E8004BF6BB329042F0D1B06B002341680022FE
:1040F800C1E90023F389012BE7D0202106F114023E
:10410800FFF71EFE0028E0D0306B394604F0A6FA0F
:1041180080460028D9D1306804AC0C220094019262
:10412800816902220023B06C8847214612488DF825
:104138001C8004F093FA04460028C6D17064B0626B
:10414800F062384603F02AF830623046FFF768F824
:10415800084B1878012805D12046FFF713F801E02D
:104168001546B3E7304609B0BDE8F04703B07047DD
:104178001C970008C8020020080000202DE9F84319
:1041880014461D46064610B9002400252DE0B0F857
:104198000C904FF00008104619464A46434604F072
:1041A8008FF8294607464A462046434604F088F8D1
:1041B80052EA030118BF0137002F08BF0127002466
:1041C8000025B3689F42DFD23068224681682B46BB
:1041D800B06C88474FF6FF72904206D0B089002332
:1041E800241845EB03050137EBE720462946BDE8CF
:1041F800F883F8B506460F4600250124B3689C42AB
:1042080011D2B289002362433046FFF7B7FF024656
:104218000B4652EA030101D0013500E00025BD42FA
:1042280003D00134EAE70022002310461946F8BDFE
:104238002DE9F04FD0F8008093460023B8F80C2001
:104248008BB0ABF80430CBF80830102089460992BF
:1042580004F000F9CBF80000002872D000220023F7
:10426800CDE9042348460021DDE904238B4208BF39
:10427800824265D20126DDE904230027B61847EB00
:1042880003073B46324604F01BF88246029003912E
:1042980040465146FFF7ADFF04460D4654EA050374
:1042A8004BD0BBF80410DBF800004B1C190104F0DC
:1042B80045F9064628B9DBF8000004F0FFF8304657
:1042C8003FE0CBF80000099FBBF80400BDF80820C8
:1042D80006EB0016B9B20023C6E900453281069103
:1042E800079300260027DDE902018F4208BF8642B6
:1042F80015D0D8F800104AF6AA2200922B4622467A
:10430800C968D8F84800884701200023361847EBC9
:104318000307DDE90623A41845EB0305E3E7BBF82B
:104328000420DBF80830511C03EB0A00ABF804103A
:10433800CBF80800CAEB090994E7CDE9046791E7CF
:1043480001200BB0BDE8F08F2DE9F04FC16899B09E
:10435800036801310FAA0646B3F80CB0FFF768FFEF
:1043680068B34FEA5B1B4FF001090BF1FF3B4F4667
:104378004FF0000827E030686FF001041219016857
:104388004FF0FF3543EB0503CDE902230969806C43
:104398008847421ED01C1CD901370AF1200A5F4504
:1043A8000FD2311D524602AB3068FFF794F8DDE9B1
:1043B8000223B3F1FF3F08BFB2F1FF3FDBD100207A
:1043C80060E008F10108F068804547D24FEA471AD3
:1043D800E5E74FEA491204AB30680FA9FFF77BF80D
:1043E800DDE90423B3F1FF3F08BFB2F1FF3F3068B6
:1043F80004D1426C42F400734364E0E7A41845EB2F
:104408000305CDE90445036807AC20250094019510
:10441800D3F818C0806CDDE90223E047DDE9042306
:10442800306809F1010901688DE83000CC69806CB9
:10443800A047DDE9020135680023AC89224603F074
:104448003FFFA0FB042301FB0433002029680090F0
:10445800CDE902234969A86C88479DE7119A9045E0
:1044680001D15F45ABD0706804F028F81199BDF808
:1044780040000F9BF160308173603046311D00F0C1
:10448800E8FA012019B0BDE8F08F00002DE9F04FDF
:10449800948887B080468B469246002C60D0324B79
:1044A8004AF6AA221A6002A9FFF7DCF86408013468
:1044B800A04205460ED2029810B14046FFF744FFCD
:1044C80002996D18A54205D24046012108F104025F
:1044D80000F0B7FA0026B1463746BAF804209145ED
:1044E8003ED2DAF8005003A905EB0910FEF7E0FF09
:1044F80097B9D8F8000006F121040168E5B20BEB82
:10450800C6030424D3E9002300950025121949683D
:10451800806C43EB05038847092101FB07F4D8F8B1
:1045280000E00522DEF8000000230BEBC605121997
:104538000DF10C0CD5E9004543F10003CDF800C09E
:1045480001911219C16943EB0503DEF84800884759
:1045580017B10136002700E0012709F10109BCE77E
:10456800002007B0BDE8F08F003000402DE9F04F83
:1045780003680D46596C8DB011F4007B06465BD17B
:10458800E86901F057FF0446E86902F007FE804633
:1045980000F1FF30C31C4FD8E7B2B5F80490BA1D3C
:1045A8001B24032092FBF4F3B9FBF0F2591C5FFAC9
:1045B80082F9CFB209F1020A07EB0A045FFA84FA1A
:1045C8000AFA00F003F046FF0446002834D005AB91
:1045D800009340465946324602ABFFF719FA58BBDA
:1045E800404631465246234600F02AF808B3304682
:1045F80021462A46FFF7C2F8D8B1A98829B1304622
:1046080004EBC7012A46FFF741FF09F101095FFAE8
:1046180089F06A693F180090019204EBC707D7E94F
:1046280000233046FFF772F9204603F047FF0120C8
:1046380003E0204603F042FF00200DB0BDE8F08FF4
:104648002DE9F04F0F688BB005937B6C04909B05A8
:104658008846924601D50020A0E0084607A9FFF742
:1046680001F8504502D30026B34685E00799401863
:10467800504513D34046FFF767FE044630B1404625
:1046880007A9FEF7EFFF5045E5D3ECE7D8F8280077
:10469800002108F1040200F0D4F9DCE7D8F828007A
:1046A80050BB01213846FFF7A4FD02460B46B3F183
:1046B800FF3F08BFB2F1FF3FCDE90823CBD03C68EC
:1046C8004BF6BB350095E168B86C8847354A3B68BE
:1046D8000C20009201900224D9690025DDE9082305
:1046E8001219B86C43EB05038847D8F8280008F17D
:1046F8000401FFF73BFF04E0002108F1040200F089
:10470800A0F90028BBD1A6E7039BD8F8000003EB6B
:104718004C1208F1040108ABCDF808C0FEF7DBFE27
:10472800DDE90823B3F1FF3F08BFB2F1FF3F92D0A4
:104738006FF00104A41805994FF0FF3545EB030508
:10474800049B01EBC9023868C2E90045009341693E
:10475800CDE90845B86C22462B468847DDF8089015
:1047680009F1010CCBEB0A0006EB0C0284455FFA59
:1047780082F9C9D3D3464E46D3450ED2CBEB0A03B2
:104788004046D9B2FEF7B6FF039010B14FF0000CC7
:10479800E8E70BF1010BB146EDE701200BB0BDE8EE
:1047A800F08F00BF080000202DE9F043036807469A
:1047B800586C8DB010F400740E4640F0AC8005A91A
:1047C8000091F068FE213A4602ABFFF721F9002874
:1047D80000F088809DF81430B5885A1ED0B2FD28A4
:1047E8000FD99DF815305C1EE1B2FD290BD99DF853
:1047F80016305A1ED0B2FD2898BF4FF0020E22D8AC
:1048080003E0A64601E04FF0010E0324B5FBF4F5E2
:10481800691CCAB2934216D0D7F800C005200024FC
:10482800DDE90223121843EB0403DCF800800025BD
:104838005FFA8EF400951219D8F80410DCF84800D5
:1048480043EB05038847002400254FF000080DF1CD
:1048580017000121001901F067FD421CA1461CD078
:10486800002831D0726990422ED0D7F800E0082095
:10487800DDE902230021121843EB0103DEF800C032
:10488800002000901219DCF81410DEF8480043EB01
:10489800050388474FF0010816E0B8F1000F13D060
:1048A8003C680820DDE90223002112187069256898
:1048B80043EB0103009012EB090243EBE9736969CA
:1048C800A06C8847012027E004220023A41845EBA8
:1048D8000305002D08BF182CB9D13868DDE902237B
:1048E800FFF7CAF9F0683946012202ABFFF7A8FEC4
:1048F80090B1B0880321B0FBF1F2531C7169D8B2B2
:10490800009001913846DDE90223FEF7FFFF0030F1
:1049180018BF012000E000200DB0BDE8F0832DE9AC
:10492800F04F0646D3B024208846174603F092FD80
:10493800079008B9002081E000200990ADF8200018
:104948008146C1454AD209F10102B8FBF2FA306842
:1049580051460392FFF74DFC0DF5A47B50EA010286
:104968006BE94E010398EBD0BDF8201007984B1C5B
:10497800190103F0E3FD07900028DBD0BDF82040C3
:10498800DBE9002300EB0410C0E90023A0F808A02D
:104998000024544517D03168BDF82050B1F80CE018
:1049A800079B0EFB04FC086803EB05124AF6AA25D0
:1049B8000CCA009512EB0C02C56843F10003886C21
:1049C800A8470134E5E7BDF8201009984B1C2218C8
:1049D800ADF820300992C4EB0808B2E73368586C88
:1049E8008105A7D4304607A93A46FEF7CCFD212415
:1049F800F868E1B2324604ABFEF7B3FFA8B9BA884B
:104A0800F86851084B1CDAB2314610ABFFF718FEB4
:104A180000288FD010A93A463046FFF737FD3046B8
:104A28003946FFF7C1FE012008E03068DDE90423BC
:104A38000134FFF721F9E82CDAD1E0E753B0BDE8FB
:104A4800F08F03685B6C9B0501D4FFF768BF0020FB
:104A58007047F8B503680446586C0E46820501D5C0
:104A68000020F8BD89884A08D00003F0F3FC054609
:104A78000028F5D02789A16A2069FFF734F90320B7
:104A8800B7FBF0F300FB13715A18571CFAB22069F0
:104A9800A16A2B46FFF7D4FD074618B9284603F04C
:104AA8000DFDDDE729463246A06AFFF7EFFC2846F0
:104AB80003F004FD0120F8BD0EB42DE9FF430B9C63
:104AC8000546204601F0B6FC013003F0C3FC07465A
:104AD80008B9002489E0214603F0B8FD4C2003F012
:104AE800B9FC04460028F4D0302003F0B3FC064695
:104AF800A0630028EDD0102003F0ACFCA36B70601D
:104B080058680028E5D0102003F0A4FC6061002854
:104B1800DFD00CA9009100236E6A002204F148003E
:104B28000391B047214641F8045BEA6AA06C9047BC
:104B3800A06BA58941686B0913220125E3810460F4
:104B48000D8180F82420A36B002683F82C50C560C3
:104B58000581C6610662A06B9E61D0F80480294673
:104B68002046FFF746FBC8E90001A16B4A680CCA5A
:104B7800B3F1FF3F08BFB2F1FF3FAAD021684BF65F
:104B8800BB300090C968A06C8847A36B1A49586865
:104B980022680C23D0E9008901930091D16902228F
:104BA800002312EB080243EB0903A06C8847384640
:104BB80002F0F4FAA662E662666404F11406206262
:104BC8002763E5612583A06B29463246FFF730FB52
:104BD80000283FF47EAFA06B3146FFF7C7FC2046A4
:104BE800FEF71EFB00283FF474AF204604B0BDE872
:104BF800F04303B0704700BF08000020014B18784D
:104C0800704700BFC8020020014B1868704700BFFA
:104C1800CC020020024B196851F82000704700BFF1
:104C2800C40200202DE9F047804601F003FC044649
:104C3800023003F00FFC074608B900258FE0414613
:104C480003F004FD3B1913F8012C2F2A03D02F2061
:104C5800002138555970302003F0FCFB0546002828
:104C6800EBD0302003F0F6FB044618B9284603F0D1
:104C780025FC73E038463B4903F0A8FC3A4F8246CE
:104C880097F8009000274F450AD2F8B2FFF7C2FF05
:104C980051460646006B03F0E1FC08B10137F2E724
:104CA8004F45CAD0102003F0D5FB68600028C4D057
:104CB800B36B2946181D41F8046BFEF7C7FBB26BAE
:104CC80068685168D1E90023C0E900230123038102
:104CD80041462F2001F03EFBB0F101083FD00027EC
:104CE8000020204903F072FC8146002836D030208D
:104CF80003F0B0FB044600289FD0C0F820900020A5
:104D0800E061484602F04AFA04F1040A294652468C
:104D18008146FEF793FF78B9484629465246FEF782
:104D2800CCFE002889D094F8240000F01001CAB203
:104D3800002A82D1013706E094F82410013701F0E7
:104D48001002D3B213B9474509D076E74745A562A3
:104D5800C4F8109026602546C2D300E025462846B0
:104D6800BDE8F0875B980008C802002038B5054602
:104D7800302003F06FFB0446302003F06BFB0CB9C6
:104D8800002038BD0028FBD0284601F0EEFA037851
:104D980005462F2B1CD001F04DFB0446FEF730FAD8
:104DA80001F048FBA11C081803F054FB0446002836
:104DB800E6D0FEF725FA0146204603F047FC2046D8
:104DC8000E4903F0D1FB2046294603F0CDFB0AE04B
:104DD80001F030FB013003F03DFB04460028CFD042
:104DE800294603F033FC0549204603F0BDFB204665
:104DF800FFF718FF003018BF012038BD5B98000886
:104E080070B502F0CBF9084B06461D780024AC4279
:104E180007D2E0B2FFF7FEFE016AB14202D00134C8
:104E2800F5E7002070BD00BFC80200202DE9F0475B
:104E38008AB08946904601F098FA054603F01AFCB4
:104E4800013003F007FB064608B9002492E0294622
:104E580003F0FCFB342003F0FDFA04460028F4D0EC
:104E68002D782F2D1AD106F1010A5046294603F054
:104E780088FB07460028E8D0002303705046FFF758
:104E8800BFFF294620603D70304603F087FB0028AD
:104E9800DBD000F8015B2062E66112E0374B18684E
:104EA80020600028D1D02662C06A03F0E3FB0130FD
:104EB80003F0D0FAE0610028C7D02268D16A03F075
:104EC800C5FBE069FFF7AEFE0026A062A661206A76
:104ED80002F064F909F0130509F00609B9F1020FA7
:104EE800206184F824501FD104AD00953146A26A90
:104EF80002ABFEF78DFD18B12069A16AFEF70AFF23
:104F08002068251D8189A06AB8FBF1F2511C2A4648
:104F1800FFF78EF9002898D0A06A2946FFF726FBEC
:104F2800002892D000230AE004F10405B9F1060F25
:104F3800A16A2A4618D1FEF781FE10B1A369E3627F
:104F480018E020688189A06AB8FBF1F2511C2A4652
:104F5800FFF76EF900283FF478AFA06A2946FFF7FB
:104F680005FB0028EAD170E7FEF768FE00283FF449
:104F78006CAFE66220460AB0BDE8F087CC0200209C
:104F8800F8B5044601F056FA03F064FA0546D8B1BC
:104F9800214603F05BFB0D49284603F017FB0C4B39
:104FA80000241E7802F0FAF80746B44207D2E0B2AD
:104FB800FFF730FE026ABA4206D00134F5E7284608
:104FC80003F07CFA0020F8BDF8BD00BF5B9800082C
:104FD800C8020020F8B5044601F02CFA20463E49E4
:104FE80003F03CFB054620B9FEF7CCF83B4A1560B8
:104FF80070E020463A4903F031FB054638BB374E8E
:105008003468002C66D0E06A01F014FA0746206B79
:1050180001F010FA01308742E06A0DDD2F212A469F
:1050280001F034FC206B01F005FA0746E06A01F054
:1050380001FA87424EDB08E001F0FCF90746206BD5
:1050480001F0F8F9411C8F4244D1356042E02378E1
:105058002F2B0CD12046FFF789FE08B90020F8BD98
:105068002046FFF78DFF1D4B1860204630E01B4897
:10507800066820469EB101F0DDF90546F06A01F0A8
:10508800D9F9A91C081803F0E5F9054610B3F16A27
:1050980003F0DCFA2846104903F066FA09E001F04B
:1050A800C9F9023003F0D6F9054698B10A4903F068
:1050B800CDFA2846214603F057FA2846FFF7B2FDF5
:1050C8000028CBD02846FFF75BFF044A106028462B
:1050D800FEF758F80120F8BD5B980008CC020020C4
:1050E800BB93000803682DE9F041B3F80C8005462E
:1050F800C068002700FB08F14FEA5118474559D00E
:10510800302003F0A7F90446002853D02E68024641
:1051180042F8046B28460021FEF712FE06460028D6
:105128003BD094F8242002F01003D8B250B3E869B9
:1051380001F080F90646206A01F07CF9B21C1018CB
:1051480003F088F90646002837D0206A02F026F8CE
:10515800E9692061304603F079FA1949304603F0CD
:1051680003FA216A304603F0FFF93046FFF75AFD8B
:10517800E661A0622046FFF7B5FFD8B1A36A2069AF
:10518800996A06E0206A02F009F8E9692061E1619C
:105198002946FEF7BFFD0137B0E7286A01F0FEFF98
:1051A8002F212861E86903F0F9F906702869A96ACE
:1051B800FEF7B0FD0120BDE8F081BDE8F08100BF39
:1051C8005B98000838B501F0D0F8037805462F2B16
:1051D8001ED0FEF715F801F02DF90446284601F017
:1051E80029F9A11C081803F035F9044608B900206C
:1051F80038BDFEF705F80146204603F027FA204699
:105208000E4903F0B1F92046294603F0ADF90AE04A
:1052180001F010F9013003F01DF904460028E6D02A
:10522800294603F013FA2046FFF7FCFC0028DED0DD
:10523800C461FFF757FF012038BD00BF5B98000825
:1052480030B5A1B069462022802301F00FFCC5B219
:105258000DB900240CE0042003F0FCF804460028F3
:10526800F7D020AB03EB850555F8841C03F0EEF965
:10527800204621B030BD014608B50431806AFFF7E9
:1052880093FA012008BD10B590F82430044603F0C5
:105298000201CAB20AB1FFF7EEFF606808B103F075
:1052A8000DF9206A08B103F009F9204603F006F960
:1052B800012010BD70B5044631490020E26802F0B3
:1052C80071F800202F49226902F06CF800202E495D
:1052D800626902F067F800202C49E26902F062F87E
:1052E80000202B49A26902F05DF80020294902F04C
:1052F80059F894F82030D90703D50020264902F040
:1053080051F894F8200000F00201CAB21AB1002046
:10531800224902F047F894F8205005F01003D8B25B
:1053280018B100201E4902F03DF894F8201001F051
:105338000402D5B21DB100201A4902F033F800204A
:105348001949A28802F02EF800201849A26802F034
:1053580029F80025A3889D4210D220682E018219C1
:105368000CCA0020124902F01DF8216800208E198D
:105378003289104902F016F80135EBE770BD00BF1D
:10538800229700082E9700083897000844970008CD
:105398004E97000858970008659700086B97000813
:1053A800729700087A970008829700089497000877
:1053B800A59700086692000838B500F0D6FF037874
:1053C80005462F2B1ED0FDF71BFF01F033F80446CE
:1053D800284601F02FF8A11C081803F03BF80446F2
:1053E80008B9002419E0FDF70BFF0146204603F039
:1053F8002DF920460A4903F0B7F82046294603F05C
:10540800B3F80AE001F016F8013003F023F8044677
:105418000028E6D0294603F019F9204638BD00BF18
:105428005B9800082DE9F0418AB00C46FFF7C4FFED
:1054380005462046FFF704FF064608B9002036E077
:10544800284601210022FFF7F1FC044620B300F1B1
:105458000408404601A9FDF7F9FF2069A16AFEF793
:1054680059FC0028EAD0206A03F028F8304603F0F7
:1054780001F9013002F0EEFF0746206260B13146C3
:1054880003F0E4F8206A01F089FE41462061A06A31
:10549800FFF76CF8064618B9284603F00FF8CDE771
:1054A8002046FFF7F0FE284603F008F801200AB06E
:1054B800BDE8F0812DE9FF41036815465A6C0446A2
:1054C80012F4606F884601D0002542E0A169E66ABF
:1054D80042F4006058648B1BAB4206D294F8245007
:1054E80025F07F0284F824201D460026AE4221D2F2
:1054F800211DE26A02AB2068FDF7EDFFDDE902231A
:10550800AF1BB84238BF0746B3F1FF3F08BFB2F13F
:10551800FF3FD9D0216808EB060E0868CDF800E0F7
:105528000197D0F818C0886CE047E26AF619D319D9
:10553800E362DBE72068E26A416C21F400634364BC
:10554800A069824205D994F8241021F07F0384F8D9
:105558002430284604B0BDE8F08173B50646022021
:1055680002F078FF044608B9002420E0002596F9E7
:105578002430002B19DB30460DF107010122FFF71B
:1055880099FF90B19DF8070000F0F8FE68B1204639
:10559800A91C02F0D3FF04460028E5D09DF80700B7
:1055A80060550135B5F5806FE1D100216155204680
:1055B8007CBD07B501220DF10701FFF77BFF9DF8C0
:1055C80007000EBD2DE9FF41036817465A6C0446D3
:1055D80012F4606F88464CD142F40060A1695864A7
:1055E8009B897A18E168981E41438A4201D80025B0
:1055F8001CE0A06A0121221DFFF723FA0028F6D13A
:1056080037E07119B94288BFC5EB0706016808EB96
:10561800050ECDF800E00196C969806C8847E36AF9
:10562800A0699A198119E262A161AD19BD4219D226
:10563800211DE26A02AB2068FDF74DFFDDE9022378
:10564800002B08BFB2F5805F064612D3B3F1FF3FC7
:1056580008BFB2F1FF3F2068D3D1436C23F4006246
:10566800426406E023685A6C22F400605864012002
:1056780000E0002004B0BDE8F081F0B50022A1B040
:105688000D460121FFF7D2FB044640B3284602210C
:10569800A269FFF7CBFB054620B92046FFF7F3FDCB
:1056A80028461CE0201DFFF705FE0026A3699E4240
:1056B8000DD2694680222046FFF7FCFE0746694660
:1056C80028463A46FFF77EFFF619002FEED120460E
:1056D800FFF7D9FD2846FFF7D6FD0120FFE721B0E7
:1056E800F0BD07B503688DF80710197C01F00802B2
:1056F800D3B21BB1C16A8269914205D10DF107018C
:105708000122FFF75FFF00E000200EBDFFF75ABF40
:105718002DE9F04782468AB0084600F026FE074683
:10572800FDF76EFD00F086FE0446384600F082FE66
:10573800A11C081802F08EFE0446FDF761FD014623
:10574800204602F083FF3349204602F00DFF394618
:10575800204602F009FF2046FFF764FA05460028B4
:1057680054D0C4614FF032084FF00009302002F0E5
:1057780071FE044600B94AE02B684946036001AA55
:105788002846FEF7DDFA81460028F4D00498431C29
:105798002DD09DF8242002F01001CBB23BB3E8696C
:1057A80000F048FE0646206A00F044FEB21C1018BD
:1057B80002F050FE064648B3206A01F0EFFCE969A2
:1057C8002061304602F042FF1249304602F0CCFE1A
:1057D800216A304602F0C8FE3046FFF723FAE66138
:1057E800A06239465046FFF793FF58B1C3E73846E1
:1057F800089902F033FF28B907493A46DAF82C30FD
:1058080001F0D0FDB8F10108B0D1B4E700200AB02A
:10581800BDE8F0875B980008BE97000890F924302F
:10582800002B08DBC26A8069B2EB000CDCF10001D6
:1058380051EB0C0070470120704710B50446FDF786
:1058480073FA08B9FDF79AFA2046BDE81040FDF74B
:10585800C3BA00000F2804D8144B9A6942F0040018
:1058680021E01F2804D8114B996941F008001AE07B
:105878002F2804D80D4B986940F0100013E03F28FA
:1058880004D80A4B9A6942F020000CE04F2804D84B
:10589800064B996941F0400005E05F2804D8034BA6
:1058A8009A6942F080009861704700BF001002407A
:1058B8000F280BD91F280BD92F280BD93F280BD914
:1058C800064B4F2894BF184600207047044870477D
:1058D800044870470448704704487047001801405E
:1058E80000080140000C0140001001400014014074
:1058F800FF2825D0012923D800F00F03012202FA3E
:1059080003F301B199B20F2801D80E4A0EE01F28FF
:1059180001D80D4A0AE02F2801D80C4A06E03F2892
:1059280001D80B4A02E04F280AD80A4AD0689BB22D
:1059380020EA0300D060D36801201943D160704782
:105948000020704700080140000C01400010014091
:105958000014014000180140FF2838B505460C46E0
:1059680037D0CB1E012B06D929B1182903D02829F5
:1059780001D00B292DD12846FFF76CFF2846FFF7E9
:1059880097FF05F007018900034604F00F020F2076
:1059980002FA01F200FA01F12840C943072806D8A3
:1059A80018680140196019680A431A6005E05868C8
:1059B8000140596059680A435A6014F0180102D02E
:1059C8002846012103E014F0280F02D02846FFF7EB
:1059D8008FFF002038BD000030B500230E4C99B26F
:1059E80004EB83040022A55C854208D171B101292A
:1059F8000ED00A4A0A48022908BF104630BD0132B3
:105A0800042AF0D10133042BE8D130BD054830BD5C
:105A18004FF0804030BD00BFCD9700080004004023
:105A280000080040002C014010B500220023084C5B
:105A3800D9B2A418E45C844202D1481CC0B210BD9B
:105A48000133042BF3D10432102AEFD1002010BD0A
:105A5800CD9700081A48F8B500241A4F4FF4FA53A6
:105A68004473447780F82D4080F83D4080F84D40DD
:105A780080F85D4080F86D4080F87D403B6001F023
:105A880051FB0128064619D901F0B8FD05463046F4
:105A980001F0BCFA304601F035FB01212C80AC80C6
:105AA8002C812C85AC84A98101F042FB3A688121C4
:105AB800B0FBF2F398B2A8852C822980F8BD00BF0C
:105AC8001403002010030020304B2DE9F74F064641
:105AD80018680F46154608B9FFF7BCFF2C4B002481
:105AE800597BA2B269B9DFF8A8B04FEA041A0BEBE8
:105AF8000A09002309F10808082A88F8053009D19D
:105B080006E0187BB042EED001341033082CE7D100
:105B1800002038E0642DFBD8002FF9D0304603214F
:105B28000193FFF719FF019A4BF80A20C9F80420DE
:105B380015B93046294603E0642D04D130460121C9
:105B4800FFF7D6FE19E06423124993FBF5F25D1BBB
:105B5800086893FBF5F17A434F43B0FBF2F2B0FBD0
:105B6800F7F7BB1883424BF80A20C9F80470CFD85E
:105B7800012088F8050088F80460054924010B59BC
:105B88000A1993600120BDE8FE8F00BF940300202E
:105B98001403002010030020642A2DE9F843074667
:105BA8000E46904602D90020BDE8F88301F0BAFA03
:105BB8000028F8D03846FFF70FFF04463846FFF7AD
:105BC80033FF054630B9384631464246BDE8F8430A
:105BD800FFF77ABF002CF6D001F09EFA0128F2D028
:105BE80001F0A6FA002E08BF01268642DBD8B0FBDA
:105BF800F6F96426B9FBF6F00B2108FB00F63846E7
:105C0800FFF7AAFE734B9C4203F5644172D1886981
:105C18001FFA89F940F400638B611920FDF79AFA9D
:105C280000212180A180B4F84420012D6FEA824030
:105C38006FEA90439AB2A4F84420A184A4F82C9067
:105C4800218511D1B6B2A686218B21F078000304F4
:105C58001A0C2283218B88B240F068032383228C9C
:105C680091B241F001003BE0022D11D1B6B2268776
:105C7800228B22F4F0410804030C2383228B91B277
:105C880041F4D0402083238C9AB242F0100027E0E0
:105C9800032D11D1B6B2A687A38B23F07802110485
:105CA800080CA083A38B9AB242F06801A183208CD0
:105CB80083B243F4807013E0042D12D1B6B2A4F875
:105CC8004060A18B21F4F04003041A0CA283A18B3D
:105CD80088B240F4D043A383228C91B241F480501F
:105CE80020843C48838A9AB242F001018123818250
:105CF80003806CE0CA691FFA89F942F00100C861A3
:105D0800CB6943F00202CA61C86940F00403CB6161
:105D18000021012D2180A180A184A4F82C90218547
:105D280011D1B6B2A686228B22F078000304190C92
:105D38002183228B90B240F068032383218C8AB29E
:105D480042F001003BE0022D11D1B6B22687218B2B
:105D580021F4F0421004030C2383218B8AB242F40D
:105D6800D0402083238C99B241F0100027E0032D06
:105D780011D1B6B2A687A38B23F078010A04100CC0
:105D8800A083A38B99B241F06802A283208C83B2CE
:105D980043F4807013E0042D12D1B6B2A4F8406029
:105DA800A28B22F4F0400304190CA183A28B90B2B9
:105DB80040F4D043A383218C8AB242F480502084DB
:105DC800A08A812283B243F00101A18222800120AE
:105DD800BDE8F883002C0140094B10B5094C5A69FD
:105DE800218842F00100084A586141F001032380EC
:105DF80010688047218821F00103238010BD00BF6F
:105E08000004014098030020D0020020094B10B57F
:105E1800094C5A69218842F00200084A586141F049
:105E28000203238050688047218821F002032380E1
:105E380010BD00BF0004014098030020D0020020DC
:105E4800094B10B5094C5A69218842F00400084AE8
:105E5800586141F00403238090688047218821F02D
:105E68000403238010BD00BF0004014098030020F4
:105E7800D0020020094B10B5094C5A69218842F01C
:105E88000800084A586141F008032380D068804719
:105E9800218821F00803238010BD00BF00040140C1
:105EA80098030020D0020020094B10B5094C5A690C
:105EB800218842F01000084A586141F010032380FD
:105EC80010698047218821F01003238010BD00BF8E
:105ED8000004014098030020D0020020324B10B586
:105EE8005A6992060FD55869304C40F02001596123
:105EF80023882F4843F0200222804169884723885D
:105F080023F0200222802849486940060FD54C69B1
:105F1800274844F04003254C4B612288836942F0AE
:105F2800400121809847228822F0400121801E48A4
:105F3800436919060FD544691D4B44F080021B4C78
:105F480042612188DA6941F08000208090472188E9
:105F580021F080002080144B5A69D2050FD55C6966
:105F6800134A44F48071114C59612088116A40F435
:105F7800807323808847208820F4807323800A490F
:105F88004A6990050FD54C69094A44F40070074CDA
:105F980048612388506A43F4007121808047238830
:105FA80023F40071218010BD0004014098030020F3
:105FB800D00200203D4B10B55A6952050FD55869DB
:105FC8003B4C40F48061596123883A4843F480622D
:105FD8002280816A8847238823F48062228033499B
:105FE800486900050FD54C69324844F40063304CC9
:105FF8004B612288C36A42F4006121809847228855
:1060080022F40061218029484369D9040FD54469E5
:10601800284B44F48052264C426121881A6B41F483
:10602800805020809047218821F4805020801F4B89
:106038005A6992040FD55C691E4A44F400511C4CFD
:1060480059612088516B40F4005323808847208889
:1060580020F40053238015494A6950040FD54C6930
:10606800144A44F48040124C48612388906B43F4EE
:10607800804121808047238823F4804121800B4878
:106088004269110411D5446944F40043084C436142
:106098002188084B6FEA41406FEA50422280D96B51
:1060A8008847208820F40042228010BD0004014067
:1060B80098030020D0020020244BDA6942F0805077
:1060C800D861D969224841F00062DA61016841F477
:1060D80080720260186840F0010119601A6A42F47F
:1060E800014040F0010119621521184A106A82071F
:1060F80003D44B1E99B20029F7D140F2F512154886
:10610800838803F020018BB21BB9013A92B2002AAE
:10611800F5D181888BB243F01002828001888BB25E
:1061280043F001020280818821F00F031A04110C48
:10613800002347F6FF72818003818281818821F0E4
:1061480010031A04110C8180704700BF0010024030
:10615800007000400028004040F2F5120C4B99886E
:1061680001F0200189B219B9013A92B2002AF5D199
:1061780099888AB242F01001020C80B299801A8381
:106188009883998821F010021004010C99807047B7
:1061980000280040034B188B998B8AB242EA0040D2
:1061A800704700BF0028004030B50488002340F243
:1061B800B272A2421BD26421B2FBF1F501FB152198
:1061C80069B94FF4C871B2FBF1F501FB152109B9A2
:1061D800910704D003F1F17303F5054305E003F1DA
:1061E800F07303F5993101F5C0730132E1E7827864
:1061F8000AB90121817084780C2C01D90C22827093
:106208008178002201398A4206D20C4D545D0C4D2A
:10621800013205FB0433F6E742793C215143047906
:106228004FF4616202FB04128179C0785218044964
:10623800013801FB0022D01830BD00BFAC9800081F
:106248008051010030B52B4C40F2B273B0FBF4F230
:1062580002F2B2740B800B88A3421DD26422B3FBF6
:10626800F2F502FB153295B275B94FF4C872B3FB5B
:10627800F2F502FB153295B20DB99D0704D0A0F1D5
:10628800F175A5F5054005E000F17E4000F5F61230
:1062980002F548600133DDE7174D0022B0FBF5F445
:1062A8000B2C28BF0B248A708B78144AA34205D282
:1062B800134DED5C02FB05005A1CF4E7114D5C1C04
:1062C800B0FBF5F38C70DCB202FB04044FF46160A0
:1062D800B4FBF0F25D1C0C4BD0B203FB00400A711A
:1062E8003C22B0FBF2F302FB1300CD704B718871B6
:1062F80030BD00BF5885E101A319280080AEFEFF1C
:10630800AC98000880510100F0F1FFFF28B1044B60
:1063180001280CBF1846002070470248704700BF8C
:10632800029800085798000801290378427808D194
:10633800110441EA0362C37880781A4342EA0020D4
:1063480070478178C078090441EA0222134343EA7E
:10635800006070470139002311F8012F1AB18242F9
:1063680008BF0133F8E7184670470346184613F884
:10637800012B12B1083A182AF8D9704720385E283C
:106388008CBF002001207047013911F8013F1BB173
:106398009842FAD1012000E0184640B27047A0F1B7
:1063A8004103192B05D9613819288CBF0020012019
:1063B800704701207047303809288CBF0020012021
:1063C8007047A0F14103192B09D9A0F161011929DE
:1063D80005D9303809288CBF0020012070470120DA
:1063E80070470A2806D00C2804D0B0F10D03584293
:1063F8005841704701207047222804D0B0F1270285
:1064080050425041704701207047000008B50349C9
:10641800FFF7BAFF003018BF012008BD1898000820
:1064280008B50349FFF7B0FF003018BF012008BDC9
:106438002A9800080023C15C9AB229B10133B3F548
:10644800803FF8D14FF6FF7210467047A0F1410324
:10645800192B01D82030C0B2704738B50D46FFF768
:10646800F5FF04462846FFF7F1FFB4EB000EDEF116
:10647800000050EB0E0038BD70B50D460646FFF71C
:10648800D9FF04462846FFF7D5FF84420BD10024E4
:10649800305D30B1295DFFF7E0FF01340028F7D106
:1064A80002E0012070BD002070BD000010B5154944
:1064B8000446FFF7E1FFE0B120461349FFF7DCFF90
:1064C800C8B120461149FFF7D7FFC8B12046104987
:1064D800FFF7D2FF88B120460E49FFF7CDFF70B114
:1064E80020460D49FFF7C8FF00280CBF0B200020ED
:1064F80010BD042010BD032010BD182010BD282099
:1065080010BD00BFDD970008E0970008E497000879
:10651800EB970008F2970008FB97000870B50C4647
:106528000546FFF787FF06462046FFF783FF8642AA
:1065380009D10023EA5C22B1E15C01338A42F9D037
:1065480001E0012070BD002070BD000070B51B493E
:106558000446FFF7E3FF054600282CD120461849DA
:10656800FFF78AFF0646002825D120461549FFF780
:1065780083FF0546F8B920461349FFF77DFFD0B9D8
:1065880020461249FFF7CAFF08B1012070BD204616
:106598000F49FFF771FF0028F7D120460D49FFF793
:1065A8006BFF0028F1D120460B49FFF765FF002853
:1065B800EBD1FF2070BD002070BD00BF57980008C8
:1065C800319800085592000835980008029800088C
:1065D80039980008459200083C9800082DE9F84FC2
:1065E80000254D810D8107460C46FFF723FF8046A5
:1065F80010B90020BDE8F88F042001F02BFF60607F
:106608000028F6D0042001F025FF0646206018B9BE
:10661800606801F053FFECE77B5D2D2B46D105F157
:10662800010917F8092060682D2A08BF05F1020939
:106638006589691C890001F081FF054660600028B2
:10664800D7D00220668901F005FF45F82600636867
:10665800608953F82020002ACBD00026464506EB57
:10666800090508D160896368002153F820200130AA
:106678009155608194E007EB090A1AF80610202961
:10668800F0D02C29EED0B4F80AB06568F11C55F8A2
:106698002B0001F053FF45F82B00618963681AF855
:1066A800062053F8210082550136D7E7202B77D0F2
:1066B8002C2B75D0222B03D101354FF0010901E0B5
:1066C8004FF00009218920684A1C910001F036FF2B
:1066D800064620600220B4F808A001F0BBFE46F888
:1066E8002A002068002884D0238950F82310002924
:1066F8003FF47FAF002646454AD2B4F808B0D4F834
:1067080000A0F11C5AF82B0001F018FF4AF82B00E2
:106718002289206850F82230002B3FF46AAFB9F183
:10672800000F2DD0785D05F10102222801D1154610
:106738002EE05C2827D1B95C1546722901D10D21BC
:1067480022E0742901D109211EE06E290BD10D2008
:10675800985522892368013653F822100A20885553
:1067680008F1010811E06C2901D10A210CE0662921
:1067780001D10C2108E0222906D0272905D103E000
:10678800795D202904D0795D995501360135B2E744
:1067980023892268002152F823000133815523817F
:1067A80001354545FFF438AF0120BDE8F88F704743
:1067B80070B5002310F8015B6DB100240E5D002E4A
:1067C800F8D0B54204D15D1CABB200F8012CF1E75A
:1067D8000134A4B2F2E7D8B270BD0346A0F130008C
:1067E800C0B209280FD9A3F14102052A02D8A3F1A2
:1067F800370305E0A3F16101052903D8A3F1570385
:10680800D8B27047002070472DE9F0470F468146FF
:10681800FFF710FE06463846FFF70CFE013083B23C
:10682800B3421BD3991B1FFA81FA0024544515D093
:1068380000251FFA85F8B04508D23A1919F805005D
:10684800515DFFF70AFE01350028F2D1B04502D1AB
:106858003819BDE8F0870134A4B2E7E70020BDE8A5
:10686800F087000070B505460024074B294653F809
:106878002400E6B2FFF7C8FF10B1701CC0B270BDAB
:1068880001340C2CF1D170BD1800002070B50446FD
:106898000D461646FFF7CEFD30B1013880B2225CB6
:1068A8002318AA42F8D11E70C0B270BDF8B50546CB
:1068B80008460C46FFF7BEFD0646471C1CB938467D
:1068C80001F0C8FD08E02846FFF7B4FD3918204656
:1068D80001F034FE50B10446013EA419013D15F8FB
:1068E800013F13B104F8013BF9E72370F8BD013803
:1068F80010F8013F13B101F8013BF9E70B7070473D
:106908002DE9F74F0C460646B0B1564B186808B14A
:1069180001F0D4FD3046FFF78DFD013001F09AFDFE
:106928000546504805600DB9002597E029463046D0
:10693800FFF7DDFF4C490D604B4A1368002BF3D07D
:10694800494E35682E78002EEED0A6F1080018289A
:1069580004D9E7B23B0605D52F2E03D142490135AC
:106968000D60EDE714F0010B04D03046FFF758FD39
:106978000028F3D104F0080101F0FF02019221B1CF
:106988003046FFF743FD0028E8D104F0100303F078
:10699800FF0923B13046FFF72FFD0028DED104F0B0
:1069A800200000F0FF0AF8B12C2E1DD1D6E704F024
:1069B8000202D3B203BB3A0623D4BBF1000F24D1A1
:1069C800019941BBB9F1000F2BD104F00402D3B2F5
